{
  "_format": "hh-sol-artifact-1",
  "contractName": "DAOVoting",
  "sourceName": "contracts/core/DAOVoting.sol",
  "abi": [
    {
      "inputs": [
        {
          "internalType": "address",
          "name": "_governanceToken",
          "type": "address"
        },
        {
          "internalType": "address",
          "name": "initialOwner",
          "type": "address"
        }
      ],
      "stateMutability": "nonpayable",
      "type": "constructor"
    },
    {
      "inputs": [
        {
          "internalType": "address",
          "name": "owner",
          "type": "address"
        }
      ],
      "name": "OwnableInvalidOwner",
      "type": "error"
    },
    {
      "inputs": [
        {
          "internalType": "address",
          "name": "account",
          "type": "address"
        }
      ],
      "name": "OwnableUnauthorizedAccount",
      "type": "error"
    },
    {
      "inputs": [],
      "name": "ReentrancyGuardReentrantCall",
      "type": "error"
    },
    {
      "anonymous": false,
      "inputs": [
        {
          "indexed": true,
          "internalType": "address",
          "name": "previousOwner",
          "type": "address"
        },
        {
          "indexed": true,
          "internalType": "address",
          "name": "newOwner",
          "type": "address"
        }
      ],
      "name": "OwnershipTransferred",
      "type": "event"
    },
    {
      "anonymous": false,
      "inputs": [
        {
          "indexed": true,
          "internalType": "uint256",
          "name": "proposalId",
          "type": "uint256"
        },
        {
          "indexed": true,
          "internalType": "address",
          "name": "proposer",
          "type": "address"
        },
        {
          "indexed": false,
          "internalType": "string",
          "name": "title",
          "type": "string"
        },
        {
          "indexed": false,
          "internalType": "string",
          "name": "description",
          "type": "string"
        },
        {
          "indexed": false,
          "internalType": "uint256",
          "name": "votingStart",
          "type": "uint256"
        },
        {
          "indexed": false,
          "internalType": "uint256",
          "name": "votingEnd",
          "type": "uint256"
        }
      ],
      "name": "ProposalCreated",
      "type": "event"
    },
    {
      "anonymous": false,
      "inputs": [
        {
          "indexed": true,
          "internalType": "uint256",
          "name": "proposalId",
          "type": "uint256"
        },
        {
          "indexed": false,
          "internalType": "enum DAOVoting.ProposalState",
          "name": "newState",
          "type": "uint8"
        }
      ],
      "name": "ProposalStateChanged",
      "type": "event"
    },
    {
      "anonymous": false,
      "inputs": [
        {
          "indexed": true,
          "internalType": "uint256",
          "name": "proposalId",
          "type": "uint256"
        },
        {
          "indexed": true,
          "internalType": "address",
          "name": "voter",
          "type": "address"
        },
        {
          "indexed": false,
          "internalType": "bool",
          "name": "support",
          "type": "bool"
        },
        {
          "indexed": false,
          "internalType": "uint256",
          "name": "weight",
          "type": "uint256"
        }
      ],
      "name": "VoteCast",
      "type": "event"
    },
    {
      "anonymous": false,
      "inputs": [
        {
          "indexed": true,
          "internalType": "address",
          "name": "voter",
          "type": "address"
        }
      ],
      "name": "VoterRegistered",
      "type": "event"
    },
    {
      "anonymous": false,
      "inputs": [
        {
          "indexed": false,
          "internalType": "uint256",
          "name": "votingDelay",
          "type": "uint256"
        },
        {
          "indexed": false,
          "internalType": "uint256",
          "name": "votingPeriod",
          "type": "uint256"
        },
        {
          "indexed": false,
          "internalType": "uint256",
          "name": "proposalThreshold",
          "type": "uint256"
        },
        {
          "indexed": false,
          "internalType": "uint256",
          "name": "quorumPercentage",
          "type": "uint256"
        }
      ],
      "name": "VotingParametersUpdated",
      "type": "event"
    },
    {
      "inputs": [
        {
          "internalType": "address",
          "name": "voter",
          "type": "address"
        }
      ],
      "name": "calculateVotingWeight",
      "outputs": [
        {
          "internalType": "uint256",
          "name": "",
          "type": "uint256"
        }
      ],
      "stateMutability": "view",
      "type": "function"
    },
    {
      "inputs": [
        {
          "internalType": "uint256",
          "name": "_proposalId",
          "type": "uint256"
        }
      ],
      "name": "cancelProposal",
      "outputs": [],
      "stateMutability": "nonpayable",
      "type": "function"
    },
    {
      "inputs": [
        {
          "internalType": "uint256",
          "name": "_proposalId",
          "type": "uint256"
        },
        {
          "internalType": "bool",
          "name": "_support",
          "type": "bool"
        }
      ],
      "name": "castVote",
      "outputs": [],
      "stateMutability": "nonpayable",
      "type": "function"
    },
    {
      "inputs": [
        {
          "internalType": "uint256",
          "name": "_proposalId",
          "type": "uint256"
        }
      ],
      "name": "finalizeProposal",
      "outputs": [],
      "stateMutability": "nonpayable",
      "type": "function"
    },
    {
      "inputs": [
        {
          "internalType": "uint256",
          "name": "_proposalId",
          "type": "uint256"
        }
      ],
      "name": "getProposalDetails",
      "outputs": [
        {
          "internalType": "uint256",
          "name": "id",
          "type": "uint256"
        },
        {
          "internalType": "string",
          "name": "title",
          "type": "string"
        },
        {
          "internalType": "string",
          "name": "description",
          "type": "string"
        },
        {
          "internalType": "address",
          "name": "proposer",
          "type": "address"
        },
        {
          "internalType": "uint256",
          "name": "yesVotes",
          "type": "uint256"
        },
        {
          "internalType": "uint256",
          "name": "noVotes",
          "type": "uint256"
        },
        {
          "internalType": "uint256",
          "name": "totalVotingWeight",
          "type": "uint256"
        },
        {
          "internalType": "enum DAOVoting.ProposalState",
          "name": "state",
          "type": "uint8"
        },
        {
          "internalType": "uint256",
          "name": "createdAt",
          "type": "uint256"
        },
        {
          "internalType": "uint256",
          "name": "votingStart",
          "type": "uint256"
        },
        {
          "internalType": "uint256",
          "name": "votingEnd",
          "type": "uint256"
        }
      ],
      "stateMutability": "view",
      "type": "function"
    },
    {
      "inputs": [
        {
          "internalType": "uint256",
          "name": "_proposalId",
          "type": "uint256"
        },
        {
          "internalType": "address",
          "name": "_voter",
          "type": "address"
        }
      ],
      "name": "getVote",
      "outputs": [
        {
          "internalType": "bool",
          "name": "hasVotedOnProposal",
          "type": "bool"
        },
        {
          "internalType": "bool",
          "name": "support",
          "type": "bool"
        },
        {
          "internalType": "uint256",
          "name": "weight",
          "type": "uint256"
        },
        {
          "internalType": "uint256",
          "name": "timestamp",
          "type": "uint256"
        }
      ],
      "stateMutability": "view",
      "type": "function"
    },
    {
      "inputs": [
        {
          "internalType": "address",
          "name": "_voter",
          "type": "address"
        }
      ],
      "name": "getVotingPowerOf",
      "outputs": [
        {
          "internalType": "uint256",
          "name": "",
          "type": "uint256"
        }
      ],
      "stateMutability": "view",
      "type": "function"
    },
    {
      "inputs": [],
      "name": "governanceToken",
      "outputs": [
        {
          "internalType": "contract IGovernanceToken",
          "name": "",
          "type": "address"
        }
      ],
      "stateMutability": "view",
      "type": "function"
    },
    {
      "inputs": [
        {
          "internalType": "uint256",
          "name": "",
          "type": "uint256"
        },
        {
          "internalType": "address",
          "name": "",
          "type": "address"
        }
      ],
      "name": "hasVoted",
      "outputs": [
        {
          "internalType": "bool",
          "name": "",
          "type": "bool"
        }
      ],
      "stateMutability": "view",
      "type": "function"
    },
    {
      "inputs": [
        {
          "internalType": "address",
          "name": "_user",
          "type": "address"
        }
      ],
      "name": "isVoterRegistered",
      "outputs": [
        {
          "internalType": "bool",
          "name": "",
          "type": "bool"
        }
      ],
      "stateMutability": "view",
      "type": "function"
    },
    {
      "inputs": [],
      "name": "owner",
      "outputs": [
        {
          "internalType": "address",
          "name": "",
          "type": "address"
        }
      ],
      "stateMutability": "view",
      "type": "function"
    },
    {
      "inputs": [],
      "name": "proposalCount",
      "outputs": [
        {
          "internalType": "uint256",
          "name": "",
          "type": "uint256"
        }
      ],
      "stateMutability": "view",
      "type": "function"
    },
    {
      "inputs": [],
      "name": "proposalThreshold",
      "outputs": [
        {
          "internalType": "uint256",
          "name": "",
          "type": "uint256"
        }
      ],
      "stateMutability": "view",
      "type": "function"
    },
    {
      "inputs": [
        {
          "internalType": "uint256",
          "name": "",
          "type": "uint256"
        }
      ],
      "name": "proposals",
      "outputs": [
        {
          "internalType": "uint256",
          "name": "id",
          "type": "uint256"
        },
        {
          "internalType": "string",
          "name": "title",
          "type": "string"
        },
        {
          "internalType": "string",
          "name": "description",
          "type": "string"
        },
        {
          "internalType": "address",
          "name": "proposer",
          "type": "address"
        },
        {
          "internalType": "uint256",
          "name": "yesVotes",
          "type": "uint256"
        },
        {
          "internalType": "uint256",
          "name": "noVotes",
          "type": "uint256"
        },
        {
          "internalType": "uint256",
          "name": "totalVotingWeight",
          "type": "uint256"
        },
        {
          "internalType": "enum DAOVoting.ProposalState",
          "name": "state",
          "type": "uint8"
        },
        {
          "internalType": "uint256",
          "name": "createdAt",
          "type": "uint256"
        },
        {
          "internalType": "uint256",
          "name": "votingStart",
          "type": "uint256"
        },
        {
          "internalType": "uint256",
          "name": "votingEnd",
          "type": "uint256"
        },
        {
          "internalType": "uint256",
          "name": "minTokensRequired",
          "type": "uint256"
        }
      ],
      "stateMutability": "view",
      "type": "function"
    },
    {
      "inputs": [],
      "name": "quorumPercentage",
      "outputs": [
        {
          "internalType": "uint256",
          "name": "",
          "type": "uint256"
        }
      ],
      "stateMutability": "view",
      "type": "function"
    },
    {
      "inputs": [
        {
          "internalType": "address",
          "name": "_voter",
          "type": "address"
        }
      ],
      "name": "registerVoter",
      "outputs": [],
      "stateMutability": "nonpayable",
      "type": "function"
    },
    {
      "inputs": [
        {
          "internalType": "address",
          "name": "",
          "type": "address"
        }
      ],
      "name": "registeredVoters",
      "outputs": [
        {
          "internalType": "bool",
          "name": "",
          "type": "bool"
        }
      ],
      "stateMutability": "view",
      "type": "function"
    },
    {
      "inputs": [],
      "name": "renounceOwnership",
      "outputs": [],
      "stateMutability": "nonpayable",
      "type": "function"
    },
    {
      "inputs": [
        {
          "internalType": "uint256",
          "name": "_proposalId",
          "type": "uint256"
        }
      ],
      "name": "startVoting",
      "outputs": [],
      "stateMutability": "nonpayable",
      "type": "function"
    },
    {
      "inputs": [
        {
          "internalType": "string",
          "name": "_title",
          "type": "string"
        },
        {
          "internalType": "string",
          "name": "_description",
          "type": "string"
        },
        {
          "internalType": "uint256",
          "name": "_minTokensRequired",
          "type": "uint256"
        }
      ],
      "name": "submitProposal",
      "outputs": [],
      "stateMutability": "nonpayable",
      "type": "function"
    },
    {
      "inputs": [
        {
          "internalType": "address",
          "name": "newOwner",
          "type": "address"
        }
      ],
      "name": "transferOwnership",
      "outputs": [],
      "stateMutability": "nonpayable",
      "type": "function"
    },
    {
      "inputs": [
        {
          "internalType": "uint256",
          "name": "_votingDelay",
          "type": "uint256"
        },
        {
          "internalType": "uint256",
          "name": "_votingPeriod",
          "type": "uint256"
        },
        {
          "internalType": "uint256",
          "name": "_proposalThreshold",
          "type": "uint256"
        },
        {
          "internalType": "uint256",
          "name": "_quorumPercentage",
          "type": "uint256"
        }
      ],
      "name": "updateVotingParameters",
      "outputs": [],
      "stateMutability": "nonpayable",
      "type": "function"
    },
    {
      "inputs": [
        {
          "internalType": "uint256",
          "name": "",
          "type": "uint256"
        },
        {
          "internalType": "address",
          "name": "",
          "type": "address"
        }
      ],
      "name": "votes",
      "outputs": [
        {
          "internalType": "bool",
          "name": "support",
          "type": "bool"
        },
        {
          "internalType": "uint256",
          "name": "weight",
          "type": "uint256"
        },
        {
          "internalType": "uint256",
          "name": "timestamp",
          "type": "uint256"
        }
      ],
      "stateMutability": "view",
      "type": "function"
    },
    {
      "inputs": [],
      "name": "votingDelay",
      "outputs": [
        {
          "internalType": "uint256",
          "name": "",
          "type": "uint256"
        }
      ],
      "stateMutability": "view",
      "type": "function"
    },
    {
      "inputs": [],
      "name": "votingPeriod",
      "outputs": [
        {
          "internalType": "uint256",
          "name": "",
          "type": "uint256"
        }
      ],
      "stateMutability": "view",
      "type": "function"
    }
  ],
  "bytecode": "0x6080604052610e1060085562093a80600955683635c9adc5dea00000600a556028600b5534801561002f57600080fd5b5060405161218838038061218883398101604081905261004e91610174565b806001600160a01b03811661007e57604051631e4fbdf760e01b8152600060048201526024015b60405180910390fd5b61008781610108565b50600180556001600160a01b0382166100e25760405162461bcd60e51b815260206004820181905260248201527f496e76616c696420676f7665726e616e636520746f6b656e20616464726573736044820152606401610075565b50600280546001600160a01b0319166001600160a01b03929092169190911790556101a7565b600080546001600160a01b038381166001600160a01b0319831681178455604051919092169283917f8be0079c531659141344cd1fd0a4f28419497f9722a3daafe3b4186f6b6457e09190a35050565b80516001600160a01b038116811461016f57600080fd5b919050565b6000806040838503121561018757600080fd5b61019083610158565b915061019e60208401610158565b90509250929050565b611fd2806101b66000396000f3fe608060405234801561001057600080fd5b50600436106101735760003560e01c8063715018a6116100de578063bc3f931f11610097578063e0a8f6f511610071578063e0a8f6f5146103c9578063eb2119db146103dc578063f2fde38b14610408578063f96dae0a1461041b57600080fd5b8063bc3f931f14610330578063d23254b414610365578063da35c664146103c057600080fd5b8063715018a6146102b15780638da5cb5b146102b9578063a9ff6df1146102de578063b58131b014610301578063ba8554c71461030a578063bac7c8901461031d57600080fd5b80633b4d01a7116101305780633b4d01a7146102075780633d2f5bda1461023157806343859632146102445780634595fbfc146102825780634fa76ec9146102955780635652077c1461029e57600080fd5b8063013cf08b1461017857806302a251a3146101ac57806315373e3d146101c3578063317571b2146101d857806338db6dd3146101eb5780633932abb1146101fe575b600080fd5b61018b610186366004611961565b61042e565b6040516101a39c9b9a999897969594939291906119f8565b60405180910390f35b6101b560095481565b6040519081526020016101a3565b6101d66101d1366004611a82565b6105aa565b005b6101b56101e6366004611ad3565b6109c3565b6101d66101f9366004611ad3565b610a3c565b6101b560085481565b61021a610215366004611961565b610b47565b6040516101a39b9a99989796959493929190611aee565b6101d661023f366004611961565b610dc5565b610272610252366004611b70565b600660209081526000928352604080842090915290825290205460ff1681565b60405190151581526020016101a3565b6101b5610290366004611ad3565b610efb565b6101b5600b5481565b6101d66102ac366004611961565b610f0c565b6101d661115a565b6000546001600160a01b03165b6040516001600160a01b0390911681526020016101a3565b6102726102ec366004611ad3565b60036020526000908152604090205460ff1681565b6101b5600a5481565b6101d6610318366004611c41565b61116e565b6101d661032b366004611cb4565b6114fe565b61034361033e366004611b70565b61166a565b60408051941515855292151560208501529183015260608201526080016101a3565b6103a3610373366004611b70565b600560209081526000928352604080842090915290825290208054600182015460029092015460ff909116919083565b6040805193151584526020840192909252908201526060016101a3565b6101b560075481565b6101d66103d7366004611961565b611708565b6102726103ea366004611ad3565b6001600160a01b031660009081526003602052604090205460ff1690565b6101d6610416366004611ad3565b61187c565b6002546102c6906001600160a01b031681565b6004602052600090815260409020805460018201805491929161045090611ce6565b80601f016020809104026020016040519081016040528092919081815260200182805461047c90611ce6565b80156104c95780601f1061049e576101008083540402835291602001916104c9565b820191906000526020600020905b8154815290600101906020018083116104ac57829003601f168201915b5050505050908060020180546104de90611ce6565b80601f016020809104026020016040519081016040528092919081815260200182805461050a90611ce6565b80156105575780601f1061052c57610100808354040283529160200191610557565b820191906000526020600020905b81548152906001019060200180831161053a57829003601f168201915b50505060038401546004850154600586015460068701546007880154600889015460098a0154600a8b0154600b909b0154999a6001600160a01b0390971699959850939650919460ff909116939192918c565b3360009081526003602052604090205460ff166105e25760405162461bcd60e51b81526004016105d990611d20565b60405180910390fd5b816000811180156105f557506007548111155b6106115760405162461bcd60e51b81526004016105d990611d6e565b6106196118ba565b60008381526004602052604090206001600782015460ff166005811115610642576106426119c0565b146106855760405162461bcd60e51b815260206004820152601360248201527250726f706f73616c206e6f742061637469766560681b60448201526064016105d9565b80600901544210156106d25760405162461bcd60e51b8152602060048201526016602482015275159bdd1a5b99c81b9bdd081e595d081cdd185c9d195960521b60448201526064016105d9565b80600a01544211156107265760405162461bcd60e51b815260206004820152601760248201527f566f74696e6720706572696f642068617320656e64656400000000000000000060448201526064016105d9565b600084815260066020908152604080832033845290915290205460ff16156107905760405162461bcd60e51b815260206004820152601e60248201527f416c726561647920766f746564206f6e20746869732070726f706f73616c000060448201526064016105d9565b6002546040516370a0823160e01b81523360048201526000916001600160a01b0316906370a0823190602401602060405180830381865afa1580156107d9573d6000803e3d6000fd5b505050506040513d601f19601f820116820180604052508101906107fd9190611d9b565b905081600b01548110156108535760405162461bcd60e51b815260206004820152601b60248201527f496e73756666696369656e7420746f6b656e7320746f20766f7465000000000060448201526064016105d9565b600061085e336109c3565b9050600081116108a25760405162461bcd60e51b815260206004820152600f60248201526e2737903b37ba34b733903837bbb2b960891b60448201526064016105d9565b600086815260066020908152604080832033808552908352818420805460ff19908116600190811790925583516060810185528b1580158252818701898152428388019081528f8a5260058952878a20968a529590975294909620955186549015159116178555925192840192909255905160029092019190915561094057808360040160008282546109359190611dca565b9091555061095a9050565b808360050160008282546109549190611dca565b90915550505b8083600601600082825461096e9190611dca565b909155505060408051861515815260208101839052339188917fcbdf6214089cba887ecbf35a0b6a734589959c9763342c756bb2a80ca2bc9f6e910160405180910390a35050506109be60018055565b505050565b6002546040516370a0823160e01b81526001600160a01b03838116600483015260009283929116906370a0823190602401602060405180830381865afa158015610a11573d6000803e3d6000fd5b505050506040513d601f19601f82011682018060405250810190610a359190611d9b565b9392505050565b610a446118e4565b6001600160a01b038116610a925760405162461bcd60e51b8152602060048201526015602482015274496e76616c696420766f746572206164647265737360581b60448201526064016105d9565b6001600160a01b03811660009081526003602052604090205460ff1615610afb5760405162461bcd60e51b815260206004820152601860248201527f566f74657220616c72656164792072656769737465726564000000000000000060448201526064016105d9565b6001600160a01b038116600081815260036020526040808220805460ff19166001179055517fb6be2187d059cc2a55fe29e0e503b566e1e0f8c8780096e185429350acffd3dd9190a250565b60006060806000806000806000806000808b600081118015610b6b57506007548111155b610b875760405162461bcd60e51b81526004016105d990611d6e565b6000600460008f81526020019081526020016000206040518061018001604052908160008201548152602001600182018054610bc290611ce6565b80601f0160208091040260200160405190810160405280929190818152602001828054610bee90611ce6565b8015610c3b5780601f10610c1057610100808354040283529160200191610c3b565b820191906000526020600020905b815481529060010190602001808311610c1e57829003601f168201915b50505050508152602001600282018054610c5490611ce6565b80601f0160208091040260200160405190810160405280929190818152602001828054610c8090611ce6565b8015610ccd5780601f10610ca257610100808354040283529160200191610ccd565b820191906000526020600020905b815481529060010190602001808311610cb057829003601f168201915b505050918352505060038201546001600160a01b0316602082015260048201546040820152600580830154606083015260068301546080830152600783015460a09092019160ff1690811115610d2557610d256119c0565b6005811115610d3657610d366119c0565b81526020016008820154815260200160098201548152602001600a8201548152602001600b820154815250509050806000015181602001518260400151836060015184608001518560a001518660c001518760e001518861010001518961012001518a61014001519c509c509c509c509c509c509c509c509c509c509c50505091939597999b90929496989a50565b80600081118015610dd857506007548111155b610df45760405162461bcd60e51b81526004016105d990611d6e565b600082815260046020526040812090600782015460ff166005811115610e1c57610e1c6119c0565b14610e695760405162461bcd60e51b815260206004820152601d60248201527f50726f706f73616c206e6f7420696e2070656e64696e6720737461746500000060448201526064016105d9565b8060090154421015610ebd5760405162461bcd60e51b815260206004820152601d60248201527f566f74696e6720706572696f64206e6f7420796574207374617274656400000060448201526064016105d9565b60078101805460ff191660019081179091556040518491600080516020611f7d83398151915291610eee9190611ddd565b60405180910390a2505050565b6000610f06826109c3565b92915050565b80600081118015610f1f57506007548111155b610f3b5760405162461bcd60e51b81526004016105d990611d6e565b60008281526004602052604090206001600782015460ff166005811115610f6457610f646119c0565b14610fa75760405162461bcd60e51b815260206004820152601360248201527250726f706f73616c206e6f742061637469766560681b60448201526064016105d9565b80600a01544211610ffa5760405162461bcd60e51b815260206004820152601760248201527f566f74696e6720706572696f64206e6f7420656e64656400000000000000000060448201526064016105d9565b600254604080516318160ddd60e01b815290516000926001600160a01b0316916318160ddd9160048083019260209291908290030181865afa158015611044573d6000803e3d6000fd5b505050506040513d601f19601f820116820180604052508101906110689190611d9b565b905060006064600b548361107c9190611deb565b6110869190611e02565b905080836006015410156110d45760078301805460ff191660039081179091556040518691600080516020611f7d833981519152916110c59190611ddd565b60405180910390a25050505050565b8260050154836004015411156111225760078301805460ff191660029081179091556040518691600080516020611f7d833981519152916111159190611ddd565b60405180910390a2611153565b60078301805460ff191660039081179091556040518691600080516020611f7d833981519152916110c59190611ddd565b5050505050565b6111626118e4565b61116c6000611911565b565b3360009081526003602052604090205460ff1661119d5760405162461bcd60e51b81526004016105d990611d20565b6111a56118ba565b60008351116111ee5760405162461bcd60e51b81526020600482015260156024820152745469746c652063616e6e6f7420626520656d70747960581b60448201526064016105d9565b600082511161123f5760405162461bcd60e51b815260206004820152601b60248201527f4465736372697074696f6e2063616e6e6f7420626520656d707479000000000060448201526064016105d9565b600a546002546040516370a0823160e01b81523360048201526001600160a01b03909116906370a0823190602401602060405180830381865afa15801561128a573d6000803e3d6000fd5b505050506040513d601f19601f820116820180604052508101906112ae9190611d9b565b101561130b5760405162461bcd60e51b815260206004820152602660248201527f496e73756666696369656e7420746f6b656e7320746f206372656174652070726044820152651bdc1bdcd85b60d21b60648201526084016105d9565b6007805490600061131b83611e24565b91905055506000600854426113309190611dca565b90506000600954826113429190611dca565b90506040518061018001604052806007548152602001868152602001858152602001336001600160a01b031681526020016000815260200160008152602001600081526020016000600581111561139b5761139b6119c0565b8152602001428152602001838152602001828152602001848152506004600060075481526020019081526020016000206000820151816000015560208201518160010190816113ea9190611e84565b50604082015160028201906113ff9082611e84565b5060608201518160030160006101000a8154816001600160a01b0302191690836001600160a01b031602179055506080820151816004015560a0820151816005015560c0820151816006015560e08201518160070160006101000a81548160ff02191690836005811115611475576114756119c0565b02179055506101008201518160080155610120820151816009015561014082015181600a015561016082015181600b0155905050336001600160a01b03166007547ffaa337366f7965edea73e5dda4e27a18008218bee177df73f82fc597a1f4dd08878786866040516114eb9493929190611f43565b60405180910390a350506109be60018055565b6115066118e4565b62093a808411156115515760405162461bcd60e51b8152602060048201526015602482015274566f74696e672064656c617920746f6f206c6f6e6760581b60448201526064016105d9565b620151808310158015611567575062278d008311155b6115ab5760405162461bcd60e51b8152602060048201526015602482015274125b9d985b1a59081d9bdd1a5b99c81c195c9a5bd9605a1b60448201526064016105d9565b6000811180156115bc575060648111155b6116085760405162461bcd60e51b815260206004820152601960248201527f496e76616c69642071756f72756d2070657263656e746167650000000000000060448201526064016105d9565b60088490556009839055600a829055600b8190556040805185815260208101859052908101839052606081018290527ff5e803816406a252dd16a6e9892dc156e15843340ab6e7cf84d3a5f4bbe11ff19060800160405180910390a150505050565b60008281526006602090815260408083206001600160a01b038516845290915281205460ff1690808083156116f25750505060008381526005602090815260408083206001600160a01b03861684528252918290208251606081018452815460ff161515808252600180840154948301859052600290930154919094018190529093506116ff565b5060009250829150819050805b92959194509250565b8060008111801561171b57506007548111155b6117375760405162461bcd60e51b81526004016105d990611d6e565b600082815260046020526040902060038101546001600160a01b031633148061176a57506000546001600160a01b031633145b6117c05760405162461bcd60e51b815260206004820152602160248201527f4f6e6c792070726f706f736572206f72206f776e65722063616e2063616e63656044820152601b60fa1b60648201526084016105d9565b6000600782015460ff1660058111156117db576117db6119c0565b14806117ff57506001600782015460ff1660058111156117fd576117fd6119c0565b145b61184b5760405162461bcd60e51b815260206004820181905260248201527f43616e6e6f742063616e63656c2066696e616c697a65642070726f706f73616c60448201526064016105d9565b60078101805460ff191660059081179091556040518491600080516020611f7d83398151915291610eee9190611ddd565b6118846118e4565b6001600160a01b0381166118ae57604051631e4fbdf760e01b8152600060048201526024016105d9565b6118b781611911565b50565b6002600154036118dd57604051633ee5aeb560e01b815260040160405180910390fd5b6002600155565b6000546001600160a01b0316331461116c5760405163118cdaa760e01b81523360048201526024016105d9565b600080546001600160a01b038381166001600160a01b0319831681178455604051919092169283917f8be0079c531659141344cd1fd0a4f28419497f9722a3daafe3b4186f6b6457e09190a35050565b60006020828403121561197357600080fd5b5035919050565b6000815180845260005b818110156119a057602081850181015186830182015201611984565b506000602082860101526020601f19601f83011685010191505092915050565b634e487b7160e01b600052602160045260246000fd5b600681106119f457634e487b7160e01b600052602160045260246000fd5b9052565b8c815261018060208201526000611a1361018083018e61197a565b8281036040840152611a25818e61197a565b91505060018060a01b038b1660608301528960808301528860a08301528760c0830152611a5560e08301886119d6565b856101008301528461012083015283610140830152826101608301529d9c50505050505050505050505050565b60008060408385031215611a9557600080fd5b8235915060208301358015158114611aac57600080fd5b809150509250929050565b80356001600160a01b0381168114611ace57600080fd5b919050565b600060208284031215611ae557600080fd5b610a3582611ab7565b8b815261016060208201526000611b0961016083018d61197a565b8281036040840152611b1b818d61197a565b91505060018060a01b038a1660608301528860808301528760a08301528660c0830152611b4b60e08301876119d6565b8461010083015283610120830152826101408301529c9b505050505050505050505050565b60008060408385031215611b8357600080fd5b82359150611b9360208401611ab7565b90509250929050565b634e487b7160e01b600052604160045260246000fd5b600082601f830112611bc357600080fd5b813567ffffffffffffffff811115611bdd57611bdd611b9c565b604051601f8201601f19908116603f0116810167ffffffffffffffff81118282101715611c0c57611c0c611b9c565b604052818152838201602001851015611c2457600080fd5b816020850160208301376000918101602001919091529392505050565b600080600060608486031215611c5657600080fd5b833567ffffffffffffffff811115611c6d57600080fd5b611c7986828701611bb2565b935050602084013567ffffffffffffffff811115611c9657600080fd5b611ca286828701611bb2565b93969395505050506040919091013590565b60008060008060808587031215611cca57600080fd5b5050823594602084013594506040840135936060013592509050565b600181811c90821680611cfa57607f821691505b602082108103611d1a57634e487b7160e01b600052602260045260246000fd5b50919050565b6020808252602e908201527f4f6e6c79207265676973746572656420766f746572732063616e20706572666f60408201526d3936903a3434b99030b1ba34b7b760911b606082015260800190565b602080825260139082015272125b9d985b1a59081c1c9bdc1bdcd85b081251606a1b604082015260600190565b600060208284031215611dad57600080fd5b5051919050565b634e487b7160e01b600052601160045260246000fd5b80820180821115610f0657610f06611db4565b60208101610f0682846119d6565b8082028115828204841417610f0657610f06611db4565b600082611e1f57634e487b7160e01b600052601260045260246000fd5b500490565b600060018201611e3657611e36611db4565b5060010190565b601f8211156109be57806000526020600020601f840160051c81016020851015611e645750805b601f840160051c820191505b818110156111535760008155600101611e70565b815167ffffffffffffffff811115611e9e57611e9e611b9c565b611eb281611eac8454611ce6565b84611e3d565b6020601f821160018114611ee65760008315611ece5750848201515b600019600385901b1c1916600184901b178455611153565b600084815260208120601f198516915b82811015611f165787850151825560209485019460019092019101611ef6565b5084821015611f345786840151600019600387901b60f8161c191681555b50505050600190811b01905550565b608081526000611f56608083018761197a565b8281036020840152611f68818761197a565b60408401959095525050606001529291505056fed6b3a81dd8b7dc419d8d0f20797397ea2eaba914386b89898aa638438803a1eca264697066735822122022fd80cc67b4f3d40a70905a0652a7ede9de94be97273ba2dc1cf7eb1a5f0c2e64736f6c634300081c0033",
  "linkReferences": {},
  "deployedLinkReferences": {}
}