{
  "_format": "hh-sol-artifact-1",
  "contractName": "DAOVoting",
  "sourceName": "contracts/core/DAOVoting.sol",
  "abi": [
    {
      "inputs": [
        {
          "internalType": "address",
          "name": "_governanceToken",
          "type": "address"
        },
        {
          "internalType": "address",
          "name": "_reputationManager",
          "type": "address"
        },
        {
          "internalType": "address",
          "name": "initialOwner",
          "type": "address"
        }
      ],
      "stateMutability": "nonpayable",
      "type": "constructor"
    },
    {
      "inputs": [
        {
          "internalType": "address",
          "name": "owner",
          "type": "address"
        }
      ],
      "name": "OwnableInvalidOwner",
      "type": "error"
    },
    {
      "inputs": [
        {
          "internalType": "address",
          "name": "account",
          "type": "address"
        }
      ],
      "name": "OwnableUnauthorizedAccount",
      "type": "error"
    },
    {
      "inputs": [],
      "name": "ReentrancyGuardReentrantCall",
      "type": "error"
    },
    {
      "anonymous": false,
      "inputs": [
        {
          "indexed": true,
          "internalType": "address",
          "name": "previousOwner",
          "type": "address"
        },
        {
          "indexed": true,
          "internalType": "address",
          "name": "newOwner",
          "type": "address"
        }
      ],
      "name": "OwnershipTransferred",
      "type": "event"
    },
    {
      "anonymous": false,
      "inputs": [
        {
          "indexed": true,
          "internalType": "uint256",
          "name": "proposalId",
          "type": "uint256"
        },
        {
          "indexed": true,
          "internalType": "address",
          "name": "proposer",
          "type": "address"
        },
        {
          "indexed": false,
          "internalType": "string",
          "name": "title",
          "type": "string"
        },
        {
          "indexed": false,
          "internalType": "string",
          "name": "description",
          "type": "string"
        },
        {
          "indexed": false,
          "internalType": "uint256",
          "name": "votingStart",
          "type": "uint256"
        },
        {
          "indexed": false,
          "internalType": "uint256",
          "name": "votingEnd",
          "type": "uint256"
        }
      ],
      "name": "ProposalCreated",
      "type": "event"
    },
    {
      "anonymous": false,
      "inputs": [
        {
          "indexed": true,
          "internalType": "uint256",
          "name": "proposalId",
          "type": "uint256"
        },
        {
          "indexed": false,
          "internalType": "enum DAOVoting.ProposalState",
          "name": "newState",
          "type": "uint8"
        }
      ],
      "name": "ProposalStateChanged",
      "type": "event"
    },
    {
      "anonymous": false,
      "inputs": [
        {
          "indexed": true,
          "internalType": "uint256",
          "name": "proposalId",
          "type": "uint256"
        },
        {
          "indexed": true,
          "internalType": "address",
          "name": "voter",
          "type": "address"
        },
        {
          "indexed": false,
          "internalType": "bool",
          "name": "support",
          "type": "bool"
        },
        {
          "indexed": false,
          "internalType": "uint256",
          "name": "weight",
          "type": "uint256"
        }
      ],
      "name": "VoteCast",
      "type": "event"
    },
    {
      "anonymous": false,
      "inputs": [
        {
          "indexed": true,
          "internalType": "address",
          "name": "voter",
          "type": "address"
        }
      ],
      "name": "VoterRegistered",
      "type": "event"
    },
    {
      "anonymous": false,
      "inputs": [
        {
          "indexed": false,
          "internalType": "uint256",
          "name": "votingDelay",
          "type": "uint256"
        },
        {
          "indexed": false,
          "internalType": "uint256",
          "name": "votingPeriod",
          "type": "uint256"
        },
        {
          "indexed": false,
          "internalType": "uint256",
          "name": "proposalThreshold",
          "type": "uint256"
        },
        {
          "indexed": false,
          "internalType": "uint256",
          "name": "quorumPercentage",
          "type": "uint256"
        }
      ],
      "name": "VotingParametersUpdated",
      "type": "event"
    },
    {
      "anonymous": false,
      "inputs": [
        {
          "indexed": false,
          "internalType": "uint256",
          "name": "tokenWeight",
          "type": "uint256"
        },
        {
          "indexed": false,
          "internalType": "uint256",
          "name": "reputationWeight",
          "type": "uint256"
        }
      ],
      "name": "WeightParametersUpdated",
      "type": "event"
    },
    {
      "inputs": [
        {
          "internalType": "address",
          "name": "voter",
          "type": "address"
        }
      ],
      "name": "calculateVotingWeight",
      "outputs": [
        {
          "internalType": "uint256",
          "name": "",
          "type": "uint256"
        }
      ],
      "stateMutability": "view",
      "type": "function"
    },
    {
      "inputs": [
        {
          "internalType": "uint256",
          "name": "_proposalId",
          "type": "uint256"
        }
      ],
      "name": "cancelProposal",
      "outputs": [],
      "stateMutability": "nonpayable",
      "type": "function"
    },
    {
      "inputs": [
        {
          "internalType": "uint256",
          "name": "_proposalId",
          "type": "uint256"
        },
        {
          "internalType": "bool",
          "name": "_support",
          "type": "bool"
        }
      ],
      "name": "castVote",
      "outputs": [],
      "stateMutability": "nonpayable",
      "type": "function"
    },
    {
      "inputs": [
        {
          "internalType": "uint256",
          "name": "_proposalId",
          "type": "uint256"
        }
      ],
      "name": "finalizeProposal",
      "outputs": [],
      "stateMutability": "nonpayable",
      "type": "function"
    },
    {
      "inputs": [
        {
          "internalType": "uint256",
          "name": "_proposalId",
          "type": "uint256"
        }
      ],
      "name": "getProposalDetails",
      "outputs": [
        {
          "internalType": "uint256",
          "name": "id",
          "type": "uint256"
        },
        {
          "internalType": "string",
          "name": "title",
          "type": "string"
        },
        {
          "internalType": "string",
          "name": "description",
          "type": "string"
        },
        {
          "internalType": "address",
          "name": "proposer",
          "type": "address"
        },
        {
          "internalType": "uint256",
          "name": "yesVotes",
          "type": "uint256"
        },
        {
          "internalType": "uint256",
          "name": "noVotes",
          "type": "uint256"
        },
        {
          "internalType": "uint256",
          "name": "totalVotingWeight",
          "type": "uint256"
        },
        {
          "internalType": "enum DAOVoting.ProposalState",
          "name": "state",
          "type": "uint8"
        },
        {
          "internalType": "uint256",
          "name": "createdAt",
          "type": "uint256"
        },
        {
          "internalType": "uint256",
          "name": "votingStart",
          "type": "uint256"
        },
        {
          "internalType": "uint256",
          "name": "votingEnd",
          "type": "uint256"
        }
      ],
      "stateMutability": "view",
      "type": "function"
    },
    {
      "inputs": [
        {
          "internalType": "uint256",
          "name": "_proposalId",
          "type": "uint256"
        },
        {
          "internalType": "address",
          "name": "_voter",
          "type": "address"
        }
      ],
      "name": "getVote",
      "outputs": [
        {
          "internalType": "bool",
          "name": "hasVotedOnProposal",
          "type": "bool"
        },
        {
          "internalType": "bool",
          "name": "support",
          "type": "bool"
        },
        {
          "internalType": "uint256",
          "name": "weight",
          "type": "uint256"
        },
        {
          "internalType": "uint256",
          "name": "timestamp",
          "type": "uint256"
        }
      ],
      "stateMutability": "view",
      "type": "function"
    },
    {
      "inputs": [
        {
          "internalType": "address",
          "name": "_voter",
          "type": "address"
        }
      ],
      "name": "getVotingPowerOf",
      "outputs": [
        {
          "internalType": "uint256",
          "name": "",
          "type": "uint256"
        }
      ],
      "stateMutability": "view",
      "type": "function"
    },
    {
      "inputs": [],
      "name": "governanceToken",
      "outputs": [
        {
          "internalType": "contract IGovernanceToken",
          "name": "",
          "type": "address"
        }
      ],
      "stateMutability": "view",
      "type": "function"
    },
    {
      "inputs": [
        {
          "internalType": "uint256",
          "name": "",
          "type": "uint256"
        },
        {
          "internalType": "address",
          "name": "",
          "type": "address"
        }
      ],
      "name": "hasVoted",
      "outputs": [
        {
          "internalType": "bool",
          "name": "",
          "type": "bool"
        }
      ],
      "stateMutability": "view",
      "type": "function"
    },
    {
      "inputs": [
        {
          "internalType": "address",
          "name": "_user",
          "type": "address"
        }
      ],
      "name": "isVoterRegistered",
      "outputs": [
        {
          "internalType": "bool",
          "name": "",
          "type": "bool"
        }
      ],
      "stateMutability": "view",
      "type": "function"
    },
    {
      "inputs": [],
      "name": "owner",
      "outputs": [
        {
          "internalType": "address",
          "name": "",
          "type": "address"
        }
      ],
      "stateMutability": "view",
      "type": "function"
    },
    {
      "inputs": [],
      "name": "proposalCount",
      "outputs": [
        {
          "internalType": "uint256",
          "name": "",
          "type": "uint256"
        }
      ],
      "stateMutability": "view",
      "type": "function"
    },
    {
      "inputs": [],
      "name": "proposalThreshold",
      "outputs": [
        {
          "internalType": "uint256",
          "name": "",
          "type": "uint256"
        }
      ],
      "stateMutability": "view",
      "type": "function"
    },
    {
      "inputs": [
        {
          "internalType": "uint256",
          "name": "",
          "type": "uint256"
        }
      ],
      "name": "proposals",
      "outputs": [
        {
          "internalType": "uint256",
          "name": "id",
          "type": "uint256"
        },
        {
          "internalType": "string",
          "name": "title",
          "type": "string"
        },
        {
          "internalType": "string",
          "name": "description",
          "type": "string"
        },
        {
          "internalType": "address",
          "name": "proposer",
          "type": "address"
        },
        {
          "internalType": "uint256",
          "name": "yesVotes",
          "type": "uint256"
        },
        {
          "internalType": "uint256",
          "name": "noVotes",
          "type": "uint256"
        },
        {
          "internalType": "uint256",
          "name": "totalVotingWeight",
          "type": "uint256"
        },
        {
          "internalType": "enum DAOVoting.ProposalState",
          "name": "state",
          "type": "uint8"
        },
        {
          "internalType": "uint256",
          "name": "createdAt",
          "type": "uint256"
        },
        {
          "internalType": "uint256",
          "name": "votingStart",
          "type": "uint256"
        },
        {
          "internalType": "uint256",
          "name": "votingEnd",
          "type": "uint256"
        },
        {
          "internalType": "uint256",
          "name": "minTokensRequired",
          "type": "uint256"
        },
        {
          "internalType": "uint256",
          "name": "minReputationRequired",
          "type": "uint256"
        }
      ],
      "stateMutability": "view",
      "type": "function"
    },
    {
      "inputs": [],
      "name": "quorumPercentage",
      "outputs": [
        {
          "internalType": "uint256",
          "name": "",
          "type": "uint256"
        }
      ],
      "stateMutability": "view",
      "type": "function"
    },
    {
      "inputs": [
        {
          "internalType": "address",
          "name": "_voter",
          "type": "address"
        }
      ],
      "name": "registerVoter",
      "outputs": [],
      "stateMutability": "nonpayable",
      "type": "function"
    },
    {
      "inputs": [
        {
          "internalType": "address",
          "name": "",
          "type": "address"
        }
      ],
      "name": "registeredVoters",
      "outputs": [
        {
          "internalType": "bool",
          "name": "",
          "type": "bool"
        }
      ],
      "stateMutability": "view",
      "type": "function"
    },
    {
      "inputs": [],
      "name": "renounceOwnership",
      "outputs": [],
      "stateMutability": "nonpayable",
      "type": "function"
    },
    {
      "inputs": [],
      "name": "reputationManager",
      "outputs": [
        {
          "internalType": "contract IReputationManager",
          "name": "",
          "type": "address"
        }
      ],
      "stateMutability": "view",
      "type": "function"
    },
    {
      "inputs": [],
      "name": "reputationWeightPercentage",
      "outputs": [
        {
          "internalType": "uint256",
          "name": "",
          "type": "uint256"
        }
      ],
      "stateMutability": "view",
      "type": "function"
    },
    {
      "inputs": [
        {
          "internalType": "uint256",
          "name": "_proposalId",
          "type": "uint256"
        }
      ],
      "name": "startVoting",
      "outputs": [],
      "stateMutability": "nonpayable",
      "type": "function"
    },
    {
      "inputs": [
        {
          "internalType": "string",
          "name": "_title",
          "type": "string"
        },
        {
          "internalType": "string",
          "name": "_description",
          "type": "string"
        },
        {
          "internalType": "uint256",
          "name": "_minTokensRequired",
          "type": "uint256"
        },
        {
          "internalType": "uint256",
          "name": "_minReputationRequired",
          "type": "uint256"
        }
      ],
      "name": "submitProposal",
      "outputs": [],
      "stateMutability": "nonpayable",
      "type": "function"
    },
    {
      "inputs": [],
      "name": "tokenWeightPercentage",
      "outputs": [
        {
          "internalType": "uint256",
          "name": "",
          "type": "uint256"
        }
      ],
      "stateMutability": "view",
      "type": "function"
    },
    {
      "inputs": [
        {
          "internalType": "address",
          "name": "newOwner",
          "type": "address"
        }
      ],
      "name": "transferOwnership",
      "outputs": [],
      "stateMutability": "nonpayable",
      "type": "function"
    },
    {
      "inputs": [
        {
          "internalType": "uint256",
          "name": "_votingDelay",
          "type": "uint256"
        },
        {
          "internalType": "uint256",
          "name": "_votingPeriod",
          "type": "uint256"
        },
        {
          "internalType": "uint256",
          "name": "_proposalThreshold",
          "type": "uint256"
        },
        {
          "internalType": "uint256",
          "name": "_quorumPercentage",
          "type": "uint256"
        }
      ],
      "name": "updateVotingParameters",
      "outputs": [],
      "stateMutability": "nonpayable",
      "type": "function"
    },
    {
      "inputs": [
        {
          "internalType": "uint256",
          "name": "_tokenWeightPercentage",
          "type": "uint256"
        },
        {
          "internalType": "uint256",
          "name": "_reputationWeightPercentage",
          "type": "uint256"
        }
      ],
      "name": "updateWeightParameters",
      "outputs": [],
      "stateMutability": "nonpayable",
      "type": "function"
    },
    {
      "inputs": [
        {
          "internalType": "uint256",
          "name": "",
          "type": "uint256"
        },
        {
          "internalType": "address",
          "name": "",
          "type": "address"
        }
      ],
      "name": "votes",
      "outputs": [
        {
          "internalType": "bool",
          "name": "support",
          "type": "bool"
        },
        {
          "internalType": "uint256",
          "name": "weight",
          "type": "uint256"
        },
        {
          "internalType": "uint256",
          "name": "timestamp",
          "type": "uint256"
        }
      ],
      "stateMutability": "view",
      "type": "function"
    },
    {
      "inputs": [],
      "name": "votingDelay",
      "outputs": [
        {
          "internalType": "uint256",
          "name": "",
          "type": "uint256"
        }
      ],
      "stateMutability": "view",
      "type": "function"
    },
    {
      "inputs": [],
      "name": "votingPeriod",
      "outputs": [
        {
          "internalType": "uint256",
          "name": "",
          "type": "uint256"
        }
      ],
      "stateMutability": "view",
      "type": "function"
    }
  ],
  "bytecode": "0x6080604052610e1060095562093a80600a55683635c9adc5dea00000600b556028600c55611b58600d55610bb8600e5534801561003b57600080fd5b5060405161277038038061277083398101604081905261005a916101ed565b806001600160a01b03811661008a57604051631e4fbdf760e01b8152600060048201526024015b60405180910390fd5b61009381610181565b50600180556001600160a01b0383166100ee5760405162461bcd60e51b815260206004820181905260248201527f496e76616c696420676f7665726e616e636520746f6b656e20616464726573736044820152606401610081565b6001600160a01b03821661014f5760405162461bcd60e51b815260206004820152602260248201527f496e76616c69642072657075746174696f6e206d616e61676572206164647265604482015261737360f01b6064820152608401610081565b50600280546001600160a01b039384166001600160a01b03199182161790915560038054929093169116179055610230565b600080546001600160a01b038381166001600160a01b0319831681178455604051919092169283917f8be0079c531659141344cd1fd0a4f28419497f9722a3daafe3b4186f6b6457e09190a35050565b80516001600160a01b03811681146101e857600080fd5b919050565b60008060006060848603121561020257600080fd5b61020b846101d1565b9250610219602085016101d1565b9150610227604085016101d1565b90509250925092565b6125318061023f6000396000f3fe608060405234801561001057600080fd5b50600436106101cf5760003560e01c80638da5cb5b11610104578063da35c664116100a2578063eb2119db11610071578063eb2119db14610462578063f2fde38b1461048e578063f8a007cb146104a1578063f96dae0a146104b457600080fd5b8063da35c6641461042a578063e0a8f6f514610433578063e46844d314610446578063e5cd09ab1461044f57600080fd5b8063b58131b0116100de578063b58131b01461037e578063bac7c89014610387578063bc3f931f1461039a578063d23254b4146103cf57600080fd5b80638da5cb5b146103415780639b60704414610352578063a9ff6df11461035b57600080fd5b80633d2f5bda116101715780634fa76ec91161014b5780634fa76ec9146102f25780635652077c146102fb5780636b868afb1461030e578063715018a61461033957600080fd5b80633d2f5bda1461028e57806343859632146102a15780634595fbfc146102df57600080fd5b8063317571b2116101ad578063317571b21461023557806338db6dd3146102485780633932abb11461025b5780633b4d01a71461026457600080fd5b8063013cf08b146101d457806302a251a31461020957806315373e3d14610220575b600080fd5b6101e76101e2366004611e64565b6104c7565b6040516102009d9c9b9a99989796959493929190611efb565b60405180910390f35b610212600a5481565b604051908152602001610200565b61023361022e366004611f9a565b610649565b005b610212610243366004611fe6565b610b89565b610233610256366004611fe6565b610de7565b61021260095481565b610277610272366004611e64565b610fcd565b6040516102009b9a99989796959493929190612008565b61023361029c366004611e64565b611255565b6102cf6102af36600461208a565b600760209081526000928352604080842090915290825290205460ff1681565b6040519015158152602001610200565b6102126102ed366004611fe6565b61138b565b610212600c5481565b610233610309366004611e64565b61139c565b600354610321906001600160a01b031681565b6040516001600160a01b039091168152602001610200565b61023361158e565b6000546001600160a01b0316610321565b610212600e5481565b6102cf610369366004611fe6565b60046020526000908152604090205460ff1681565b610212600b5481565b6102336103953660046120b6565b6115a2565b6103ad6103a836600461208a565b61170e565b6040805194151585529215156020850152918301526060820152608001610200565b61040d6103dd36600461208a565b600660209081526000928352604080842090915290825290208054600182015460029092015460ff909116919083565b604080519315158452602084019290925290820152606001610200565b61021260085481565b610233610441366004611e64565b6117ac565b610212600d5481565b61023361045d3660046120e8565b611920565b6102cf610470366004611fe6565b6001600160a01b031660009081526004602052604090205460ff1690565b61023361049c366004611fe6565b6119d8565b6102336104af3660046121af565b611a16565b600254610321906001600160a01b031681565b600560205260009081526040902080546001820180549192916104e990612228565b80601f016020809104026020016040519081016040528092919081815260200182805461051590612228565b80156105625780601f1061053757610100808354040283529160200191610562565b820191906000526020600020905b81548152906001019060200180831161054557829003601f168201915b50505050509080600201805461057790612228565b80601f01602080910402602001604051908101604052809291908181526020018280546105a390612228565b80156105f05780601f106105c5576101008083540402835291602001916105f0565b820191906000526020600020905b8154815290600101906020018083116105d357829003601f168201915b50505060038401546004850154600586015460068701546007880154600889015460098a0154600a8b0154600b8c0154600c909c01549a9b6001600160a01b039098169a969950949750929560ff90921694909391908d565b3360009081526004602052604090205460ff166106815760405162461bcd60e51b815260040161067890612262565b60405180910390fd5b8160008111801561069457506008548111155b6106b05760405162461bcd60e51b8152600401610678906122b0565b6106b8611dbd565b60008381526005602052604090206001600782015460ff1660058111156106e1576106e1611ec3565b146107245760405162461bcd60e51b815260206004820152601360248201527250726f706f73616c206e6f742061637469766560681b6044820152606401610678565b80600901544210156107715760405162461bcd60e51b8152602060048201526016602482015275159bdd1a5b99c81b9bdd081e595d081cdd185c9d195960521b6044820152606401610678565b80600a01544211156107c55760405162461bcd60e51b815260206004820152601760248201527f566f74696e6720706572696f642068617320656e6465640000000000000000006044820152606401610678565b600084815260076020908152604080832033845290915290205460ff161561082f5760405162461bcd60e51b815260206004820152601e60248201527f416c726561647920766f746564206f6e20746869732070726f706f73616c00006044820152606401610678565b6002546040516370a0823160e01b81523360048201526000916001600160a01b0316906370a0823190602401602060405180830381865afa158015610878573d6000803e3d6000fd5b505050506040513d601f19601f8201168201806040525081019061089c91906122dd565b600354604051631d699f5760e21b81523360048201529192506000916001600160a01b03909116906375a67d5c90602401602060405180830381865afa1580156108ea573d6000803e3d6000fd5b505050506040513d601f19601f8201168201806040525081019061090e91906122dd565b905082600b01548210156109645760405162461bcd60e51b815260206004820152601b60248201527f496e73756666696369656e7420746f6b656e7320746f20766f746500000000006044820152606401610678565b82600c01548110156109b85760405162461bcd60e51b815260206004820152601f60248201527f496e73756666696369656e742072657075746174696f6e20746f20766f7465006044820152606401610678565b60006109c333610b89565b905060008111610a075760405162461bcd60e51b815260206004820152600f60248201526e2737903b37ba34b733903837bbb2b960891b6044820152606401610678565b6001600760008981526020019081526020016000206000336001600160a01b03166001600160a01b0316815260200190815260200160002060006101000a81548160ff0219169083151502179055506040518060600160405280871515815260200182815260200142815250600660008981526020019081526020016000206000336001600160a01b03166001600160a01b0316815260200190815260200160002060008201518160000160006101000a81548160ff02191690831515021790555060208201518160010155604082015181600201559050508515610b055780846004016000828254610afa919061230c565b90915550610b1f9050565b80846005016000828254610b19919061230c565b90915550505b80846006016000828254610b33919061230c565b909155505060408051871515815260208101839052339189917fcbdf6214089cba887ecbf35a0b6a734589959c9763342c756bb2a80ca2bc9f6e910160405180910390a350505050610b8460018055565b505050565b6002546040516370a0823160e01b81526001600160a01b03838116600483015260009283929116906370a0823190602401602060405180830381865afa158015610bd7573d6000803e3d6000fd5b505050506040513d601f19601f82011682018060405250810190610bfb91906122dd565b600354604051631d699f5760e21b81526001600160a01b038681166004830152929350600092909116906375a67d5c90602401602060405180830381865afa158015610c4b573d6000803e3d6000fd5b505050506040513d601f19601f82011682018060405250810190610c6f91906122dd565b905081158015610c7d575080155b15610c8c575060009392505050565b6000600a600260009054906101000a90046001600160a01b03166001600160a01b03166318160ddd6040518163ffffffff1660e01b8152600401602060405180830381865afa158015610ce3573d6000803e3d6000fd5b505050506040513d601f19601f82011682018060405250810190610d0791906122dd565b610d11919061231f565b90506000818411610d225783610d24565b815b9050600082600d5483610d379190612341565b610d41919061231f565b600e54600354604051631123850d60e11b81526001600160a01b038b81166004830152939450600093612710939216906322470a1a90602401602060405180830381865afa158015610d97573d6000803e3d6000fd5b505050506040513d601f19601f82011682018060405250810190610dbb91906122dd565b610dc59190612341565b610dcf919061231f565b9050610ddb818361230c565b98975050505050505050565b610def611de7565b6001600160a01b038116610e3d5760405162461bcd60e51b8152602060048201526015602482015274496e76616c696420766f746572206164647265737360581b6044820152606401610678565b6001600160a01b03811660009081526004602052604090205460ff1615610ea65760405162461bcd60e51b815260206004820152601860248201527f566f74657220616c7265616479207265676973746572656400000000000000006044820152606401610678565b6001600160a01b03818116600081815260046020819052604091829020805460ff191660011790556003549151630264c0a360e11b815290810192909252909116906304c9814690602401602060405180830381865afa158015610f0e573d6000803e3d6000fd5b505050506040513d601f19601f82011682018060405250810190610f329190612358565b610f9657600354604051637bb27c1160e01b81526001600160a01b03838116600483015290911690637bb27c1190602401600060405180830381600087803b158015610f7d57600080fd5b505af1158015610f91573d6000803e3d6000fd5b505050505b6040516001600160a01b038216907fb6be2187d059cc2a55fe29e0e503b566e1e0f8c8780096e185429350acffd3dd90600090a250565b60006060806000806000806000806000808b600081118015610ff157506008548111155b61100d5760405162461bcd60e51b8152600401610678906122b0565b6000600560008f8152602001908152602001600020604051806101a00160405290816000820154815260200160018201805461104890612228565b80601f016020809104026020016040519081016040528092919081815260200182805461107490612228565b80156110c15780601f10611096576101008083540402835291602001916110c1565b820191906000526020600020905b8154815290600101906020018083116110a457829003601f168201915b505050505081526020016002820180546110da90612228565b80601f016020809104026020016040519081016040528092919081815260200182805461110690612228565b80156111535780601f1061112857610100808354040283529160200191611153565b820191906000526020600020905b81548152906001019060200180831161113657829003601f168201915b505050918352505060038201546001600160a01b0316602082015260048201546040820152600580830154606083015260068301546080830152600783015460a09092019160ff16908111156111ab576111ab611ec3565b60058111156111bc576111bc611ec3565b81526020016008820154815260200160098201548152602001600a8201548152602001600b8201548152602001600c820154815250509050806000015181602001518260400151836060015184608001518560a001518660c001518760e001518861010001518961012001518a61014001519c509c509c509c509c509c509c509c509c509c509c50505091939597999b90929496989a50565b8060008111801561126857506008548111155b6112845760405162461bcd60e51b8152600401610678906122b0565b600082815260056020526040812090600782015460ff1660058111156112ac576112ac611ec3565b146112f95760405162461bcd60e51b815260206004820152601d60248201527f50726f706f73616c206e6f7420696e2070656e64696e672073746174650000006044820152606401610678565b806009015442101561134d5760405162461bcd60e51b815260206004820152601d60248201527f566f74696e6720706572696f64206e6f742079657420737461727465640000006044820152606401610678565b60078101805460ff1916600190811790915560405184916000805160206124dc8339815191529161137e9190612375565b60405180910390a2505050565b600061139682610b89565b92915050565b806000811180156113af57506008548111155b6113cb5760405162461bcd60e51b8152600401610678906122b0565b60008281526005602052604090206001600782015460ff1660058111156113f4576113f4611ec3565b146114375760405162461bcd60e51b815260206004820152601360248201527250726f706f73616c206e6f742061637469766560681b6044820152606401610678565b80600a0154421161148a5760405162461bcd60e51b815260206004820152601760248201527f566f74696e6720706572696f64206e6f7420656e6465640000000000000000006044820152606401610678565b6000600e54600d5461149c919061230c565b905060006064600c54836114b09190612341565b6114ba919061231f565b905080836006015410156115085760078301805460ff1916600390811790915560405186916000805160206124dc833981519152916114f99190612375565b60405180910390a25050505050565b8260050154836004015411156115565760078301805460ff1916600290811790915560405186916000805160206124dc833981519152916115499190612375565b60405180910390a2611587565b60078301805460ff1916600390811790915560405186916000805160206124dc833981519152916114f99190612375565b5050505050565b611596611de7565b6115a06000611e14565b565b6115aa611de7565b62093a808411156115f55760405162461bcd60e51b8152602060048201526015602482015274566f74696e672064656c617920746f6f206c6f6e6760581b6044820152606401610678565b62015180831015801561160b575062278d008311155b61164f5760405162461bcd60e51b8152602060048201526015602482015274125b9d985b1a59081d9bdd1a5b99c81c195c9a5bd9605a1b6044820152606401610678565b600081118015611660575060648111155b6116ac5760405162461bcd60e51b815260206004820152601960248201527f496e76616c69642071756f72756d2070657263656e74616765000000000000006044820152606401610678565b6009849055600a839055600b829055600c8190556040805185815260208101859052908101839052606081018290527ff5e803816406a252dd16a6e9892dc156e15843340ab6e7cf84d3a5f4bbe11ff19060800160405180910390a150505050565b60008281526007602090815260408083206001600160a01b038516845290915281205460ff1690808083156117965750505060008381526006602090815260408083206001600160a01b03861684528252918290208251606081018452815460ff161515808252600180840154948301859052600290930154919094018190529093506117a3565b5060009250829150819050805b92959194509250565b806000811180156117bf57506008548111155b6117db5760405162461bcd60e51b8152600401610678906122b0565b600082815260056020526040902060038101546001600160a01b031633148061180e57506000546001600160a01b031633145b6118645760405162461bcd60e51b815260206004820152602160248201527f4f6e6c792070726f706f736572206f72206f776e65722063616e2063616e63656044820152601b60fa1b6064820152608401610678565b6000600782015460ff16600581111561187f5761187f611ec3565b14806118a357506001600782015460ff1660058111156118a1576118a1611ec3565b145b6118ef5760405162461bcd60e51b815260206004820181905260248201527f43616e6e6f742063616e63656c2066696e616c697a65642070726f706f73616c6044820152606401610678565b60078101805460ff1916600590811790915560405184916000805160206124dc8339815191529161137e9190612375565b611928611de7565b611932818361230c565b612710146119915760405162461bcd60e51b815260206004820152602660248201527f57656967687473206d7573742073756d20746f20313030303020626173697320604482015265706f696e747360d01b6064820152608401610678565b600d829055600e81905560408051838152602081018390527f4bbb97bf74267726b1241aa122ce7da5afa65e237271e1e687bb5e698c3fce28910160405180910390a15050565b6119e0611de7565b6001600160a01b038116611a0a57604051631e4fbdf760e01b815260006004820152602401610678565b611a1381611e14565b50565b3360009081526004602052604090205460ff16611a455760405162461bcd60e51b815260040161067890612262565b611a4d611dbd565b6000845111611a965760405162461bcd60e51b81526020600482015260156024820152745469746c652063616e6e6f7420626520656d70747960581b6044820152606401610678565b6000835111611ae75760405162461bcd60e51b815260206004820152601b60248201527f4465736372697074696f6e2063616e6e6f7420626520656d70747900000000006044820152606401610678565b600b546002546040516370a0823160e01b81523360048201526001600160a01b03909116906370a0823190602401602060405180830381865afa158015611b32573d6000803e3d6000fd5b505050506040513d601f19601f82011682018060405250810190611b5691906122dd565b1015611bb35760405162461bcd60e51b815260206004820152602660248201527f496e73756666696369656e7420746f6b656e7320746f206372656174652070726044820152651bdc1bdcd85b60d21b6064820152608401610678565b60088054906000611bc383612383565b9190505550600060095442611bd8919061230c565b90506000600a5482611bea919061230c565b9050604051806101a001604052806008548152602001878152602001868152602001336001600160a01b0316815260200160008152602001600081526020016000815260200160006005811115611c4357611c43611ec3565b815260200142815260200183815260200182815260200185815260200184815250600560006008548152602001908152602001600020600082015181600001556020820151816001019081611c9891906123e3565b5060408201516002820190611cad90826123e3565b5060608201518160030160006101000a8154816001600160a01b0302191690836001600160a01b031602179055506080820151816004015560a0820151816005015560c0820151816006015560e08201518160070160006101000a81548160ff02191690836005811115611d2357611d23611ec3565b02179055506101008201518160080155610120820151816009015561014082015181600a015561016082015181600b015561018082015181600c0155905050336001600160a01b03166008547ffaa337366f7965edea73e5dda4e27a18008218bee177df73f82fc597a1f4dd0888888686604051611da494939291906124a2565b60405180910390a35050611db760018055565b50505050565b600260015403611de057604051633ee5aeb560e01b815260040160405180910390fd5b6002600155565b6000546001600160a01b031633146115a05760405163118cdaa760e01b8152336004820152602401610678565b600080546001600160a01b038381166001600160a01b0319831681178455604051919092169283917f8be0079c531659141344cd1fd0a4f28419497f9722a3daafe3b4186f6b6457e09190a35050565b600060208284031215611e7657600080fd5b5035919050565b6000815180845260005b81811015611ea357602081850181015186830182015201611e87565b506000602082860101526020601f19601f83011685010191505092915050565b634e487b7160e01b600052602160045260246000fd5b60068110611ef757634e487b7160e01b600052602160045260246000fd5b9052565b8d81526101a060208201526000611f166101a083018f611e7d565b8281036040840152611f28818f611e7d565b91505060018060a01b038c1660608301528a60808301528960a08301528860c0830152611f5860e0830189611ed9565b6101008201969096526101208101949094526101408401929092526101608301526101809091015298975050505050505050565b8015158114611a1357600080fd5b60008060408385031215611fad57600080fd5b823591506020830135611fbf81611f8c565b809150509250929050565b80356001600160a01b0381168114611fe157600080fd5b919050565b600060208284031215611ff857600080fd5b61200182611fca565b9392505050565b8b81526101606020820152600061202361016083018d611e7d565b8281036040840152612035818d611e7d565b91505060018060a01b038a1660608301528860808301528760a08301528660c083015261206560e0830187611ed9565b8461010083015283610120830152826101408301529c9b505050505050505050505050565b6000806040838503121561209d57600080fd5b823591506120ad60208401611fca565b90509250929050565b600080600080608085870312156120cc57600080fd5b5050823594602084013594506040840135936060013592509050565b600080604083850312156120fb57600080fd5b50508035926020909101359150565b634e487b7160e01b600052604160045260246000fd5b600082601f83011261213157600080fd5b813567ffffffffffffffff81111561214b5761214b61210a565b604051601f8201601f19908116603f0116810167ffffffffffffffff8111828210171561217a5761217a61210a565b60405281815283820160200185101561219257600080fd5b816020850160208301376000918101602001919091529392505050565b600080600080608085870312156121c557600080fd5b843567ffffffffffffffff8111156121dc57600080fd5b6121e887828801612120565b945050602085013567ffffffffffffffff81111561220557600080fd5b61221187828801612120565b949794965050505060408301359260600135919050565b600181811c9082168061223c57607f821691505b60208210810361225c57634e487b7160e01b600052602260045260246000fd5b50919050565b6020808252602e908201527f4f6e6c79207265676973746572656420766f746572732063616e20706572666f60408201526d3936903a3434b99030b1ba34b7b760911b606082015260800190565b602080825260139082015272125b9d985b1a59081c1c9bdc1bdcd85b081251606a1b604082015260600190565b6000602082840312156122ef57600080fd5b5051919050565b634e487b7160e01b600052601160045260246000fd5b80820180821115611396576113966122f6565b60008261233c57634e487b7160e01b600052601260045260246000fd5b500490565b8082028115828204841417611396576113966122f6565b60006020828403121561236a57600080fd5b815161200181611f8c565b602081016113968284611ed9565b600060018201612395576123956122f6565b5060010190565b601f821115610b8457806000526020600020601f840160051c810160208510156123c35750805b601f840160051c820191505b8181101561158757600081556001016123cf565b815167ffffffffffffffff8111156123fd576123fd61210a565b6124118161240b8454612228565b8461239c565b6020601f821160018114612445576000831561242d5750848201515b600019600385901b1c1916600184901b178455611587565b600084815260208120601f198516915b828110156124755787850151825560209485019460019092019101612455565b50848210156124935786840151600019600387901b60f8161c191681555b50505050600190811b01905550565b6080815260006124b56080830187611e7d565b82810360208401526124c78187611e7d565b60408401959095525050606001529291505056fed6b3a81dd8b7dc419d8d0f20797397ea2eaba914386b89898aa638438803a1eca264697066735822122044a0d465881899912b9fbfb1a105c38a16e4c0bcf09ba95985945fe6d34c4baa64736f6c634300081c0033",
  "linkReferences": {},
  "deployedLinkReferences": {}
}