{
  "_format": "hh-sol-artifact-1",
  "contractName": "DAOVoting",
  "sourceName": "contracts/core/DAOVoting.sol",
  "abi": [
    {
      "inputs": [
        {
          "internalType": "address",
          "name": "_governanceToken",
          "type": "address"
        },
        {
          "internalType": "address",
          "name": "initialOwner",
          "type": "address"
        }
      ],
      "stateMutability": "nonpayable",
      "type": "constructor"
    },
    {
      "inputs": [
        {
          "internalType": "address",
          "name": "owner",
          "type": "address"
        }
      ],
      "name": "OwnableInvalidOwner",
      "type": "error"
    },
    {
      "inputs": [
        {
          "internalType": "address",
          "name": "account",
          "type": "address"
        }
      ],
      "name": "OwnableUnauthorizedAccount",
      "type": "error"
    },
    {
      "inputs": [],
      "name": "ReentrancyGuardReentrantCall",
      "type": "error"
    },
    {
      "anonymous": false,
      "inputs": [
        {
          "indexed": true,
          "internalType": "address",
          "name": "previousOwner",
          "type": "address"
        },
        {
          "indexed": true,
          "internalType": "address",
          "name": "newOwner",
          "type": "address"
        }
      ],
      "name": "OwnershipTransferred",
      "type": "event"
    },
    {
      "anonymous": false,
      "inputs": [
        {
          "indexed": true,
          "internalType": "uint256",
          "name": "proposalId",
          "type": "uint256"
        },
        {
          "indexed": true,
          "internalType": "address",
          "name": "proposer",
          "type": "address"
        },
        {
          "indexed": false,
          "internalType": "string",
          "name": "title",
          "type": "string"
        },
        {
          "indexed": false,
          "internalType": "string",
          "name": "description",
          "type": "string"
        },
        {
          "indexed": false,
          "internalType": "uint256",
          "name": "votingStart",
          "type": "uint256"
        },
        {
          "indexed": false,
          "internalType": "uint256",
          "name": "votingEnd",
          "type": "uint256"
        }
      ],
      "name": "ProposalCreated",
      "type": "event"
    },
    {
      "anonymous": false,
      "inputs": [
        {
          "indexed": true,
          "internalType": "uint256",
          "name": "proposalId",
          "type": "uint256"
        },
        {
          "indexed": false,
          "internalType": "enum DAOVoting.ProposalState",
          "name": "newState",
          "type": "uint8"
        }
      ],
      "name": "ProposalStateChanged",
      "type": "event"
    },
    {
      "anonymous": false,
      "inputs": [
        {
          "indexed": true,
          "internalType": "uint256",
          "name": "proposalId",
          "type": "uint256"
        },
        {
          "indexed": true,
          "internalType": "address",
          "name": "voter",
          "type": "address"
        },
        {
          "indexed": false,
          "internalType": "bool",
          "name": "support",
          "type": "bool"
        },
        {
          "indexed": false,
          "internalType": "uint256",
          "name": "weight",
          "type": "uint256"
        }
      ],
      "name": "VoteCast",
      "type": "event"
    },
    {
      "anonymous": false,
      "inputs": [
        {
          "indexed": true,
          "internalType": "address",
          "name": "voter",
          "type": "address"
        }
      ],
      "name": "VoterRegistered",
      "type": "event"
    },
    {
      "anonymous": false,
      "inputs": [
        {
          "indexed": false,
          "internalType": "uint256",
          "name": "votingDelay",
          "type": "uint256"
        },
        {
          "indexed": false,
          "internalType": "uint256",
          "name": "votingPeriod",
          "type": "uint256"
        },
        {
          "indexed": false,
          "internalType": "uint256",
          "name": "proposalThreshold",
          "type": "uint256"
        },
        {
          "indexed": false,
          "internalType": "uint256",
          "name": "quorumPercentage",
          "type": "uint256"
        }
      ],
      "name": "VotingParametersUpdated",
      "type": "event"
    },
    {
      "inputs": [
        {
          "internalType": "address",
          "name": "voter",
          "type": "address"
        }
      ],
      "name": "calculateVotingWeight",
      "outputs": [
        {
          "internalType": "uint256",
          "name": "",
          "type": "uint256"
        }
      ],
      "stateMutability": "view",
      "type": "function"
    },
    {
      "inputs": [
        {
          "internalType": "uint256",
          "name": "_proposalId",
          "type": "uint256"
        }
      ],
      "name": "cancelProposal",
      "outputs": [],
      "stateMutability": "nonpayable",
      "type": "function"
    },
    {
      "inputs": [
        {
          "internalType": "uint256",
          "name": "_proposalId",
          "type": "uint256"
        },
        {
          "internalType": "bool",
          "name": "_support",
          "type": "bool"
        }
      ],
      "name": "castVote",
      "outputs": [],
      "stateMutability": "nonpayable",
      "type": "function"
    },
    {
      "inputs": [
        {
          "internalType": "uint256",
          "name": "_proposalId",
          "type": "uint256"
        }
      ],
      "name": "finalizeProposal",
      "outputs": [],
      "stateMutability": "nonpayable",
      "type": "function"
    },
    {
      "inputs": [
        {
          "internalType": "uint256",
          "name": "_proposalId",
          "type": "uint256"
        }
      ],
      "name": "getProposalDetails",
      "outputs": [
        {
          "internalType": "uint256",
          "name": "id",
          "type": "uint256"
        },
        {
          "internalType": "string",
          "name": "title",
          "type": "string"
        },
        {
          "internalType": "string",
          "name": "description",
          "type": "string"
        },
        {
          "internalType": "address",
          "name": "proposer",
          "type": "address"
        },
        {
          "internalType": "uint256",
          "name": "yesVotes",
          "type": "uint256"
        },
        {
          "internalType": "uint256",
          "name": "noVotes",
          "type": "uint256"
        },
        {
          "internalType": "uint256",
          "name": "totalVotingWeight",
          "type": "uint256"
        },
        {
          "internalType": "enum DAOVoting.ProposalState",
          "name": "state",
          "type": "uint8"
        },
        {
          "internalType": "uint256",
          "name": "createdAt",
          "type": "uint256"
        },
        {
          "internalType": "uint256",
          "name": "votingStart",
          "type": "uint256"
        },
        {
          "internalType": "uint256",
          "name": "votingEnd",
          "type": "uint256"
        }
      ],
      "stateMutability": "view",
      "type": "function"
    },
    {
      "inputs": [
        {
          "internalType": "uint256",
          "name": "_proposalId",
          "type": "uint256"
        },
        {
          "internalType": "address",
          "name": "_voter",
          "type": "address"
        }
      ],
      "name": "getVote",
      "outputs": [
        {
          "internalType": "bool",
          "name": "hasVotedOnProposal",
          "type": "bool"
        },
        {
          "internalType": "bool",
          "name": "support",
          "type": "bool"
        },
        {
          "internalType": "uint256",
          "name": "weight",
          "type": "uint256"
        },
        {
          "internalType": "uint256",
          "name": "timestamp",
          "type": "uint256"
        }
      ],
      "stateMutability": "view",
      "type": "function"
    },
    {
      "inputs": [
        {
          "internalType": "address",
          "name": "_voter",
          "type": "address"
        }
      ],
      "name": "getVotingPowerOf",
      "outputs": [
        {
          "internalType": "uint256",
          "name": "",
          "type": "uint256"
        }
      ],
      "stateMutability": "view",
      "type": "function"
    },
    {
      "inputs": [],
      "name": "governanceToken",
      "outputs": [
        {
          "internalType": "contract IGovernanceToken",
          "name": "",
          "type": "address"
        }
      ],
      "stateMutability": "view",
      "type": "function"
    },
    {
      "inputs": [
        {
          "internalType": "uint256",
          "name": "",
          "type": "uint256"
        },
        {
          "internalType": "address",
          "name": "",
          "type": "address"
        }
      ],
      "name": "hasVoted",
      "outputs": [
        {
          "internalType": "bool",
          "name": "",
          "type": "bool"
        }
      ],
      "stateMutability": "view",
      "type": "function"
    },
    {
      "inputs": [
        {
          "internalType": "address",
          "name": "voter",
          "type": "address"
        }
      ],
      "name": "isRegistered",
      "outputs": [
        {
          "internalType": "bool",
          "name": "",
          "type": "bool"
        }
      ],
      "stateMutability": "view",
      "type": "function"
    },
    {
      "inputs": [
        {
          "internalType": "address",
          "name": "_user",
          "type": "address"
        }
      ],
      "name": "isVoterRegistered",
      "outputs": [
        {
          "internalType": "bool",
          "name": "",
          "type": "bool"
        }
      ],
      "stateMutability": "view",
      "type": "function"
    },
    {
      "inputs": [],
      "name": "minTokensToRegister",
      "outputs": [
        {
          "internalType": "uint256",
          "name": "",
          "type": "uint256"
        }
      ],
      "stateMutability": "view",
      "type": "function"
    },
    {
      "inputs": [],
      "name": "owner",
      "outputs": [
        {
          "internalType": "address",
          "name": "",
          "type": "address"
        }
      ],
      "stateMutability": "view",
      "type": "function"
    },
    {
      "inputs": [],
      "name": "proposalCount",
      "outputs": [
        {
          "internalType": "uint256",
          "name": "",
          "type": "uint256"
        }
      ],
      "stateMutability": "view",
      "type": "function"
    },
    {
      "inputs": [],
      "name": "proposalThreshold",
      "outputs": [
        {
          "internalType": "uint256",
          "name": "",
          "type": "uint256"
        }
      ],
      "stateMutability": "view",
      "type": "function"
    },
    {
      "inputs": [
        {
          "internalType": "uint256",
          "name": "",
          "type": "uint256"
        }
      ],
      "name": "proposals",
      "outputs": [
        {
          "internalType": "uint256",
          "name": "id",
          "type": "uint256"
        },
        {
          "internalType": "string",
          "name": "title",
          "type": "string"
        },
        {
          "internalType": "string",
          "name": "description",
          "type": "string"
        },
        {
          "internalType": "address",
          "name": "proposer",
          "type": "address"
        },
        {
          "internalType": "uint256",
          "name": "yesVotes",
          "type": "uint256"
        },
        {
          "internalType": "uint256",
          "name": "noVotes",
          "type": "uint256"
        },
        {
          "internalType": "uint256",
          "name": "totalVotingWeight",
          "type": "uint256"
        },
        {
          "internalType": "enum DAOVoting.ProposalState",
          "name": "state",
          "type": "uint8"
        },
        {
          "internalType": "uint256",
          "name": "createdAt",
          "type": "uint256"
        },
        {
          "internalType": "uint256",
          "name": "votingStart",
          "type": "uint256"
        },
        {
          "internalType": "uint256",
          "name": "votingEnd",
          "type": "uint256"
        },
        {
          "internalType": "uint256",
          "name": "minTokensRequired",
          "type": "uint256"
        }
      ],
      "stateMutability": "view",
      "type": "function"
    },
    {
      "inputs": [],
      "name": "quorumPercentage",
      "outputs": [
        {
          "internalType": "uint256",
          "name": "",
          "type": "uint256"
        }
      ],
      "stateMutability": "view",
      "type": "function"
    },
    {
      "inputs": [
        {
          "internalType": "address",
          "name": "_voter",
          "type": "address"
        }
      ],
      "name": "registerVoter",
      "outputs": [],
      "stateMutability": "nonpayable",
      "type": "function"
    },
    {
      "inputs": [
        {
          "internalType": "address",
          "name": "",
          "type": "address"
        }
      ],
      "name": "registeredVoters",
      "outputs": [
        {
          "internalType": "bool",
          "name": "",
          "type": "bool"
        }
      ],
      "stateMutability": "view",
      "type": "function"
    },
    {
      "inputs": [],
      "name": "renounceOwnership",
      "outputs": [],
      "stateMutability": "nonpayable",
      "type": "function"
    },
    {
      "inputs": [],
      "name": "selfRegister",
      "outputs": [],
      "stateMutability": "nonpayable",
      "type": "function"
    },
    {
      "inputs": [
        {
          "internalType": "uint256",
          "name": "_minTokens",
          "type": "uint256"
        }
      ],
      "name": "setMinTokensToRegister",
      "outputs": [],
      "stateMutability": "nonpayable",
      "type": "function"
    },
    {
      "inputs": [
        {
          "internalType": "uint256",
          "name": "_proposalId",
          "type": "uint256"
        }
      ],
      "name": "startVoting",
      "outputs": [],
      "stateMutability": "nonpayable",
      "type": "function"
    },
    {
      "inputs": [
        {
          "internalType": "string",
          "name": "_title",
          "type": "string"
        },
        {
          "internalType": "string",
          "name": "_description",
          "type": "string"
        },
        {
          "internalType": "uint256",
          "name": "_minTokensRequired",
          "type": "uint256"
        }
      ],
      "name": "submitProposal",
      "outputs": [],
      "stateMutability": "nonpayable",
      "type": "function"
    },
    {
      "inputs": [
        {
          "internalType": "address",
          "name": "newOwner",
          "type": "address"
        }
      ],
      "name": "transferOwnership",
      "outputs": [],
      "stateMutability": "nonpayable",
      "type": "function"
    },
    {
      "inputs": [
        {
          "internalType": "uint256",
          "name": "_votingDelay",
          "type": "uint256"
        },
        {
          "internalType": "uint256",
          "name": "_votingPeriod",
          "type": "uint256"
        },
        {
          "internalType": "uint256",
          "name": "_proposalThreshold",
          "type": "uint256"
        },
        {
          "internalType": "uint256",
          "name": "_quorumPercentage",
          "type": "uint256"
        }
      ],
      "name": "updateVotingParameters",
      "outputs": [],
      "stateMutability": "nonpayable",
      "type": "function"
    },
    {
      "inputs": [],
      "name": "voterCount",
      "outputs": [
        {
          "internalType": "uint256",
          "name": "",
          "type": "uint256"
        }
      ],
      "stateMutability": "view",
      "type": "function"
    },
    {
      "inputs": [
        {
          "internalType": "uint256",
          "name": "",
          "type": "uint256"
        },
        {
          "internalType": "address",
          "name": "",
          "type": "address"
        }
      ],
      "name": "votes",
      "outputs": [
        {
          "internalType": "bool",
          "name": "support",
          "type": "bool"
        },
        {
          "internalType": "uint256",
          "name": "weight",
          "type": "uint256"
        },
        {
          "internalType": "uint256",
          "name": "timestamp",
          "type": "uint256"
        }
      ],
      "stateMutability": "view",
      "type": "function"
    },
    {
      "inputs": [],
      "name": "votingDelay",
      "outputs": [
        {
          "internalType": "uint256",
          "name": "",
          "type": "uint256"
        }
      ],
      "stateMutability": "view",
      "type": "function"
    },
    {
      "inputs": [],
      "name": "votingPeriod",
      "outputs": [
        {
          "internalType": "uint256",
          "name": "",
          "type": "uint256"
        }
      ],
      "stateMutability": "view",
      "type": "function"
    }
  ],
  "bytecode": "0x6080604052670de0b6b3a7640000600955610e10600a5562093a80600b55683635c9adc5dea00000600c556028600d5534801561003b57600080fd5b506040516123c23803806123c283398101604081905261005a91610180565b806001600160a01b03811661008a57604051631e4fbdf760e01b8152600060048201526024015b60405180910390fd5b61009381610114565b50600180556001600160a01b0382166100ee5760405162461bcd60e51b815260206004820181905260248201527f496e76616c696420676f7665726e616e636520746f6b656e20616464726573736044820152606401610081565b50600280546001600160a01b0319166001600160a01b03929092169190911790556101b3565b600080546001600160a01b038381166001600160a01b0319831681178455604051919092169283917f8be0079c531659141344cd1fd0a4f28419497f9722a3daafe3b4186f6b6457e09190a35050565b80516001600160a01b038116811461017b57600080fd5b919050565b6000806040838503121561019357600080fd5b61019c83610164565b91506101aa60208401610164565b90509250929050565b612200806101c26000396000f3fe608060405234801561001057600080fd5b50600436106101da5760003560e01c8063738d53bb11610104578063c3c5a547116100a2578063e0a8f6f511610071578063e0a8f6f514610489578063eb2119db146103f1578063f2fde38b1461049c578063f96dae0a146104af57600080fd5b8063c3c5a547146103f1578063d23254b41461041d578063d86a28bb14610478578063da35c6641461048057600080fd5b8063b58131b0116100de578063b58131b01461038d578063ba8554c714610396578063bac7c890146103a9578063bc3f931f146103bc57600080fd5b8063738d53bb146103325780638da5cb5b14610345578063a9ff6df11461036a57600080fd5b80633d2f5bda1161017c5780634fa76ec91161014b5780634fa76ec9146103055780635652077c1461030e5780636bde143f14610321578063715018a61461032a57600080fd5b80633d2f5bda1461029857806342169e48146102ab57806343859632146102b45780634595fbfc146102f257600080fd5b8063317571b2116101b8578063317571b21461023f57806338db6dd3146102525780633932abb1146102655780633b4d01a71461026e57600080fd5b8063013cf08b146101df57806302a251a31461021357806315373e3d1461022a575b600080fd5b6101f26101ed366004611b8f565b6104c2565b60405161020a9c9b9a99989796959493929190611c26565b60405180910390f35b61021c600b5481565b60405190815260200161020a565b61023d610238366004611cb0565b61063e565b005b61021c61024d366004611d01565b610a57565b61023d610260366004611d01565b610ad0565b61021c600a5481565b61028161027c366004611b8f565b610bfc565b60405161020a9b9a99989796959493929190611d1c565b61023d6102a6366004611b8f565b610e7a565b61021c60085481565b6102e26102c2366004611d9e565b600660209081526000928352604080842090915290825290205460ff1681565b604051901515815260200161020a565b61021c610300366004611d01565b610fb0565b61021c600d5481565b61023d61031c366004611b8f565b610fc1565b61021c60095481565b61023d61120f565b61023d610340366004611b8f565b611223565b6000546001600160a01b03165b6040516001600160a01b03909116815260200161020a565b6102e2610378366004611d01565b60036020526000908152604090205460ff1681565b61021c600c5481565b61023d6103a4366004611e6f565b611230565b61023d6103b7366004611ee2565b6115c0565b6103cf6103ca366004611d9e565b61172c565b604080519415158552921515602085015291830152606082015260800161020a565b6102e26103ff366004611d01565b6001600160a01b031660009081526003602052604090205460ff1690565b61045b61042b366004611d9e565b600560209081526000928352604080842090915290825290208054600182015460029092015460ff909116919083565b60408051931515845260208401929092529082015260600161020a565b61023d6117ca565b61021c60075481565b61023d610497366004611b8f565b611936565b61023d6104aa366004611d01565b611aaa565b600254610352906001600160a01b031681565b600460205260009081526040902080546001820180549192916104e490611f14565b80601f016020809104026020016040519081016040528092919081815260200182805461051090611f14565b801561055d5780601f106105325761010080835404028352916020019161055d565b820191906000526020600020905b81548152906001019060200180831161054057829003601f168201915b50505050509080600201805461057290611f14565b80601f016020809104026020016040519081016040528092919081815260200182805461059e90611f14565b80156105eb5780601f106105c0576101008083540402835291602001916105eb565b820191906000526020600020905b8154815290600101906020018083116105ce57829003601f168201915b50505060038401546004850154600586015460068701546007880154600889015460098a0154600a8b0154600b909b0154999a6001600160a01b0390971699959850939650919460ff909116939192918c565b3360009081526003602052604090205460ff166106765760405162461bcd60e51b815260040161066d90611f4e565b60405180910390fd5b8160008111801561068957506007548111155b6106a55760405162461bcd60e51b815260040161066d90611f9c565b6106ad611ae8565b60008381526004602052604090206001600782015460ff1660058111156106d6576106d6611bee565b146107195760405162461bcd60e51b815260206004820152601360248201527250726f706f73616c206e6f742061637469766560681b604482015260640161066d565b80600901544210156107665760405162461bcd60e51b8152602060048201526016602482015275159bdd1a5b99c81b9bdd081e595d081cdd185c9d195960521b604482015260640161066d565b80600a01544211156107ba5760405162461bcd60e51b815260206004820152601760248201527f566f74696e6720706572696f642068617320656e646564000000000000000000604482015260640161066d565b600084815260066020908152604080832033845290915290205460ff16156108245760405162461bcd60e51b815260206004820152601e60248201527f416c726561647920766f746564206f6e20746869732070726f706f73616c0000604482015260640161066d565b6002546040516370a0823160e01b81523360048201526000916001600160a01b0316906370a0823190602401602060405180830381865afa15801561086d573d6000803e3d6000fd5b505050506040513d601f19601f820116820180604052508101906108919190611fc9565b905081600b01548110156108e75760405162461bcd60e51b815260206004820152601b60248201527f496e73756666696369656e7420746f6b656e7320746f20766f74650000000000604482015260640161066d565b60006108f233610a57565b9050600081116109365760405162461bcd60e51b815260206004820152600f60248201526e2737903b37ba34b733903837bbb2b960891b604482015260640161066d565b600086815260066020908152604080832033808552908352818420805460ff19908116600190811790925583516060810185528b1580158252818701898152428388019081528f8a5260058952878a20968a52959097529490962095518654901515911617855592519284019290925590516002909201919091556109d457808360040160008282546109c99190611ff8565b909155506109ee9050565b808360050160008282546109e89190611ff8565b90915550505b80836006016000828254610a029190611ff8565b909155505060408051861515815260208101839052339188917fcbdf6214089cba887ecbf35a0b6a734589959c9763342c756bb2a80ca2bc9f6e910160405180910390a3505050610a5260018055565b505050565b6002546040516370a0823160e01b81526001600160a01b03838116600483015260009283929116906370a0823190602401602060405180830381865afa158015610aa5573d6000803e3d6000fd5b505050506040513d601f19601f82011682018060405250810190610ac99190611fc9565b9392505050565b610ad8611b12565b6001600160a01b038116610b265760405162461bcd60e51b8152602060048201526015602482015274496e76616c696420766f746572206164647265737360581b604482015260640161066d565b6001600160a01b03811660009081526003602052604090205460ff1615610b8f5760405162461bcd60e51b815260206004820152601860248201527f566f74657220616c726561647920726567697374657265640000000000000000604482015260640161066d565b6001600160a01b0381166000908152600360205260408120805460ff191660011790556008805491610bc08361200b565b90915550506040516001600160a01b038216907fb6be2187d059cc2a55fe29e0e503b566e1e0f8c8780096e185429350acffd3dd90600090a250565b60006060806000806000806000806000808b600081118015610c2057506007548111155b610c3c5760405162461bcd60e51b815260040161066d90611f9c565b6000600460008f81526020019081526020016000206040518061018001604052908160008201548152602001600182018054610c7790611f14565b80601f0160208091040260200160405190810160405280929190818152602001828054610ca390611f14565b8015610cf05780601f10610cc557610100808354040283529160200191610cf0565b820191906000526020600020905b815481529060010190602001808311610cd357829003601f168201915b50505050508152602001600282018054610d0990611f14565b80601f0160208091040260200160405190810160405280929190818152602001828054610d3590611f14565b8015610d825780601f10610d5757610100808354040283529160200191610d82565b820191906000526020600020905b815481529060010190602001808311610d6557829003601f168201915b505050918352505060038201546001600160a01b0316602082015260048201546040820152600580830154606083015260068301546080830152600783015460a09092019160ff1690811115610dda57610dda611bee565b6005811115610deb57610deb611bee565b81526020016008820154815260200160098201548152602001600a8201548152602001600b820154815250509050806000015181602001518260400151836060015184608001518560a001518660c001518760e001518861010001518961012001518a61014001519c509c509c509c509c509c509c509c509c509c509c50505091939597999b90929496989a50565b80600081118015610e8d57506007548111155b610ea95760405162461bcd60e51b815260040161066d90611f9c565b600082815260046020526040812090600782015460ff166005811115610ed157610ed1611bee565b14610f1e5760405162461bcd60e51b815260206004820152601d60248201527f50726f706f73616c206e6f7420696e2070656e64696e67207374617465000000604482015260640161066d565b8060090154421015610f725760405162461bcd60e51b815260206004820152601d60248201527f566f74696e6720706572696f64206e6f74207965742073746172746564000000604482015260640161066d565b60078101805460ff1916600190811790915560405184916000805160206121ab83398151915291610fa39190612024565b60405180910390a2505050565b6000610fbb82610a57565b92915050565b80600081118015610fd457506007548111155b610ff05760405162461bcd60e51b815260040161066d90611f9c565b60008281526004602052604090206001600782015460ff16600581111561101957611019611bee565b1461105c5760405162461bcd60e51b815260206004820152601360248201527250726f706f73616c206e6f742061637469766560681b604482015260640161066d565b80600a015442116110af5760405162461bcd60e51b815260206004820152601760248201527f566f74696e6720706572696f64206e6f7420656e646564000000000000000000604482015260640161066d565b600254604080516318160ddd60e01b815290516000926001600160a01b0316916318160ddd9160048083019260209291908290030181865afa1580156110f9573d6000803e3d6000fd5b505050506040513d601f19601f8201168201806040525081019061111d9190611fc9565b905060006064600d54836111319190612032565b61113b9190612049565b905080836006015410156111895760078301805460ff1916600390811790915560405186916000805160206121ab8339815191529161117a9190612024565b60405180910390a25050505050565b8260050154836004015411156111d75760078301805460ff1916600290811790915560405186916000805160206121ab833981519152916111ca9190612024565b60405180910390a2611208565b60078301805460ff1916600390811790915560405186916000805160206121ab8339815191529161117a9190612024565b5050505050565b611217611b12565b6112216000611b3f565b565b61122b611b12565b600955565b3360009081526003602052604090205460ff1661125f5760405162461bcd60e51b815260040161066d90611f4e565b611267611ae8565b60008351116112b05760405162461bcd60e51b81526020600482015260156024820152745469746c652063616e6e6f7420626520656d70747960581b604482015260640161066d565b60008251116113015760405162461bcd60e51b815260206004820152601b60248201527f4465736372697074696f6e2063616e6e6f7420626520656d7074790000000000604482015260640161066d565b600c546002546040516370a0823160e01b81523360048201526001600160a01b03909116906370a0823190602401602060405180830381865afa15801561134c573d6000803e3d6000fd5b505050506040513d601f19601f820116820180604052508101906113709190611fc9565b10156113cd5760405162461bcd60e51b815260206004820152602660248201527f496e73756666696369656e7420746f6b656e7320746f206372656174652070726044820152651bdc1bdcd85b60d21b606482015260840161066d565b600780549060006113dd8361200b565b91905055506000600a54426113f29190611ff8565b90506000600b54826114049190611ff8565b90506040518061018001604052806007548152602001868152602001858152602001336001600160a01b031681526020016000815260200160008152602001600081526020016000600581111561145d5761145d611bee565b8152602001428152602001838152602001828152602001848152506004600060075481526020019081526020016000206000820151816000015560208201518160010190816114ac91906120b2565b50604082015160028201906114c190826120b2565b5060608201518160030160006101000a8154816001600160a01b0302191690836001600160a01b031602179055506080820151816004015560a0820151816005015560c0820151816006015560e08201518160070160006101000a81548160ff0219169083600581111561153757611537611bee565b02179055506101008201518160080155610120820151816009015561014082015181600a015561016082015181600b0155905050336001600160a01b03166007547ffaa337366f7965edea73e5dda4e27a18008218bee177df73f82fc597a1f4dd08878786866040516115ad9493929190612171565b60405180910390a35050610a5260018055565b6115c8611b12565b62093a808411156116135760405162461bcd60e51b8152602060048201526015602482015274566f74696e672064656c617920746f6f206c6f6e6760581b604482015260640161066d565b620151808310158015611629575062278d008311155b61166d5760405162461bcd60e51b8152602060048201526015602482015274125b9d985b1a59081d9bdd1a5b99c81c195c9a5bd9605a1b604482015260640161066d565b60008111801561167e575060648111155b6116ca5760405162461bcd60e51b815260206004820152601960248201527f496e76616c69642071756f72756d2070657263656e7461676500000000000000604482015260640161066d565b600a849055600b839055600c829055600d8190556040805185815260208101859052908101839052606081018290527ff5e803816406a252dd16a6e9892dc156e15843340ab6e7cf84d3a5f4bbe11ff19060800160405180910390a150505050565b60008281526006602090815260408083206001600160a01b038516845290915281205460ff1690808083156117b45750505060008381526005602090815260408083206001600160a01b03861684528252918290208251606081018452815460ff161515808252600180840154948301859052600290930154919094018190529093506117c1565b5060009250829150819050805b92959194509250565b3360009081526003602052604090205460ff161561181f5760405162461bcd60e51b8152602060048201526012602482015271105b1c9958591e481c9959da5cdd195c995960721b604482015260640161066d565b6009546002546040516370a0823160e01b81523360048201526001600160a01b03909116906370a0823190602401602060405180830381865afa15801561186a573d6000803e3d6000fd5b505050506040513d601f19601f8201168201806040525081019061188e9190611fc9565b10156118dc5760405162461bcd60e51b815260206004820152601f60248201527f496e73756666696369656e7420746f6b656e7320746f20726567697374657200604482015260640161066d565b336000908152600360205260408120805460ff1916600117905560088054916119048361200b565b909155505060405133907fb6be2187d059cc2a55fe29e0e503b566e1e0f8c8780096e185429350acffd3dd90600090a2565b8060008111801561194957506007548111155b6119655760405162461bcd60e51b815260040161066d90611f9c565b600082815260046020526040902060038101546001600160a01b031633148061199857506000546001600160a01b031633145b6119ee5760405162461bcd60e51b815260206004820152602160248201527f4f6e6c792070726f706f736572206f72206f776e65722063616e2063616e63656044820152601b60fa1b606482015260840161066d565b6000600782015460ff166005811115611a0957611a09611bee565b1480611a2d57506001600782015460ff166005811115611a2b57611a2b611bee565b145b611a795760405162461bcd60e51b815260206004820181905260248201527f43616e6e6f742063616e63656c2066696e616c697a65642070726f706f73616c604482015260640161066d565b60078101805460ff1916600590811790915560405184916000805160206121ab83398151915291610fa39190612024565b611ab2611b12565b6001600160a01b038116611adc57604051631e4fbdf760e01b81526000600482015260240161066d565b611ae581611b3f565b50565b600260015403611b0b57604051633ee5aeb560e01b815260040160405180910390fd5b6002600155565b6000546001600160a01b031633146112215760405163118cdaa760e01b815233600482015260240161066d565b600080546001600160a01b038381166001600160a01b0319831681178455604051919092169283917f8be0079c531659141344cd1fd0a4f28419497f9722a3daafe3b4186f6b6457e09190a35050565b600060208284031215611ba157600080fd5b5035919050565b6000815180845260005b81811015611bce57602081850181015186830182015201611bb2565b506000602082860101526020601f19601f83011685010191505092915050565b634e487b7160e01b600052602160045260246000fd5b60068110611c2257634e487b7160e01b600052602160045260246000fd5b9052565b8c815261018060208201526000611c4161018083018e611ba8565b8281036040840152611c53818e611ba8565b91505060018060a01b038b1660608301528960808301528860a08301528760c0830152611c8360e0830188611c04565b856101008301528461012083015283610140830152826101608301529d9c50505050505050505050505050565b60008060408385031215611cc357600080fd5b8235915060208301358015158114611cda57600080fd5b809150509250929050565b80356001600160a01b0381168114611cfc57600080fd5b919050565b600060208284031215611d1357600080fd5b610ac982611ce5565b8b815261016060208201526000611d3761016083018d611ba8565b8281036040840152611d49818d611ba8565b91505060018060a01b038a1660608301528860808301528760a08301528660c0830152611d7960e0830187611c04565b8461010083015283610120830152826101408301529c9b505050505050505050505050565b60008060408385031215611db157600080fd5b82359150611dc160208401611ce5565b90509250929050565b634e487b7160e01b600052604160045260246000fd5b600082601f830112611df157600080fd5b813567ffffffffffffffff811115611e0b57611e0b611dca565b604051601f8201601f19908116603f0116810167ffffffffffffffff81118282101715611e3a57611e3a611dca565b604052818152838201602001851015611e5257600080fd5b816020850160208301376000918101602001919091529392505050565b600080600060608486031215611e8457600080fd5b833567ffffffffffffffff811115611e9b57600080fd5b611ea786828701611de0565b935050602084013567ffffffffffffffff811115611ec457600080fd5b611ed086828701611de0565b93969395505050506040919091013590565b60008060008060808587031215611ef857600080fd5b5050823594602084013594506040840135936060013592509050565b600181811c90821680611f2857607f821691505b602082108103611f4857634e487b7160e01b600052602260045260246000fd5b50919050565b6020808252602e908201527f4f6e6c79207265676973746572656420766f746572732063616e20706572666f60408201526d3936903a3434b99030b1ba34b7b760911b606082015260800190565b602080825260139082015272125b9d985b1a59081c1c9bdc1bdcd85b081251606a1b604082015260600190565b600060208284031215611fdb57600080fd5b5051919050565b634e487b7160e01b600052601160045260246000fd5b80820180821115610fbb57610fbb611fe2565b60006001820161201d5761201d611fe2565b5060010190565b60208101610fbb8284611c04565b8082028115828204841417610fbb57610fbb611fe2565b60008261206657634e487b7160e01b600052601260045260246000fd5b500490565b601f821115610a5257806000526020600020601f840160051c810160208510156120925750805b601f840160051c820191505b81811015611208576000815560010161209e565b815167ffffffffffffffff8111156120cc576120cc611dca565b6120e0816120da8454611f14565b8461206b565b6020601f82116001811461211457600083156120fc5750848201515b600019600385901b1c1916600184901b178455611208565b600084815260208120601f198516915b828110156121445787850151825560209485019460019092019101612124565b50848210156121625786840151600019600387901b60f8161c191681555b50505050600190811b01905550565b6080815260006121846080830187611ba8565b82810360208401526121968187611ba8565b60408401959095525050606001529291505056fed6b3a81dd8b7dc419d8d0f20797397ea2eaba914386b89898aa638438803a1eca2646970667358221220d9f9a9a71c4bf6250d4d2b3e1c86976564ca64f2408cd99937338a27e9f1bb7764736f6c634300081c0033",
  "linkReferences": {},
  "deployedLinkReferences": {}
}