{
  "_format": "hh-sol-artifact-1",
  "contractName": "DIDRegistry",
  "sourceName": "contracts/core/DIDRegistry.sol",
  "abi": [
    {
      "inputs": [
        {
          "internalType": "address",
          "name": "initialOwner",
          "type": "address"
        }
      ],
      "stateMutability": "nonpayable",
      "type": "constructor"
    },
    {
      "inputs": [],
      "name": "ECDSAInvalidSignature",
      "type": "error"
    },
    {
      "inputs": [
        {
          "internalType": "uint256",
          "name": "length",
          "type": "uint256"
        }
      ],
      "name": "ECDSAInvalidSignatureLength",
      "type": "error"
    },
    {
      "inputs": [
        {
          "internalType": "bytes32",
          "name": "s",
          "type": "bytes32"
        }
      ],
      "name": "ECDSAInvalidSignatureS",
      "type": "error"
    },
    {
      "inputs": [
        {
          "internalType": "address",
          "name": "owner",
          "type": "address"
        }
      ],
      "name": "OwnableInvalidOwner",
      "type": "error"
    },
    {
      "inputs": [
        {
          "internalType": "address",
          "name": "account",
          "type": "address"
        }
      ],
      "name": "OwnableUnauthorizedAccount",
      "type": "error"
    },
    {
      "anonymous": false,
      "inputs": [
        {
          "indexed": true,
          "internalType": "address",
          "name": "subject",
          "type": "address"
        },
        {
          "indexed": true,
          "internalType": "bytes32",
          "name": "credentialHash",
          "type": "bytes32"
        },
        {
          "indexed": false,
          "internalType": "address",
          "name": "issuer",
          "type": "address"
        }
      ],
      "name": "CredentialIssued",
      "type": "event"
    },
    {
      "anonymous": false,
      "inputs": [
        {
          "indexed": true,
          "internalType": "bytes32",
          "name": "credentialHash",
          "type": "bytes32"
        }
      ],
      "name": "CredentialRevoked",
      "type": "event"
    },
    {
      "anonymous": false,
      "inputs": [
        {
          "indexed": true,
          "internalType": "address",
          "name": "controller",
          "type": "address"
        },
        {
          "indexed": false,
          "internalType": "string",
          "name": "did",
          "type": "string"
        },
        {
          "indexed": false,
          "internalType": "uint256",
          "name": "timestamp",
          "type": "uint256"
        }
      ],
      "name": "DIDCreated",
      "type": "event"
    },
    {
      "anonymous": false,
      "inputs": [
        {
          "indexed": true,
          "internalType": "address",
          "name": "controller",
          "type": "address"
        },
        {
          "indexed": false,
          "internalType": "string",
          "name": "did",
          "type": "string"
        }
      ],
      "name": "DIDRevoked",
      "type": "event"
    },
    {
      "anonymous": false,
      "inputs": [
        {
          "indexed": true,
          "internalType": "address",
          "name": "controller",
          "type": "address"
        },
        {
          "indexed": false,
          "internalType": "string",
          "name": "did",
          "type": "string"
        }
      ],
      "name": "DIDUpdated",
      "type": "event"
    },
    {
      "anonymous": false,
      "inputs": [
        {
          "indexed": true,
          "internalType": "address",
          "name": "issuer",
          "type": "address"
        }
      ],
      "name": "IssuerAuthorized",
      "type": "event"
    },
    {
      "anonymous": false,
      "inputs": [
        {
          "indexed": true,
          "internalType": "address",
          "name": "issuer",
          "type": "address"
        }
      ],
      "name": "IssuerRevoked",
      "type": "event"
    },
    {
      "anonymous": false,
      "inputs": [
        {
          "indexed": true,
          "internalType": "address",
          "name": "previousOwner",
          "type": "address"
        },
        {
          "indexed": true,
          "internalType": "address",
          "name": "newOwner",
          "type": "address"
        }
      ],
      "name": "OwnershipTransferred",
      "type": "event"
    },
    {
      "anonymous": false,
      "inputs": [
        {
          "indexed": true,
          "internalType": "address",
          "name": "newIssuer",
          "type": "address"
        }
      ],
      "name": "TrustedIssuerUpdated",
      "type": "event"
    },
    {
      "anonymous": false,
      "inputs": [
        {
          "indexed": true,
          "internalType": "address",
          "name": "controller",
          "type": "address"
        },
        {
          "indexed": false,
          "internalType": "bytes32",
          "name": "commitment",
          "type": "bytes32"
        }
      ],
      "name": "VotingRegistrationSuccess",
      "type": "event"
    },
    {
      "inputs": [
        {
          "internalType": "address",
          "name": "issuer",
          "type": "address"
        }
      ],
      "name": "authorizeIssuer",
      "outputs": [],
      "stateMutability": "nonpayable",
      "type": "function"
    },
    {
      "inputs": [
        {
          "internalType": "address",
          "name": "",
          "type": "address"
        }
      ],
      "name": "authorizedIssuers",
      "outputs": [
        {
          "internalType": "bool",
          "name": "",
          "type": "bool"
        }
      ],
      "stateMutability": "view",
      "type": "function"
    },
    {
      "inputs": [
        {
          "internalType": "address",
          "name": "controller",
          "type": "address"
        }
      ],
      "name": "createDID",
      "outputs": [],
      "stateMutability": "nonpayable",
      "type": "function"
    },
    {
      "inputs": [
        {
          "internalType": "bytes32",
          "name": "",
          "type": "bytes32"
        }
      ],
      "name": "credentials",
      "outputs": [
        {
          "internalType": "string",
          "name": "credentialType",
          "type": "string"
        },
        {
          "internalType": "bytes32",
          "name": "credentialHash",
          "type": "bytes32"
        },
        {
          "internalType": "address",
          "name": "issuer",
          "type": "address"
        },
        {
          "internalType": "uint256",
          "name": "issuedAt",
          "type": "uint256"
        },
        {
          "internalType": "uint256",
          "name": "expiresAt",
          "type": "uint256"
        }
      ],
      "stateMutability": "view",
      "type": "function"
    },
    {
      "inputs": [
        {
          "internalType": "address",
          "name": "",
          "type": "address"
        }
      ],
      "name": "didDocuments",
      "outputs": [
        {
          "internalType": "string",
          "name": "did",
          "type": "string"
        },
        {
          "internalType": "address",
          "name": "controller",
          "type": "address"
        },
        {
          "internalType": "bytes32",
          "name": "credentialHash",
          "type": "bytes32"
        },
        {
          "internalType": "uint256",
          "name": "issuedAt",
          "type": "uint256"
        },
        {
          "internalType": "uint256",
          "name": "expiresAt",
          "type": "uint256"
        },
        {
          "internalType": "bool",
          "name": "isActive",
          "type": "bool"
        },
        {
          "internalType": "bool",
          "name": "isVerified",
          "type": "bool"
        }
      ],
      "stateMutability": "view",
      "type": "function"
    },
    {
      "inputs": [
        {
          "internalType": "address",
          "name": "controller",
          "type": "address"
        }
      ],
      "name": "getDIDDocument",
      "outputs": [
        {
          "components": [
            {
              "internalType": "string",
              "name": "did",
              "type": "string"
            },
            {
              "internalType": "address",
              "name": "controller",
              "type": "address"
            },
            {
              "internalType": "bytes32",
              "name": "credentialHash",
              "type": "bytes32"
            },
            {
              "internalType": "uint256",
              "name": "issuedAt",
              "type": "uint256"
            },
            {
              "internalType": "uint256",
              "name": "expiresAt",
              "type": "uint256"
            },
            {
              "internalType": "bool",
              "name": "isActive",
              "type": "bool"
            },
            {
              "internalType": "bool",
              "name": "isVerified",
              "type": "bool"
            }
          ],
          "internalType": "struct DIDRegistry.DIDDocument",
          "name": "",
          "type": "tuple"
        }
      ],
      "stateMutability": "view",
      "type": "function"
    },
    {
      "inputs": [
        {
          "internalType": "address",
          "name": "controller",
          "type": "address"
        }
      ],
      "name": "hasDID",
      "outputs": [
        {
          "internalType": "bool",
          "name": "",
          "type": "bool"
        }
      ],
      "stateMutability": "view",
      "type": "function"
    },
    {
      "inputs": [
        {
          "internalType": "address",
          "name": "",
          "type": "address"
        }
      ],
      "name": "hasRegisteredForVoting",
      "outputs": [
        {
          "internalType": "bool",
          "name": "",
          "type": "bool"
        }
      ],
      "stateMutability": "view",
      "type": "function"
    },
    {
      "inputs": [
        {
          "internalType": "address",
          "name": "subject",
          "type": "address"
        },
        {
          "internalType": "string",
          "name": "credentialType",
          "type": "string"
        },
        {
          "internalType": "bytes32",
          "name": "credentialHash",
          "type": "bytes32"
        },
        {
          "internalType": "uint256",
          "name": "validityPeriod",
          "type": "uint256"
        }
      ],
      "name": "issueCredential",
      "outputs": [],
      "stateMutability": "nonpayable",
      "type": "function"
    },
    {
      "inputs": [],
      "name": "owner",
      "outputs": [
        {
          "internalType": "address",
          "name": "",
          "type": "address"
        }
      ],
      "stateMutability": "view",
      "type": "function"
    },
    {
      "inputs": [],
      "name": "privateVoting",
      "outputs": [
        {
          "internalType": "contract IPrivateDAOVoting",
          "name": "",
          "type": "address"
        }
      ],
      "stateMutability": "view",
      "type": "function"
    },
    {
      "inputs": [
        {
          "internalType": "bytes32",
          "name": "commitment",
          "type": "bytes32"
        },
        {
          "internalType": "bytes",
          "name": "signature",
          "type": "bytes"
        }
      ],
      "name": "registerVoterForDAO",
      "outputs": [],
      "stateMutability": "nonpayable",
      "type": "function"
    },
    {
      "inputs": [],
      "name": "renounceOwnership",
      "outputs": [],
      "stateMutability": "nonpayable",
      "type": "function"
    },
    {
      "inputs": [
        {
          "internalType": "bytes32",
          "name": "credentialHash",
          "type": "bytes32"
        }
      ],
      "name": "revokeCredential",
      "outputs": [],
      "stateMutability": "nonpayable",
      "type": "function"
    },
    {
      "inputs": [
        {
          "internalType": "address",
          "name": "controller",
          "type": "address"
        }
      ],
      "name": "revokeDID",
      "outputs": [],
      "stateMutability": "nonpayable",
      "type": "function"
    },
    {
      "inputs": [
        {
          "internalType": "address",
          "name": "issuer",
          "type": "address"
        }
      ],
      "name": "revokeIssuer",
      "outputs": [],
      "stateMutability": "nonpayable",
      "type": "function"
    },
    {
      "inputs": [
        {
          "internalType": "address",
          "name": "_privateVoting",
          "type": "address"
        }
      ],
      "name": "setPrivateVotingContract",
      "outputs": [],
      "stateMutability": "nonpayable",
      "type": "function"
    },
    {
      "inputs": [
        {
          "internalType": "address",
          "name": "_issuer",
          "type": "address"
        }
      ],
      "name": "setTrustedIssuer",
      "outputs": [],
      "stateMutability": "nonpayable",
      "type": "function"
    },
    {
      "inputs": [
        {
          "internalType": "address",
          "name": "newOwner",
          "type": "address"
        }
      ],
      "name": "transferOwnership",
      "outputs": [],
      "stateMutability": "nonpayable",
      "type": "function"
    },
    {
      "inputs": [],
      "name": "trustedIssuer",
      "outputs": [
        {
          "internalType": "address",
          "name": "",
          "type": "address"
        }
      ],
      "stateMutability": "view",
      "type": "function"
    },
    {
      "inputs": [
        {
          "internalType": "address",
          "name": "controller",
          "type": "address"
        }
      ],
      "name": "verifyVotingEligibility",
      "outputs": [
        {
          "internalType": "bool",
          "name": "isValid",
          "type": "bool"
        }
      ],
      "stateMutability": "view",
      "type": "function"
    }
  ],
  "bytecode": "0x608060405234801561001057600080fd5b5060405161224d38038061224d83398101604081905261002f916100dd565b806001600160a01b03811661005e57604051631e4fbdf760e01b81526000600482015260240160405180910390fd5b6100678161008d565b50600280546001600160a01b0319166001600160a01b039290921691909117905561010d565b600080546001600160a01b038381166001600160a01b0319831681178455604051919092169283917f8be0079c531659141344cd1fd0a4f28419497f9722a3daafe3b4186f6b6457e09190a35050565b6000602082840312156100ef57600080fd5b81516001600160a01b038116811461010657600080fd5b9392505050565b6121318061011c6000396000f3fe608060405234801561001057600080fd5b50600436106101365760003560e01c80639023c07b116100b8578063d86bba801161007c578063d86bba80146102c4578063de1b226d146102ea578063e036a279146102fd578063f2fde38b14610310578063f731fa0f14610323578063fc616c621461034657600080fd5b80639023c07b146102495780639616b4201461025c578063b4345c9b1461026f578063ca6eec7814610282578063d0f4b30a1461029557600080fd5b80635b8a59e3116100ff5780635b8a59e3146101d257806362f413cf146101f257806365d9592914610205578063715018a6146102305780638da5cb5b1461023857600080fd5b80626296791461013b57806327c057fc14610150578063299d034814610188578063436693d5146101ac578063446bda11146101bf575b600080fd5b61014e610149366004611b3f565b610359565b005b61017361015e366004611b3f565b60036020526000908152604090205460ff1681565b60405190151581526020015b60405180910390f35b61019b610196366004611b61565b610408565b60405161017f959493929190611bca565b61014e6101ba366004611b3f565b6104c9565b61014e6101cd366004611b3f565b6105c2565b6101e56101e0366004611b3f565b61065c565b60405161017f9190611c0a565b61014e610200366004611b3f565b6107a0565b600254610218906001600160a01b031681565b6040516001600160a01b03909116815260200161017f565b61014e6109cd565b6000546001600160a01b0316610218565b61014e610257366004611c91565b6109e1565b61017361026a366004611b3f565b610c12565b600154610218906001600160a01b031681565b61014e610290366004611b61565b610e73565b6101736102a3366004611b3f565b6001600160a01b031660009081526004602052604090206005015460ff1690565b6102d76102d2366004611b3f565b610f7b565b60405161017f9796959493929190611d6b565b61014e6102f8366004611dbc565b61104e565b61014e61030b366004611b3f565b6114c4565b61014e61031e366004611b3f565b6115c2565b610173610331366004611b3f565b60066020526000908152604090205460ff1681565b61014e610354366004611b3f565b611600565b610361611672565b6001600160a01b03811660009081526006602052604090205460ff166103bf5760405162461bcd60e51b815260206004820152600e60248201526d139bdd08185d5d1a1bdc9a5e995960921b60448201526064015b60405180910390fd5b6001600160a01b038116600081815260066020526040808220805460ff19169055517f95a4c2ae425bb769549aa1a911911ff57c17ae811ae8c8962d0b9746fcb153979190a250565b60056020526000908152604090208054819061042390611e3a565b80601f016020809104026020016040519081016040528092919081815260200182805461044f90611e3a565b801561049c5780601f106104715761010080835404028352916020019161049c565b820191906000526020600020905b81548152906001019060200180831161047f57829003601f168201915b50505050600183015460028401546003850154600490950154939491936001600160a01b03909116925085565b6104d1611672565b6001600160a01b0381166105185760405162461bcd60e51b815260206004820152600e60248201526d24b73b30b634b21034b9b9bab2b960911b60448201526064016103b6565b6001600160a01b03811660009081526006602052604090205460ff16156105765760405162461bcd60e51b8152602060048201526012602482015271105b1c9958591e48185d5d1a1bdc9a5e995960721b60448201526064016103b6565b6001600160a01b038116600081815260066020526040808220805460ff19166001179055517f8b4006ca14f23d4e7aa8d120d1ab7c3761d650eefac1a5d6732dbea94b54ea249190a250565b6105ca611672565b6001600160a01b0381166106125760405162461bcd60e51b815260206004820152600f60248201526e496e76616c6964206164647265737360881b60448201526064016103b6565b600280546001600160a01b0319166001600160a01b0383169081179091556040517f492f3d221ffb7192548dfbbde433b0d1127e7b6f49961064afe65af0bc379a6890600090a250565b6040805160e081018252606080825260006020830181905292820183905281018290526080810182905260a0810182905260c08101919091526001600160a01b03821660009081526004602052604090819020815160e081019092528054829082906106c790611e3a565b80601f01602080910402602001604051908101604052809291908181526020018280546106f390611e3a565b80156107405780601f1061071557610100808354040283529160200191610740565b820191906000526020600020905b81548152906001019060200180831161072357829003601f168201915b505050918352505060018201546001600160a01b0316602082015260028201546040820152600382015460608201526004820154608082015260059091015460ff808216151560a084015261010090910416151560c09091015292915050565b3360009081526006602052604090205460ff16806107c857506000546001600160a01b031633145b6107e45760405162461bcd60e51b81526004016103b690611e74565b6001600160a01b03811661082f5760405162461bcd60e51b815260206004820152601260248201527124b73b30b634b21031b7b73a3937b63632b960711b60448201526064016103b6565b6001600160a01b03811660009081526004602052604090206005015460ff16156108905760405162461bcd60e51b815260206004820152601260248201527144494420616c72656164792065786973747360701b60448201526064016103b6565b600061089b8261169f565b6040516020016108ab9190611ea3565b60408051601f1981840301815260e0830182528083526001600160a01b0385166020848101829052600085850181905242606087015260808601819052600160a087015260c08601819052918252600490529190912082519193509081906109139082611f22565b5060208201516001820180546001600160a01b039283166001600160a01b03199091161790556040808401516002840155606084015160038401556080840151600484015560a08401516005909301805460c09095015115156101000261ff00199415159490941661ffff19909516949094179290921790925551908316907f05df43fb03bcbacb9a4122938d2024b390ebfc39ce205b84fa2a9cecda077c60906109c19084904290611fe1565b60405180910390a25050565b6109d5611672565b6109df6000611880565b565b3360009081526006602052604090205460ff1680610a0957506000546001600160a01b031633145b610a255760405162461bcd60e51b81526004016103b690611e74565b6001600160a01b038416610a6d5760405162461bcd60e51b815260206004820152600f60248201526e125b9d985b1a59081cdd589a9958dd608a1b60448201526064016103b6565b81610aba5760405162461bcd60e51b815260206004820152601760248201527f496e76616c69642063726564656e7469616c206861736800000000000000000060448201526064016103b6565b6001600160a01b03841660009081526004602052604090206005015460ff16610b165760405162461bcd60e51b815260206004820152600e60248201526d444944206e6f742061637469766560901b60448201526064016103b6565b6000610b228242612019565b6040805160a08101825286815260208082018790523382840152426060830152608082018490526000878152600590915291909120815192935090918190610b6a9082611f22565b506020828101516001830155604080840151600280850180546001600160a01b0319166001600160a01b039384161790556060860151600386015560809095015160049485015589166000818152938352928190209384018790556005909301805461010061ff0019909116179055915133815285927f4363709704d3f6b8d0a65f1f3e02c640ae24b87d9115262e46ae7f3a21d471db910160405180910390a35050505050565b6001600160a01b038116600090815260046020526040808220815160e0810190925280548392919082908290610c4790611e3a565b80601f0160208091040260200160405190810160405280929190818152602001828054610c7390611e3a565b8015610cc05780601f10610c9557610100808354040283529160200191610cc0565b820191906000526020600020905b815481529060010190602001808311610ca357829003601f168201915b505050918352505060018201546001600160a01b0316602082015260028201546040820152600382015460608201526004820154608082015260059091015460ff808216151560a08085019190915261010090920416151560c0909201919091528101519091501580610d3557508060c00151155b15610d435750600092915050565b600060056000836040015181526020019081526020016000206040518060a0016040529081600082018054610d7790611e3a565b80601f0160208091040260200160405190810160405280929190818152602001828054610da390611e3a565b8015610df05780601f10610dc557610100808354040283529160200191610df0565b820191906000526020600020905b815481529060010190602001808311610dd357829003601f168201915b5050509183525050600182015460208083019190915260028301546001600160a01b0316604083015260038301546060830152600490920154608090910152810151909150610e43575060009392505050565b60008160800151118015610e5a5750806080015142115b15610e69575060009392505050565b5060019392505050565b3360009081526006602052604090205460ff1680610e9b57506000546001600160a01b031633145b610eb75760405162461bcd60e51b81526004016103b690611e74565b600081815260056020526040902060010154610f0c5760405162461bcd60e51b815260206004820152601460248201527310dc9959195b9d1a585b081b9bdd08199bdd5b9960621b60448201526064016103b6565b600081815260056020526040812090610f258282611ad5565b506000600182018190556002820180546001600160a01b031916905560038201819055600490910181905560405182917f3cc2375f3fc7711ba27361cde93880f578742f9f050acee766bed662d117ba7291a250565b600460205260009081526040902080548190610f9690611e3a565b80601f0160208091040260200160405190810160405280929190818152602001828054610fc290611e3a565b801561100f5780601f10610fe45761010080835404028352916020019161100f565b820191906000526020600020905b815481529060010190602001808311610ff257829003601f168201915b505050600184015460028501546003860154600487015460059097015495966001600160a01b0390931695919450925060ff8082169161010090041687565b60405133606081901b6bffffffffffffffffffffffff191660208301529060009060340160405160208183030381529060405280519060200120905060006110c3827f19457468657265756d205369676e6564204d6573736167653a0a3332000000006000908152601c91909152603c902090565b905060006111078287878080601f0160208091040260200160405190810160405280939291908181526020018383808284376000920191909152506118d092505050565b6002549091506001600160a01b038083169116146111805760405162461bcd60e51b815260206004820152603060248201527f496e76616c69642043726564656e7469616c3a204e6f74207369676e6564206260448201526f3c902a393ab9ba32b21024b9b9bab2b960811b60648201526084016103b6565b6001600160a01b0381166111ca5760405162461bcd60e51b8152602060048201526011602482015270496e76616c6964207369676e617475726560781b60448201526064016103b6565b6001600160a01b03841660009081526003602052604090205460ff16156112475760405162461bcd60e51b815260206004820152602b60248201527f537962696c2041747461636b3a20416c7265616479207265676973746572656460448201526a20666f7220766f74696e6760a81b60648201526084016103b6565b6001600160a01b03841660009081526004602052604090206005015460ff166113a55760006112758561169f565b6040516020016112859190611ea3565b60408051601f1981840301815260e0830182528083526001600160a01b0388166020848101829052600085850181905242606087015260808601819052600160a0870181905260c0870152918252600490529190912082519193509081906112ed9082611f22565b5060208201516001820180546001600160a01b039283166001600160a01b03199091161790556040808401516002840155606084015160038401556080840151600484015560a08401516005909301805460c09095015115156101000261ff00199415159490941661ffff19909516949094179290921790925551908616907f05df43fb03bcbacb9a4122938d2024b390ebfc39ce205b84fa2a9cecda077c609061139b9084904290611fe1565b60405180910390a2505b6001600160a01b038085166000908152600360205260409020805460ff19166001908117909155541661141a5760405162461bcd60e51b815260206004820152601f60248201527f5072697661746520766f74696e6720636f6e7472616374206e6f74207365740060448201526064016103b6565b60015460405163793c5d2160e01b8152600481018990526001600160a01b039091169063793c5d2190602401600060405180830381600087803b15801561146057600080fd5b505af1158015611474573d6000803e3d6000fd5b50505050836001600160a01b03167f8b782fa3e1e18b39babba67bfa58e530638180312d51f0ceeb13c9735101a108886040516114b391815260200190565b60405180910390a250505050505050565b3360009081526006602052604090205460ff16806114ec57506000546001600160a01b031633145b6115085760405162461bcd60e51b81526004016103b690611e74565b6001600160a01b03811660009081526004602052604090206005015460ff166115645760405162461bcd60e51b815260206004820152600e60248201526d444944206e6f742061637469766560901b60448201526064016103b6565b6001600160a01b0381166000818152600460205260409081902060058101805460ff1916905590517fb6f55d928aa799fb2b908f97ab973710c0659f02e25f0a63fc68cbb517603e33916115b79161202c565b60405180910390a250565b6115ca611672565b6001600160a01b0381166115f457604051631e4fbdf760e01b8152600060048201526024016103b6565b6115fd81611880565b50565b611608611672565b6001600160a01b0381166116505760405162461bcd60e51b815260206004820152600f60248201526e496e76616c6964206164647265737360881b60448201526064016103b6565b600180546001600160a01b0319166001600160a01b0392909216919091179055565b6000546001600160a01b031633146109df5760405163118cdaa760e01b81523360048201526024016103b6565b604080518082018252601081526f181899199a1a9b1b9c1cb0b131b232b360811b60208201528151602a80825260608281019094526001600160a01b0385169291600091602082018180368337019050509050600360fc1b8160008151811061170a5761170a6120b8565b60200101906001600160f81b031916908160001a905350600f60fb1b81600181518110611739576117396120b8565b60200101906001600160f81b031916908160001a90535060005b6014811015611877578260048561176b84600c612019565b6020811061177b5761177b6120b8565b1a60f81b6001600160f81b031916901c60f81c60ff16815181106117a1576117a16120b8565b01602001516001600160f81b031916826117bc8360026120ce565b6117c7906002612019565b815181106117d7576117d76120b8565b60200101906001600160f81b031916908160001a90535082846117fb83600c612019565b6020811061180b5761180b6120b8565b825191901a600f16908110611822576118226120b8565b01602001516001600160f81b0319168261183d8360026120ce565b611848906003612019565b81518110611858576118586120b8565b60200101906001600160f81b031916908160001a905350600101611753565b50949350505050565b600080546001600160a01b038381166001600160a01b0319831681178455604051919092169283917f8be0079c531659141344cd1fd0a4f28419497f9722a3daafe3b4186f6b6457e09190a35050565b6000806000806118e086866118fc565b9250925092506118f08282611949565b50909150505b92915050565b600080600083516041036119365760208401516040850151606086015160001a61192888828585611a06565b955095509550505050611942565b50508151600091506002905b9250925092565b600082600381111561195d5761195d6120e5565b03611966575050565b600182600381111561197a5761197a6120e5565b036119985760405163f645eedf60e01b815260040160405180910390fd5b60028260038111156119ac576119ac6120e5565b036119cd5760405163fce698f760e01b8152600481018290526024016103b6565b60038260038111156119e1576119e16120e5565b03611a02576040516335e2f38360e21b8152600481018290526024016103b6565b5050565b600080807f7fffffffffffffffffffffffffffffff5d576e7357a4501ddfe92f46681b20a0841115611a415750600091506003905082611acb565b604080516000808252602082018084528a905260ff891692820192909252606081018790526080810186905260019060a0016020604051602081039080840390855afa158015611a95573d6000803e3d6000fd5b5050604051601f1901519150506001600160a01b038116611ac157506000925060019150829050611acb565b9250600091508190505b9450945094915050565b508054611ae190611e3a565b6000825580601f10611af1575050565b601f0160209004906000526020600020908101906115fd91905b80821115611b1f5760008155600101611b0b565b5090565b80356001600160a01b0381168114611b3a57600080fd5b919050565b600060208284031215611b5157600080fd5b611b5a82611b23565b9392505050565b600060208284031215611b7357600080fd5b5035919050565b60005b83811015611b95578181015183820152602001611b7d565b50506000910152565b60008151808452611bb6816020860160208601611b7a565b601f01601f19169290920160200192915050565b60a081526000611bdd60a0830188611b9e565b6020830196909652506001600160a01b039390931660408401526060830191909152608090910152919050565b602081526000825160e06020840152611c27610100840182611b9e565b905060018060a01b0360208501511660408401526040840151606084015260608401516080840152608084015160a084015260a0840151151560c084015260c0840151151560e08401528091505092915050565b634e487b7160e01b600052604160045260246000fd5b60008060008060808587031215611ca757600080fd5b611cb085611b23565b9350602085013567ffffffffffffffff811115611ccc57600080fd5b8501601f81018713611cdd57600080fd5b803567ffffffffffffffff811115611cf757611cf7611c7b565b604051601f8201601f19908116603f0116810167ffffffffffffffff81118282101715611d2657611d26611c7b565b604052818152828201602001891015611d3e57600080fd5b81602084016020830137600091810160200191909152949794965050505060408301359260600135919050565b60e081526000611d7e60e083018a611b9e565b6001600160a01b0398909816602083015250604081019590955260608501939093526080840191909152151560a0830152151560c090910152919050565b600080600060408486031215611dd157600080fd5b83359250602084013567ffffffffffffffff811115611def57600080fd5b8401601f81018613611e0057600080fd5b803567ffffffffffffffff811115611e1757600080fd5b866020828401011115611e2957600080fd5b939660209190910195509293505050565b600181811c90821680611e4e57607f821691505b602082108103611e6e57634e487b7160e01b600052602260045260246000fd5b50919050565b6020808252601590820152742737ba1030baba3437b934bd32b21034b9b9bab2b960591b604082015260600190565b673234b21d32ba341d60c11b815260008251611ec6816008850160208701611b7a565b9190910160080192915050565b601f821115611f1d57806000526020600020601f840160051c81016020851015611efa5750805b601f840160051c820191505b81811015611f1a5760008155600101611f06565b50505b505050565b815167ffffffffffffffff811115611f3c57611f3c611c7b565b611f5081611f4a8454611e3a565b84611ed3565b6020601f821160018114611f845760008315611f6c5750848201515b600019600385901b1c1916600184901b178455611f1a565b600084815260208120601f198516915b82811015611fb45787850151825560209485019460019092019101611f94565b5084821015611fd25786840151600019600387901b60f8161c191681555b50505050600190811b01905550565b604081526000611ff46040830185611b9e565b90508260208301529392505050565b634e487b7160e01b600052601160045260246000fd5b808201808211156118f6576118f6612003565b60208152600080835461203e81611e3a565b806020860152600182166000811461205d5760018114612079576120ad565b60ff1983166040870152604082151560051b87010193506120ad565b86600052602060002060005b838110156120a457815488820160400152600190910190602001612085565b87016040019450505b509195945050505050565b634e487b7160e01b600052603260045260246000fd5b80820281158282048414176118f6576118f6612003565b634e487b7160e01b600052602160045260246000fdfea2646970667358221220fabc5ccf5962d0e9f25c4eb44286d2b2c1710ea2641d469d28fa5e7e6949b20864736f6c634300081c0033",
  "linkReferences": {},
  "deployedLinkReferences": {}
}