{
  "_format": "hh-sol-artifact-1",
  "contractName": "DIDRegistry",
  "sourceName": "contracts/core/DIDRegistry.sol",
  "abi": [
    {
      "inputs": [
        {
          "internalType": "address",
          "name": "initialOwner",
          "type": "address"
        }
      ],
      "stateMutability": "nonpayable",
      "type": "constructor"
    },
    {
      "inputs": [
        {
          "internalType": "address",
          "name": "owner",
          "type": "address"
        }
      ],
      "name": "OwnableInvalidOwner",
      "type": "error"
    },
    {
      "inputs": [
        {
          "internalType": "address",
          "name": "account",
          "type": "address"
        }
      ],
      "name": "OwnableUnauthorizedAccount",
      "type": "error"
    },
    {
      "anonymous": false,
      "inputs": [
        {
          "indexed": true,
          "internalType": "address",
          "name": "subject",
          "type": "address"
        },
        {
          "indexed": true,
          "internalType": "bytes32",
          "name": "credentialHash",
          "type": "bytes32"
        },
        {
          "indexed": false,
          "internalType": "address",
          "name": "issuer",
          "type": "address"
        }
      ],
      "name": "CredentialIssued",
      "type": "event"
    },
    {
      "anonymous": false,
      "inputs": [
        {
          "indexed": true,
          "internalType": "bytes32",
          "name": "credentialHash",
          "type": "bytes32"
        }
      ],
      "name": "CredentialRevoked",
      "type": "event"
    },
    {
      "anonymous": false,
      "inputs": [
        {
          "indexed": true,
          "internalType": "address",
          "name": "controller",
          "type": "address"
        },
        {
          "indexed": false,
          "internalType": "string",
          "name": "did",
          "type": "string"
        },
        {
          "indexed": false,
          "internalType": "uint256",
          "name": "timestamp",
          "type": "uint256"
        }
      ],
      "name": "DIDCreated",
      "type": "event"
    },
    {
      "anonymous": false,
      "inputs": [
        {
          "indexed": true,
          "internalType": "address",
          "name": "controller",
          "type": "address"
        },
        {
          "indexed": false,
          "internalType": "string",
          "name": "did",
          "type": "string"
        }
      ],
      "name": "DIDRevoked",
      "type": "event"
    },
    {
      "anonymous": false,
      "inputs": [
        {
          "indexed": true,
          "internalType": "address",
          "name": "controller",
          "type": "address"
        },
        {
          "indexed": false,
          "internalType": "string",
          "name": "did",
          "type": "string"
        }
      ],
      "name": "DIDUpdated",
      "type": "event"
    },
    {
      "anonymous": false,
      "inputs": [
        {
          "indexed": true,
          "internalType": "address",
          "name": "issuer",
          "type": "address"
        }
      ],
      "name": "IssuerAuthorized",
      "type": "event"
    },
    {
      "anonymous": false,
      "inputs": [
        {
          "indexed": true,
          "internalType": "address",
          "name": "issuer",
          "type": "address"
        }
      ],
      "name": "IssuerRevoked",
      "type": "event"
    },
    {
      "anonymous": false,
      "inputs": [
        {
          "indexed": true,
          "internalType": "address",
          "name": "previousOwner",
          "type": "address"
        },
        {
          "indexed": true,
          "internalType": "address",
          "name": "newOwner",
          "type": "address"
        }
      ],
      "name": "OwnershipTransferred",
      "type": "event"
    },
    {
      "anonymous": false,
      "inputs": [
        {
          "indexed": true,
          "internalType": "address",
          "name": "controller",
          "type": "address"
        },
        {
          "indexed": false,
          "internalType": "bytes32",
          "name": "commitment",
          "type": "bytes32"
        }
      ],
      "name": "VotingRegistrationSuccess",
      "type": "event"
    },
    {
      "inputs": [
        {
          "internalType": "address",
          "name": "issuer",
          "type": "address"
        }
      ],
      "name": "authorizeIssuer",
      "outputs": [],
      "stateMutability": "nonpayable",
      "type": "function"
    },
    {
      "inputs": [
        {
          "internalType": "address",
          "name": "",
          "type": "address"
        }
      ],
      "name": "authorizedIssuers",
      "outputs": [
        {
          "internalType": "bool",
          "name": "",
          "type": "bool"
        }
      ],
      "stateMutability": "view",
      "type": "function"
    },
    {
      "inputs": [
        {
          "internalType": "address",
          "name": "controller",
          "type": "address"
        }
      ],
      "name": "createDID",
      "outputs": [],
      "stateMutability": "nonpayable",
      "type": "function"
    },
    {
      "inputs": [
        {
          "internalType": "bytes32",
          "name": "",
          "type": "bytes32"
        }
      ],
      "name": "credentials",
      "outputs": [
        {
          "internalType": "string",
          "name": "credentialType",
          "type": "string"
        },
        {
          "internalType": "bytes32",
          "name": "credentialHash",
          "type": "bytes32"
        },
        {
          "internalType": "address",
          "name": "issuer",
          "type": "address"
        },
        {
          "internalType": "uint256",
          "name": "issuedAt",
          "type": "uint256"
        },
        {
          "internalType": "uint256",
          "name": "expiresAt",
          "type": "uint256"
        }
      ],
      "stateMutability": "view",
      "type": "function"
    },
    {
      "inputs": [
        {
          "internalType": "address",
          "name": "",
          "type": "address"
        }
      ],
      "name": "didDocuments",
      "outputs": [
        {
          "internalType": "string",
          "name": "did",
          "type": "string"
        },
        {
          "internalType": "address",
          "name": "controller",
          "type": "address"
        },
        {
          "internalType": "bytes32",
          "name": "credentialHash",
          "type": "bytes32"
        },
        {
          "internalType": "uint256",
          "name": "issuedAt",
          "type": "uint256"
        },
        {
          "internalType": "uint256",
          "name": "expiresAt",
          "type": "uint256"
        },
        {
          "internalType": "bool",
          "name": "isActive",
          "type": "bool"
        },
        {
          "internalType": "bool",
          "name": "isVerified",
          "type": "bool"
        }
      ],
      "stateMutability": "view",
      "type": "function"
    },
    {
      "inputs": [
        {
          "internalType": "bytes32",
          "name": "credentialHash",
          "type": "bytes32"
        }
      ],
      "name": "getCredential",
      "outputs": [
        {
          "components": [
            {
              "internalType": "string",
              "name": "credentialType",
              "type": "string"
            },
            {
              "internalType": "bytes32",
              "name": "credentialHash",
              "type": "bytes32"
            },
            {
              "internalType": "address",
              "name": "issuer",
              "type": "address"
            },
            {
              "internalType": "uint256",
              "name": "issuedAt",
              "type": "uint256"
            },
            {
              "internalType": "uint256",
              "name": "expiresAt",
              "type": "uint256"
            }
          ],
          "internalType": "struct DIDRegistry.VerifiableCredential",
          "name": "",
          "type": "tuple"
        }
      ],
      "stateMutability": "view",
      "type": "function"
    },
    {
      "inputs": [
        {
          "internalType": "address",
          "name": "controller",
          "type": "address"
        }
      ],
      "name": "getDIDDocument",
      "outputs": [
        {
          "components": [
            {
              "internalType": "string",
              "name": "did",
              "type": "string"
            },
            {
              "internalType": "address",
              "name": "controller",
              "type": "address"
            },
            {
              "internalType": "bytes32",
              "name": "credentialHash",
              "type": "bytes32"
            },
            {
              "internalType": "uint256",
              "name": "issuedAt",
              "type": "uint256"
            },
            {
              "internalType": "uint256",
              "name": "expiresAt",
              "type": "uint256"
            },
            {
              "internalType": "bool",
              "name": "isActive",
              "type": "bool"
            },
            {
              "internalType": "bool",
              "name": "isVerified",
              "type": "bool"
            }
          ],
          "internalType": "struct DIDRegistry.DIDDocument",
          "name": "",
          "type": "tuple"
        }
      ],
      "stateMutability": "view",
      "type": "function"
    },
    {
      "inputs": [
        {
          "internalType": "address",
          "name": "controller",
          "type": "address"
        }
      ],
      "name": "hasDID",
      "outputs": [
        {
          "internalType": "bool",
          "name": "",
          "type": "bool"
        }
      ],
      "stateMutability": "view",
      "type": "function"
    },
    {
      "inputs": [
        {
          "internalType": "address",
          "name": "",
          "type": "address"
        }
      ],
      "name": "hasRegisteredForVoting",
      "outputs": [
        {
          "internalType": "bool",
          "name": "",
          "type": "bool"
        }
      ],
      "stateMutability": "view",
      "type": "function"
    },
    {
      "inputs": [
        {
          "internalType": "address",
          "name": "subject",
          "type": "address"
        },
        {
          "internalType": "string",
          "name": "credentialType",
          "type": "string"
        },
        {
          "internalType": "bytes32",
          "name": "credentialHash",
          "type": "bytes32"
        },
        {
          "internalType": "uint256",
          "name": "validityPeriod",
          "type": "uint256"
        }
      ],
      "name": "issueCredential",
      "outputs": [],
      "stateMutability": "nonpayable",
      "type": "function"
    },
    {
      "inputs": [],
      "name": "owner",
      "outputs": [
        {
          "internalType": "address",
          "name": "",
          "type": "address"
        }
      ],
      "stateMutability": "view",
      "type": "function"
    },
    {
      "inputs": [],
      "name": "privateVoting",
      "outputs": [
        {
          "internalType": "contract IPrivateDAOVoting",
          "name": "",
          "type": "address"
        }
      ],
      "stateMutability": "view",
      "type": "function"
    },
    {
      "inputs": [
        {
          "internalType": "bytes32",
          "name": "commitment",
          "type": "bytes32"
        }
      ],
      "name": "registerVoterForDAO",
      "outputs": [],
      "stateMutability": "nonpayable",
      "type": "function"
    },
    {
      "inputs": [],
      "name": "renounceOwnership",
      "outputs": [],
      "stateMutability": "nonpayable",
      "type": "function"
    },
    {
      "inputs": [
        {
          "internalType": "bytes32",
          "name": "credentialHash",
          "type": "bytes32"
        }
      ],
      "name": "revokeCredential",
      "outputs": [],
      "stateMutability": "nonpayable",
      "type": "function"
    },
    {
      "inputs": [
        {
          "internalType": "address",
          "name": "controller",
          "type": "address"
        }
      ],
      "name": "revokeDID",
      "outputs": [],
      "stateMutability": "nonpayable",
      "type": "function"
    },
    {
      "inputs": [
        {
          "internalType": "address",
          "name": "issuer",
          "type": "address"
        }
      ],
      "name": "revokeIssuer",
      "outputs": [],
      "stateMutability": "nonpayable",
      "type": "function"
    },
    {
      "inputs": [
        {
          "internalType": "bytes32",
          "name": "commitment",
          "type": "bytes32"
        }
      ],
      "name": "selfRegisterForVoting",
      "outputs": [],
      "stateMutability": "nonpayable",
      "type": "function"
    },
    {
      "inputs": [
        {
          "internalType": "address",
          "name": "_privateVoting",
          "type": "address"
        }
      ],
      "name": "setPrivateVotingContract",
      "outputs": [],
      "stateMutability": "nonpayable",
      "type": "function"
    },
    {
      "inputs": [
        {
          "internalType": "address",
          "name": "newOwner",
          "type": "address"
        }
      ],
      "name": "transferOwnership",
      "outputs": [],
      "stateMutability": "nonpayable",
      "type": "function"
    },
    {
      "inputs": [
        {
          "internalType": "address",
          "name": "controller",
          "type": "address"
        }
      ],
      "name": "verifyVotingEligibility",
      "outputs": [
        {
          "internalType": "bool",
          "name": "isValid",
          "type": "bool"
        }
      ],
      "stateMutability": "view",
      "type": "function"
    }
  ],
  "bytecode": "0x608060405234801561001057600080fd5b506040516120b03803806120b083398101604081905261002f916100be565b806001600160a01b03811661005e57604051631e4fbdf760e01b81526000600482015260240160405180910390fd5b6100678161006e565b50506100ee565b600080546001600160a01b038381166001600160a01b0319831681178455604051919092169283917f8be0079c531659141344cd1fd0a4f28419497f9722a3daafe3b4186f6b6457e09190a35050565b6000602082840312156100d057600080fd5b81516001600160a01b03811681146100e757600080fd5b9392505050565b611fb3806100fd6000396000f3fe608060405234801561001057600080fd5b50600436106101365760003560e01c80639616b420116100b8578063d86bba801161007c578063d86bba80146102cd578063e036a279146102f3578063f2fde38b14610306578063f731fa0f14610319578063f99787631461033c578063fc616c621461034f57600080fd5b80639616b42014610245578063b4345c9b14610258578063ca6eec781461026b578063d0f4b30a1461027e578063d1be4883146102ad57600080fd5b80635b8a59e3116100ff5780635b8a59e3146101d257806362f413cf146101f2578063715018a6146102055780638da5cb5b1461020d5780639023c07b1461023257600080fd5b80626296791461013b5780630b871ed31461015057806327c057fc14610163578063299d03481461019b578063436693d5146101bf575b600080fd5b61014e6101493660046119f7565b610362565b005b61014e61015e366004611a19565b610411565b6101866101713660046119f7565b60026020526000908152604090205460ff1681565b60405190151581526020015b60405180910390f35b6101ae6101a9366004611a19565b6105eb565b604051610192959493929190611a82565b61014e6101cd3660046119f7565b6106ac565b6101e56101e03660046119f7565b6107a5565b6040516101929190611ac2565b61014e6102003660046119f7565b6108e9565b61014e610b16565b6000546001600160a01b03165b6040516001600160a01b039091168152602001610192565b61014e610240366004611b49565b610b2a565b6101866102533660046119f7565b610d63565b60015461021a906001600160a01b031681565b61014e610279366004611a19565b610fc4565b61018661028c3660046119f7565b6001600160a01b031660009081526003602052604090206005015460ff1690565b6102c06102bb366004611a19565b6110cc565b6040516101929190611c23565b6102e06102db3660046119f7565b6111d9565b6040516101929796959493929190611c7b565b61014e6103013660046119f7565b6112ac565b61014e6103143660046119f7565b61139f565b6101866103273660046119f7565b60056020526000908152604090205460ff1681565b61014e61034a366004611a19565b6113dd565b61014e61035d3660046119f7565b6116bd565b61036a61172f565b6001600160a01b03811660009081526005602052604090205460ff166103c85760405162461bcd60e51b815260206004820152600e60248201526d139bdd08185d5d1a1bdc9a5e995960921b60448201526064015b60405180910390fd5b6001600160a01b038116600081815260056020526040808220805460ff19169055517f95a4c2ae425bb769549aa1a911911ff57c17ae811ae8c8962d0b9746fcb153979190a250565b3360009081526003602052604090206005015460ff166104695760405162461bcd60e51b8152602060048201526013602482015272139bc81858dd1a5d994811125108199bdd5b99606a1b60448201526064016103bf565b3360009081526002602052604090205460ff16156104e15760405162461bcd60e51b815260206004820152602f60248201527f537962696c2041747461636b3a2044494420616c72656164792072656769737460448201526e6572656420666f7220766f74696e6760881b60648201526084016103bf565b336000908152600260205260409020805460ff19166001908117909155546001600160a01b03166105545760405162461bcd60e51b815260206004820152601f60248201527f5072697661746520766f74696e6720636f6e7472616374206e6f74207365740060448201526064016103bf565b60015460405163793c5d2160e01b8152600481018390526001600160a01b039091169063793c5d2190602401600060405180830381600087803b15801561059a57600080fd5b505af11580156105ae573d6000803e3d6000fd5b50506040518381523392507f8b782fa3e1e18b39babba67bfa58e530638180312d51f0ceeb13c9735101a10891506020015b60405180910390a250565b60046020526000908152604090208054819061060690611ccc565b80601f016020809104026020016040519081016040528092919081815260200182805461063290611ccc565b801561067f5780601f106106545761010080835404028352916020019161067f565b820191906000526020600020905b81548152906001019060200180831161066257829003601f168201915b50505050600183015460028401546003850154600490950154939491936001600160a01b03909116925085565b6106b461172f565b6001600160a01b0381166106fb5760405162461bcd60e51b815260206004820152600e60248201526d24b73b30b634b21034b9b9bab2b960911b60448201526064016103bf565b6001600160a01b03811660009081526005602052604090205460ff16156107595760405162461bcd60e51b8152602060048201526012602482015271105b1c9958591e48185d5d1a1bdc9a5e995960721b60448201526064016103bf565b6001600160a01b038116600081815260056020526040808220805460ff19166001179055517f8b4006ca14f23d4e7aa8d120d1ab7c3761d650eefac1a5d6732dbea94b54ea249190a250565b6040805160e081018252606080825260006020830181905292820183905281018290526080810182905260a0810182905260c08101919091526001600160a01b03821660009081526003602052604090819020815160e0810190925280548290829061081090611ccc565b80601f016020809104026020016040519081016040528092919081815260200182805461083c90611ccc565b80156108895780601f1061085e57610100808354040283529160200191610889565b820191906000526020600020905b81548152906001019060200180831161086c57829003601f168201915b505050918352505060018201546001600160a01b0316602082015260028201546040820152600382015460608201526004820154608082015260059091015460ff808216151560a084015261010090910416151560c09091015292915050565b3360009081526005602052604090205460ff168061091157506000546001600160a01b031633145b61092d5760405162461bcd60e51b81526004016103bf90611d06565b6001600160a01b0381166109785760405162461bcd60e51b815260206004820152601260248201527124b73b30b634b21031b7b73a3937b63632b960711b60448201526064016103bf565b6001600160a01b03811660009081526003602052604090206005015460ff16156109d95760405162461bcd60e51b815260206004820152601260248201527144494420616c72656164792065786973747360701b60448201526064016103bf565b60006109e48261175c565b6040516020016109f49190611d35565b60408051601f1981840301815260e0830182528083526001600160a01b0385166020848101829052600085850181905242606087015260808601819052600160a087015260c0860181905291825260039052919091208251919350908190610a5c9082611db4565b5060208201516001820180546001600160a01b039283166001600160a01b03199091161790556040808401516002840155606084015160038401556080840151600484015560a08401516005909301805460c09095015115156101000261ff00199415159490941661ffff19909516949094179290921790925551908316907f05df43fb03bcbacb9a4122938d2024b390ebfc39ce205b84fa2a9cecda077c6090610b0a9084904290611e73565b60405180910390a25050565b610b1e61172f565b610b28600061193d565b565b3360009081526005602052604090205460ff1680610b5257506000546001600160a01b031633145b610b6e5760405162461bcd60e51b81526004016103bf90611d06565b6001600160a01b038416610bb65760405162461bcd60e51b815260206004820152600f60248201526e125b9d985b1a59081cdd589a9958dd608a1b60448201526064016103bf565b81610c035760405162461bcd60e51b815260206004820152601760248201527f496e76616c69642063726564656e7469616c206861736800000000000000000060448201526064016103bf565b6001600160a01b03841660009081526003602052604090206005015460ff16610c5f5760405162461bcd60e51b815260206004820152600e60248201526d444944206e6f742061637469766560901b60448201526064016103bf565b6000610c6b8242611eab565b6040805160a08101825286815260208082018790523382840152426060830152608082018490526000878152600490915291909120815192935090918190610cb39082611db4565b506020828101516001830155604080840151600280850180546001600160a01b0319166001600160a01b03938416179055606086015160038087019190915560809096015160049095019490945589166000818152948352938190209283018790556005909201805461010061ff001990911617905590513381528592917f4363709704d3f6b8d0a65f1f3e02c640ae24b87d9115262e46ae7f3a21d471db910160405180910390a35050505050565b6001600160a01b038116600090815260036020526040808220815160e0810190925280548392919082908290610d9890611ccc565b80601f0160208091040260200160405190810160405280929190818152602001828054610dc490611ccc565b8015610e115780601f10610de657610100808354040283529160200191610e11565b820191906000526020600020905b815481529060010190602001808311610df457829003601f168201915b505050918352505060018201546001600160a01b0316602082015260028201546040820152600382015460608201526004820154608082015260059091015460ff808216151560a08085019190915261010090920416151560c0909201919091528101519091501580610e8657508060c00151155b15610e945750600092915050565b600060046000836040015181526020019081526020016000206040518060a0016040529081600082018054610ec890611ccc565b80601f0160208091040260200160405190810160405280929190818152602001828054610ef490611ccc565b8015610f415780601f10610f1657610100808354040283529160200191610f41565b820191906000526020600020905b815481529060010190602001808311610f2457829003601f168201915b5050509183525050600182015460208083019190915260028301546001600160a01b0316604083015260038301546060830152600490920154608090910152810151909150610f94575060009392505050565b60008160800151118015610fab5750806080015142115b15610fba575060009392505050565b5060019392505050565b3360009081526005602052604090205460ff1680610fec57506000546001600160a01b031633145b6110085760405162461bcd60e51b81526004016103bf90611d06565b60008181526004602052604090206001015461105d5760405162461bcd60e51b815260206004820152601460248201527310dc9959195b9d1a585b081b9bdd08199bdd5b9960621b60448201526064016103bf565b600081815260046020526040812090611076828261198d565b506000600182018190556002820180546001600160a01b031916905560038201819055600490910181905560405182917f3cc2375f3fc7711ba27361cde93880f578742f9f050acee766bed662d117ba7291a250565b6040805160a08101825260608082526000602083018190529282018390528101829052608081019190915260008281526004602052604090819020815160a0810190925280548290829061111f90611ccc565b80601f016020809104026020016040519081016040528092919081815260200182805461114b90611ccc565b80156111985780601f1061116d57610100808354040283529160200191611198565b820191906000526020600020905b81548152906001019060200180831161117b57829003601f168201915b50505091835250506001820154602082015260028201546001600160a01b031660408201526003820154606082015260049091015460809091015292915050565b6003602052600090815260409020805481906111f490611ccc565b80601f016020809104026020016040519081016040528092919081815260200182805461122090611ccc565b801561126d5780601f106112425761010080835404028352916020019161126d565b820191906000526020600020905b81548152906001019060200180831161125057829003601f168201915b505050600184015460028501546003860154600487015460059097015495966001600160a01b0390931695919450925060ff8082169161010090041687565b3360009081526005602052604090205460ff16806112d457506000546001600160a01b031633145b6112f05760405162461bcd60e51b81526004016103bf90611d06565b6001600160a01b03811660009081526003602052604090206005015460ff1661134c5760405162461bcd60e51b815260206004820152600e60248201526d444944206e6f742061637469766560901b60448201526064016103bf565b6001600160a01b0381166000818152600360205260409081902060058101805460ff1916905590517fb6f55d928aa799fb2b908f97ab973710c0659f02e25f0a63fc68cbb517603e33916105e091611ec4565b6113a761172f565b6001600160a01b0381166113d157604051631e4fbdf760e01b8152600060048201526024016103bf565b6113da8161193d565b50565b3360008181526003602052604090206005015460ff166115325760006114028261175c565b6040516020016114129190611d35565b60408051601f1981840301815260e0830182528083526001600160a01b0385166020848101829052600085850181905242606087015260808601819052600160a087015260c086018190529182526003905291909120825191935090819061147a9082611db4565b5060208201516001820180546001600160a01b039283166001600160a01b03199091161790556040808401516002840155606084015160038401556080840151600484015560a08401516005909301805460c09095015115156101000261ff00199415159490941661ffff19909516949094179290921790925551908316907f05df43fb03bcbacb9a4122938d2024b390ebfc39ce205b84fa2a9cecda077c60906115289084904290611e73565b60405180910390a2505b6001600160a01b03811660009081526002602052604090205460ff16156115af5760405162461bcd60e51b815260206004820152602b60248201527f537962696c2041747461636b3a20416c7265616479207265676973746572656460448201526a20666f7220766f74696e6760a81b60648201526084016103bf565b6001600160a01b038082166000908152600260205260409020805460ff1916600190811790915554166116245760405162461bcd60e51b815260206004820152601f60248201527f5072697661746520766f74696e6720636f6e7472616374206e6f74207365740060448201526064016103bf565b60015460405163793c5d2160e01b8152600481018490526001600160a01b039091169063793c5d2190602401600060405180830381600087803b15801561166a57600080fd5b505af115801561167e573d6000803e3d6000fd5b50505050806001600160a01b03167f8b782fa3e1e18b39babba67bfa58e530638180312d51f0ceeb13c9735101a10883604051610b0a91815260200190565b6116c561172f565b6001600160a01b03811661170d5760405162461bcd60e51b815260206004820152600f60248201526e496e76616c6964206164647265737360881b60448201526064016103bf565b600180546001600160a01b0319166001600160a01b0392909216919091179055565b6000546001600160a01b03163314610b285760405163118cdaa760e01b81523360048201526024016103bf565b604080518082018252601081526f181899199a1a9b1b9c1cb0b131b232b360811b60208201528151602a80825260608281019094526001600160a01b0385169291600091602082018180368337019050509050600360fc1b816000815181106117c7576117c7611f50565b60200101906001600160f81b031916908160001a905350600f60fb1b816001815181106117f6576117f6611f50565b60200101906001600160f81b031916908160001a90535060005b6014811015611934578260048561182884600c611eab565b6020811061183857611838611f50565b1a60f81b6001600160f81b031916901c60f81c60ff168151811061185e5761185e611f50565b01602001516001600160f81b03191682611879836002611f66565b611884906002611eab565b8151811061189457611894611f50565b60200101906001600160f81b031916908160001a90535082846118b883600c611eab565b602081106118c8576118c8611f50565b825191901a600f169081106118df576118df611f50565b01602001516001600160f81b031916826118fa836002611f66565b611905906003611eab565b8151811061191557611915611f50565b60200101906001600160f81b031916908160001a905350600101611810565b50949350505050565b600080546001600160a01b038381166001600160a01b0319831681178455604051919092169283917f8be0079c531659141344cd1fd0a4f28419497f9722a3daafe3b4186f6b6457e09190a35050565b50805461199990611ccc565b6000825580601f106119a9575050565b601f0160209004906000526020600020908101906113da91905b808211156119d757600081556001016119c3565b5090565b80356001600160a01b03811681146119f257600080fd5b919050565b600060208284031215611a0957600080fd5b611a12826119db565b9392505050565b600060208284031215611a2b57600080fd5b5035919050565b60005b83811015611a4d578181015183820152602001611a35565b50506000910152565b60008151808452611a6e816020860160208601611a32565b601f01601f19169290920160200192915050565b60a081526000611a9560a0830188611a56565b6020830196909652506001600160a01b039390931660408401526060830191909152608090910152919050565b602081526000825160e06020840152611adf610100840182611a56565b905060018060a01b0360208501511660408401526040840151606084015260608401516080840152608084015160a084015260a0840151151560c084015260c0840151151560e08401528091505092915050565b634e487b7160e01b600052604160045260246000fd5b60008060008060808587031215611b5f57600080fd5b611b68856119db565b9350602085013567ffffffffffffffff811115611b8457600080fd5b8501601f81018713611b9557600080fd5b803567ffffffffffffffff811115611baf57611baf611b33565b604051601f8201601f19908116603f0116810167ffffffffffffffff81118282101715611bde57611bde611b33565b604052818152828201602001891015611bf657600080fd5b81602084016020830137600091810160200191909152949794965050505060408301359260600135919050565b602081526000825160a06020840152611c3f60c0840182611a56565b90506020840151604084015260018060a01b03604085015116606084015260608401516080840152608084015160a08401528091505092915050565b60e081526000611c8e60e083018a611a56565b6001600160a01b0398909816602083015250604081019590955260608501939093526080840191909152151560a0830152151560c090910152919050565b600181811c90821680611ce057607f821691505b602082108103611d0057634e487b7160e01b600052602260045260246000fd5b50919050565b6020808252601590820152742737ba1030baba3437b934bd32b21034b9b9bab2b960591b604082015260600190565b673234b21d32ba341d60c11b815260008251611d58816008850160208701611a32565b9190910160080192915050565b601f821115611daf57806000526020600020601f840160051c81016020851015611d8c5750805b601f840160051c820191505b81811015611dac5760008155600101611d98565b50505b505050565b815167ffffffffffffffff811115611dce57611dce611b33565b611de281611ddc8454611ccc565b84611d65565b6020601f821160018114611e165760008315611dfe5750848201515b600019600385901b1c1916600184901b178455611dac565b600084815260208120601f198516915b82811015611e465787850151825560209485019460019092019101611e26565b5084821015611e645786840151600019600387901b60f8161c191681555b50505050600190811b01905550565b604081526000611e866040830185611a56565b90508260208301529392505050565b634e487b7160e01b600052601160045260246000fd5b80820180821115611ebe57611ebe611e95565b92915050565b602081526000808354611ed681611ccc565b8060208601526001821660008114611ef55760018114611f1157611f45565b60ff1983166040870152604082151560051b8701019350611f45565b86600052602060002060005b83811015611f3c57815488820160400152600190910190602001611f1d565b87016040019450505b509195945050505050565b634e487b7160e01b600052603260045260246000fd5b8082028115828204841417611ebe57611ebe611e9556fea2646970667358221220f4ff47cab10cd6bd442002ef54ce84d5b394e5a6452ec843fd6ccb53803385bf64736f6c634300081c0033",
  "linkReferences": {},
  "deployedLinkReferences": {}
}