{
  "_format": "hh-sol-artifact-1",
  "contractName": "DIDRegistry",
  "sourceName": "contracts/core/DIDRegistry.sol",
  "abi": [
    {
      "inputs": [
        {
          "internalType": "address",
          "name": "initialOwner",
          "type": "address"
        }
      ],
      "stateMutability": "nonpayable",
      "type": "constructor"
    },
    {
      "inputs": [
        {
          "internalType": "address",
          "name": "owner",
          "type": "address"
        }
      ],
      "name": "OwnableInvalidOwner",
      "type": "error"
    },
    {
      "inputs": [
        {
          "internalType": "address",
          "name": "account",
          "type": "address"
        }
      ],
      "name": "OwnableUnauthorizedAccount",
      "type": "error"
    },
    {
      "anonymous": false,
      "inputs": [
        {
          "indexed": true,
          "internalType": "address",
          "name": "subject",
          "type": "address"
        },
        {
          "indexed": true,
          "internalType": "bytes32",
          "name": "credentialHash",
          "type": "bytes32"
        },
        {
          "indexed": false,
          "internalType": "address",
          "name": "issuer",
          "type": "address"
        }
      ],
      "name": "CredentialIssued",
      "type": "event"
    },
    {
      "anonymous": false,
      "inputs": [
        {
          "indexed": true,
          "internalType": "bytes32",
          "name": "credentialHash",
          "type": "bytes32"
        }
      ],
      "name": "CredentialRevoked",
      "type": "event"
    },
    {
      "anonymous": false,
      "inputs": [
        {
          "indexed": true,
          "internalType": "address",
          "name": "controller",
          "type": "address"
        },
        {
          "indexed": false,
          "internalType": "string",
          "name": "did",
          "type": "string"
        },
        {
          "indexed": false,
          "internalType": "uint256",
          "name": "timestamp",
          "type": "uint256"
        }
      ],
      "name": "DIDCreated",
      "type": "event"
    },
    {
      "anonymous": false,
      "inputs": [
        {
          "indexed": true,
          "internalType": "address",
          "name": "controller",
          "type": "address"
        },
        {
          "indexed": false,
          "internalType": "string",
          "name": "did",
          "type": "string"
        }
      ],
      "name": "DIDRevoked",
      "type": "event"
    },
    {
      "anonymous": false,
      "inputs": [
        {
          "indexed": true,
          "internalType": "address",
          "name": "controller",
          "type": "address"
        },
        {
          "indexed": false,
          "internalType": "string",
          "name": "did",
          "type": "string"
        }
      ],
      "name": "DIDUpdated",
      "type": "event"
    },
    {
      "anonymous": false,
      "inputs": [
        {
          "indexed": true,
          "internalType": "address",
          "name": "issuer",
          "type": "address"
        }
      ],
      "name": "IssuerAuthorized",
      "type": "event"
    },
    {
      "anonymous": false,
      "inputs": [
        {
          "indexed": true,
          "internalType": "address",
          "name": "issuer",
          "type": "address"
        }
      ],
      "name": "IssuerRevoked",
      "type": "event"
    },
    {
      "anonymous": false,
      "inputs": [
        {
          "indexed": true,
          "internalType": "address",
          "name": "previousOwner",
          "type": "address"
        },
        {
          "indexed": true,
          "internalType": "address",
          "name": "newOwner",
          "type": "address"
        }
      ],
      "name": "OwnershipTransferred",
      "type": "event"
    },
    {
      "anonymous": false,
      "inputs": [
        {
          "indexed": true,
          "internalType": "address",
          "name": "controller",
          "type": "address"
        },
        {
          "indexed": false,
          "internalType": "bytes32",
          "name": "commitment",
          "type": "bytes32"
        }
      ],
      "name": "VotingRegistrationSuccess",
      "type": "event"
    },
    {
      "inputs": [
        {
          "internalType": "address",
          "name": "issuer",
          "type": "address"
        }
      ],
      "name": "authorizeIssuer",
      "outputs": [],
      "stateMutability": "nonpayable",
      "type": "function"
    },
    {
      "inputs": [
        {
          "internalType": "address",
          "name": "",
          "type": "address"
        }
      ],
      "name": "authorizedIssuers",
      "outputs": [
        {
          "internalType": "bool",
          "name": "",
          "type": "bool"
        }
      ],
      "stateMutability": "view",
      "type": "function"
    },
    {
      "inputs": [
        {
          "internalType": "address",
          "name": "controller",
          "type": "address"
        }
      ],
      "name": "createDID",
      "outputs": [],
      "stateMutability": "nonpayable",
      "type": "function"
    },
    {
      "inputs": [
        {
          "internalType": "bytes32",
          "name": "",
          "type": "bytes32"
        }
      ],
      "name": "credentials",
      "outputs": [
        {
          "internalType": "string",
          "name": "credentialType",
          "type": "string"
        },
        {
          "internalType": "bytes32",
          "name": "credentialHash",
          "type": "bytes32"
        },
        {
          "internalType": "address",
          "name": "issuer",
          "type": "address"
        },
        {
          "internalType": "uint256",
          "name": "issuedAt",
          "type": "uint256"
        },
        {
          "internalType": "uint256",
          "name": "expiresAt",
          "type": "uint256"
        }
      ],
      "stateMutability": "view",
      "type": "function"
    },
    {
      "inputs": [
        {
          "internalType": "address",
          "name": "",
          "type": "address"
        }
      ],
      "name": "didDocuments",
      "outputs": [
        {
          "internalType": "string",
          "name": "did",
          "type": "string"
        },
        {
          "internalType": "address",
          "name": "controller",
          "type": "address"
        },
        {
          "internalType": "bytes32",
          "name": "credentialHash",
          "type": "bytes32"
        },
        {
          "internalType": "uint256",
          "name": "issuedAt",
          "type": "uint256"
        },
        {
          "internalType": "uint256",
          "name": "expiresAt",
          "type": "uint256"
        },
        {
          "internalType": "bool",
          "name": "isActive",
          "type": "bool"
        },
        {
          "internalType": "bool",
          "name": "isVerified",
          "type": "bool"
        }
      ],
      "stateMutability": "view",
      "type": "function"
    },
    {
      "inputs": [
        {
          "internalType": "bytes32",
          "name": "credentialHash",
          "type": "bytes32"
        }
      ],
      "name": "getCredential",
      "outputs": [
        {
          "components": [
            {
              "internalType": "string",
              "name": "credentialType",
              "type": "string"
            },
            {
              "internalType": "bytes32",
              "name": "credentialHash",
              "type": "bytes32"
            },
            {
              "internalType": "address",
              "name": "issuer",
              "type": "address"
            },
            {
              "internalType": "uint256",
              "name": "issuedAt",
              "type": "uint256"
            },
            {
              "internalType": "uint256",
              "name": "expiresAt",
              "type": "uint256"
            }
          ],
          "internalType": "struct DIDRegistry.VerifiableCredential",
          "name": "",
          "type": "tuple"
        }
      ],
      "stateMutability": "view",
      "type": "function"
    },
    {
      "inputs": [
        {
          "internalType": "address",
          "name": "controller",
          "type": "address"
        }
      ],
      "name": "getDIDDocument",
      "outputs": [
        {
          "components": [
            {
              "internalType": "string",
              "name": "did",
              "type": "string"
            },
            {
              "internalType": "address",
              "name": "controller",
              "type": "address"
            },
            {
              "internalType": "bytes32",
              "name": "credentialHash",
              "type": "bytes32"
            },
            {
              "internalType": "uint256",
              "name": "issuedAt",
              "type": "uint256"
            },
            {
              "internalType": "uint256",
              "name": "expiresAt",
              "type": "uint256"
            },
            {
              "internalType": "bool",
              "name": "isActive",
              "type": "bool"
            },
            {
              "internalType": "bool",
              "name": "isVerified",
              "type": "bool"
            }
          ],
          "internalType": "struct DIDRegistry.DIDDocument",
          "name": "",
          "type": "tuple"
        }
      ],
      "stateMutability": "view",
      "type": "function"
    },
    {
      "inputs": [
        {
          "internalType": "address",
          "name": "controller",
          "type": "address"
        }
      ],
      "name": "hasDID",
      "outputs": [
        {
          "internalType": "bool",
          "name": "",
          "type": "bool"
        }
      ],
      "stateMutability": "view",
      "type": "function"
    },
    {
      "inputs": [
        {
          "internalType": "address",
          "name": "",
          "type": "address"
        }
      ],
      "name": "hasRegisteredForVoting",
      "outputs": [
        {
          "internalType": "bool",
          "name": "",
          "type": "bool"
        }
      ],
      "stateMutability": "view",
      "type": "function"
    },
    {
      "inputs": [
        {
          "internalType": "address",
          "name": "subject",
          "type": "address"
        },
        {
          "internalType": "string",
          "name": "credentialType",
          "type": "string"
        },
        {
          "internalType": "bytes32",
          "name": "credentialHash",
          "type": "bytes32"
        },
        {
          "internalType": "uint256",
          "name": "validityPeriod",
          "type": "uint256"
        }
      ],
      "name": "issueCredential",
      "outputs": [],
      "stateMutability": "nonpayable",
      "type": "function"
    },
    {
      "inputs": [],
      "name": "owner",
      "outputs": [
        {
          "internalType": "address",
          "name": "",
          "type": "address"
        }
      ],
      "stateMutability": "view",
      "type": "function"
    },
    {
      "inputs": [],
      "name": "privateVoting",
      "outputs": [
        {
          "internalType": "contract IPrivateDAOVoting",
          "name": "",
          "type": "address"
        }
      ],
      "stateMutability": "view",
      "type": "function"
    },
    {
      "inputs": [
        {
          "internalType": "bytes32",
          "name": "commitment",
          "type": "bytes32"
        }
      ],
      "name": "registerVoterForDAO",
      "outputs": [],
      "stateMutability": "nonpayable",
      "type": "function"
    },
    {
      "inputs": [],
      "name": "renounceOwnership",
      "outputs": [],
      "stateMutability": "nonpayable",
      "type": "function"
    },
    {
      "inputs": [
        {
          "internalType": "bytes32",
          "name": "credentialHash",
          "type": "bytes32"
        }
      ],
      "name": "revokeCredential",
      "outputs": [],
      "stateMutability": "nonpayable",
      "type": "function"
    },
    {
      "inputs": [
        {
          "internalType": "address",
          "name": "controller",
          "type": "address"
        }
      ],
      "name": "revokeDID",
      "outputs": [],
      "stateMutability": "nonpayable",
      "type": "function"
    },
    {
      "inputs": [
        {
          "internalType": "address",
          "name": "issuer",
          "type": "address"
        }
      ],
      "name": "revokeIssuer",
      "outputs": [],
      "stateMutability": "nonpayable",
      "type": "function"
    },
    {
      "inputs": [
        {
          "internalType": "address",
          "name": "_privateVoting",
          "type": "address"
        }
      ],
      "name": "setPrivateVotingContract",
      "outputs": [],
      "stateMutability": "nonpayable",
      "type": "function"
    },
    {
      "inputs": [
        {
          "internalType": "address",
          "name": "newOwner",
          "type": "address"
        }
      ],
      "name": "transferOwnership",
      "outputs": [],
      "stateMutability": "nonpayable",
      "type": "function"
    },
    {
      "inputs": [
        {
          "internalType": "address",
          "name": "controller",
          "type": "address"
        }
      ],
      "name": "verifyVotingEligibility",
      "outputs": [
        {
          "internalType": "bool",
          "name": "isValid",
          "type": "bool"
        }
      ],
      "stateMutability": "view",
      "type": "function"
    }
  ],
  "bytecode": "0x608060405234801561001057600080fd5b50604051611db2380380611db283398101604081905261002f916100be565b806001600160a01b03811661005e57604051631e4fbdf760e01b81526000600482015260240160405180910390fd5b6100678161006e565b50506100ee565b600080546001600160a01b038381166001600160a01b0319831681178455604051919092169283917f8be0079c531659141344cd1fd0a4f28419497f9722a3daafe3b4186f6b6457e09190a35050565b6000602082840312156100d057600080fd5b81516001600160a01b03811681146100e757600080fd5b9392505050565b611cb5806100fd6000396000f3fe608060405234801561001057600080fd5b506004361061012b5760003560e01c80639616b420116100ad578063d86bba8011610071578063d86bba80146102c2578063e036a279146102e8578063f2fde38b146102fb578063f731fa0f1461030e578063fc616c621461033157600080fd5b80639616b4201461023a578063b4345c9b1461024d578063ca6eec7814610260578063d0f4b30a14610273578063d1be4883146102a257600080fd5b80635b8a59e3116100f45780635b8a59e3146101c757806362f413cf146101e7578063715018a6146101fa5780638da5cb5b146102025780639023c07b1461022757600080fd5b8062629679146101305780630b871ed31461014557806327c057fc14610158578063299d034814610190578063436693d5146101b4575b600080fd5b61014361013e3660046116f9565b610344565b005b61014361015336600461171b565b6103f3565b61017b6101663660046116f9565b60026020526000908152604090205460ff1681565b60405190151581526020015b60405180910390f35b6101a361019e36600461171b565b6105cd565b604051610187959493929190611784565b6101436101c23660046116f9565b61068e565b6101da6101d53660046116f9565b610787565b60405161018791906117c4565b6101436101f53660046116f9565b6108cb565b610143610af8565b6000546001600160a01b03165b6040516001600160a01b039091168152602001610187565b61014361023536600461184b565b610b0c565b61017b6102483660046116f9565b610d45565b60015461020f906001600160a01b031681565b61014361026e36600461171b565b610fa6565b61017b6102813660046116f9565b6001600160a01b031660009081526003602052604090206005015460ff1690565b6102b56102b036600461171b565b6110ae565b6040516101879190611925565b6102d56102d03660046116f9565b6111bb565b604051610187979695949392919061197d565b6101436102f63660046116f9565b61128e565b6101436103093660046116f9565b611381565b61017b61031c3660046116f9565b60056020526000908152604090205460ff1681565b61014361033f3660046116f9565b6113bf565b61034c611431565b6001600160a01b03811660009081526005602052604090205460ff166103aa5760405162461bcd60e51b815260206004820152600e60248201526d139bdd08185d5d1a1bdc9a5e995960921b60448201526064015b60405180910390fd5b6001600160a01b038116600081815260056020526040808220805460ff19169055517f95a4c2ae425bb769549aa1a911911ff57c17ae811ae8c8962d0b9746fcb153979190a250565b3360009081526003602052604090206005015460ff1661044b5760405162461bcd60e51b8152602060048201526013602482015272139bc81858dd1a5d994811125108199bdd5b99606a1b60448201526064016103a1565b3360009081526002602052604090205460ff16156104c35760405162461bcd60e51b815260206004820152602f60248201527f537962696c2041747461636b3a2044494420616c72656164792072656769737460448201526e6572656420666f7220766f74696e6760881b60648201526084016103a1565b336000908152600260205260409020805460ff19166001908117909155546001600160a01b03166105365760405162461bcd60e51b815260206004820152601f60248201527f5072697661746520766f74696e6720636f6e7472616374206e6f74207365740060448201526064016103a1565b60015460405163793c5d2160e01b8152600481018390526001600160a01b039091169063793c5d2190602401600060405180830381600087803b15801561057c57600080fd5b505af1158015610590573d6000803e3d6000fd5b50506040518381523392507f8b782fa3e1e18b39babba67bfa58e530638180312d51f0ceeb13c9735101a10891506020015b60405180910390a250565b6004602052600090815260409020805481906105e8906119ce565b80601f0160208091040260200160405190810160405280929190818152602001828054610614906119ce565b80156106615780601f1061063657610100808354040283529160200191610661565b820191906000526020600020905b81548152906001019060200180831161064457829003601f168201915b50505050600183015460028401546003850154600490950154939491936001600160a01b03909116925085565b610696611431565b6001600160a01b0381166106dd5760405162461bcd60e51b815260206004820152600e60248201526d24b73b30b634b21034b9b9bab2b960911b60448201526064016103a1565b6001600160a01b03811660009081526005602052604090205460ff161561073b5760405162461bcd60e51b8152602060048201526012602482015271105b1c9958591e48185d5d1a1bdc9a5e995960721b60448201526064016103a1565b6001600160a01b038116600081815260056020526040808220805460ff19166001179055517f8b4006ca14f23d4e7aa8d120d1ab7c3761d650eefac1a5d6732dbea94b54ea249190a250565b6040805160e081018252606080825260006020830181905292820183905281018290526080810182905260a0810182905260c08101919091526001600160a01b03821660009081526003602052604090819020815160e081019092528054829082906107f2906119ce565b80601f016020809104026020016040519081016040528092919081815260200182805461081e906119ce565b801561086b5780601f106108405761010080835404028352916020019161086b565b820191906000526020600020905b81548152906001019060200180831161084e57829003601f168201915b505050918352505060018201546001600160a01b0316602082015260028201546040820152600382015460608201526004820154608082015260059091015460ff808216151560a084015261010090910416151560c09091015292915050565b3360009081526005602052604090205460ff16806108f357506000546001600160a01b031633145b61090f5760405162461bcd60e51b81526004016103a190611a08565b6001600160a01b03811661095a5760405162461bcd60e51b815260206004820152601260248201527124b73b30b634b21031b7b73a3937b63632b960711b60448201526064016103a1565b6001600160a01b03811660009081526003602052604090206005015460ff16156109bb5760405162461bcd60e51b815260206004820152601260248201527144494420616c72656164792065786973747360701b60448201526064016103a1565b60006109c68261145e565b6040516020016109d69190611a37565b60408051601f1981840301815260e0830182528083526001600160a01b0385166020848101829052600085850181905242606087015260808601819052600160a087015260c0860181905291825260039052919091208251919350908190610a3e9082611ab6565b5060208201516001820180546001600160a01b039283166001600160a01b03199091161790556040808401516002840155606084015160038401556080840151600484015560a08401516005909301805460c09095015115156101000261ff00199415159490941661ffff19909516949094179290921790925551908316907f05df43fb03bcbacb9a4122938d2024b390ebfc39ce205b84fa2a9cecda077c6090610aec9084904290611b75565b60405180910390a25050565b610b00611431565b610b0a600061163f565b565b3360009081526005602052604090205460ff1680610b3457506000546001600160a01b031633145b610b505760405162461bcd60e51b81526004016103a190611a08565b6001600160a01b038416610b985760405162461bcd60e51b815260206004820152600f60248201526e125b9d985b1a59081cdd589a9958dd608a1b60448201526064016103a1565b81610be55760405162461bcd60e51b815260206004820152601760248201527f496e76616c69642063726564656e7469616c206861736800000000000000000060448201526064016103a1565b6001600160a01b03841660009081526003602052604090206005015460ff16610c415760405162461bcd60e51b815260206004820152600e60248201526d444944206e6f742061637469766560901b60448201526064016103a1565b6000610c4d8242611bad565b6040805160a08101825286815260208082018790523382840152426060830152608082018490526000878152600490915291909120815192935090918190610c959082611ab6565b506020828101516001830155604080840151600280850180546001600160a01b0319166001600160a01b03938416179055606086015160038087019190915560809096015160049095019490945589166000818152948352938190209283018790556005909201805461010061ff001990911617905590513381528592917f4363709704d3f6b8d0a65f1f3e02c640ae24b87d9115262e46ae7f3a21d471db910160405180910390a35050505050565b6001600160a01b038116600090815260036020526040808220815160e0810190925280548392919082908290610d7a906119ce565b80601f0160208091040260200160405190810160405280929190818152602001828054610da6906119ce565b8015610df35780601f10610dc857610100808354040283529160200191610df3565b820191906000526020600020905b815481529060010190602001808311610dd657829003601f168201915b505050918352505060018201546001600160a01b0316602082015260028201546040820152600382015460608201526004820154608082015260059091015460ff808216151560a08085019190915261010090920416151560c0909201919091528101519091501580610e6857508060c00151155b15610e765750600092915050565b600060046000836040015181526020019081526020016000206040518060a0016040529081600082018054610eaa906119ce565b80601f0160208091040260200160405190810160405280929190818152602001828054610ed6906119ce565b8015610f235780601f10610ef857610100808354040283529160200191610f23565b820191906000526020600020905b815481529060010190602001808311610f0657829003601f168201915b5050509183525050600182015460208083019190915260028301546001600160a01b0316604083015260038301546060830152600490920154608090910152810151909150610f76575060009392505050565b60008160800151118015610f8d5750806080015142115b15610f9c575060009392505050565b5060019392505050565b3360009081526005602052604090205460ff1680610fce57506000546001600160a01b031633145b610fea5760405162461bcd60e51b81526004016103a190611a08565b60008181526004602052604090206001015461103f5760405162461bcd60e51b815260206004820152601460248201527310dc9959195b9d1a585b081b9bdd08199bdd5b9960621b60448201526064016103a1565b600081815260046020526040812090611058828261168f565b506000600182018190556002820180546001600160a01b031916905560038201819055600490910181905560405182917f3cc2375f3fc7711ba27361cde93880f578742f9f050acee766bed662d117ba7291a250565b6040805160a08101825260608082526000602083018190529282018390528101829052608081019190915260008281526004602052604090819020815160a08101909252805482908290611101906119ce565b80601f016020809104026020016040519081016040528092919081815260200182805461112d906119ce565b801561117a5780601f1061114f5761010080835404028352916020019161117a565b820191906000526020600020905b81548152906001019060200180831161115d57829003601f168201915b50505091835250506001820154602082015260028201546001600160a01b031660408201526003820154606082015260049091015460809091015292915050565b6003602052600090815260409020805481906111d6906119ce565b80601f0160208091040260200160405190810160405280929190818152602001828054611202906119ce565b801561124f5780601f106112245761010080835404028352916020019161124f565b820191906000526020600020905b81548152906001019060200180831161123257829003601f168201915b505050600184015460028501546003860154600487015460059097015495966001600160a01b0390931695919450925060ff8082169161010090041687565b3360009081526005602052604090205460ff16806112b657506000546001600160a01b031633145b6112d25760405162461bcd60e51b81526004016103a190611a08565b6001600160a01b03811660009081526003602052604090206005015460ff1661132e5760405162461bcd60e51b815260206004820152600e60248201526d444944206e6f742061637469766560901b60448201526064016103a1565b6001600160a01b0381166000818152600360205260409081902060058101805460ff1916905590517fb6f55d928aa799fb2b908f97ab973710c0659f02e25f0a63fc68cbb517603e33916105c291611bc6565b611389611431565b6001600160a01b0381166113b357604051631e4fbdf760e01b8152600060048201526024016103a1565b6113bc8161163f565b50565b6113c7611431565b6001600160a01b03811661140f5760405162461bcd60e51b815260206004820152600f60248201526e496e76616c6964206164647265737360881b60448201526064016103a1565b600180546001600160a01b0319166001600160a01b0392909216919091179055565b6000546001600160a01b03163314610b0a5760405163118cdaa760e01b81523360048201526024016103a1565b604080518082018252601081526f181899199a1a9b1b9c1cb0b131b232b360811b60208201528151602a80825260608281019094526001600160a01b0385169291600091602082018180368337019050509050600360fc1b816000815181106114c9576114c9611c52565b60200101906001600160f81b031916908160001a905350600f60fb1b816001815181106114f8576114f8611c52565b60200101906001600160f81b031916908160001a90535060005b6014811015611636578260048561152a84600c611bad565b6020811061153a5761153a611c52565b1a60f81b6001600160f81b031916901c60f81c60ff168151811061156057611560611c52565b01602001516001600160f81b0319168261157b836002611c68565b611586906002611bad565b8151811061159657611596611c52565b60200101906001600160f81b031916908160001a90535082846115ba83600c611bad565b602081106115ca576115ca611c52565b825191901a600f169081106115e1576115e1611c52565b01602001516001600160f81b031916826115fc836002611c68565b611607906003611bad565b8151811061161757611617611c52565b60200101906001600160f81b031916908160001a905350600101611512565b50949350505050565b600080546001600160a01b038381166001600160a01b0319831681178455604051919092169283917f8be0079c531659141344cd1fd0a4f28419497f9722a3daafe3b4186f6b6457e09190a35050565b50805461169b906119ce565b6000825580601f106116ab575050565b601f0160209004906000526020600020908101906113bc91905b808211156116d957600081556001016116c5565b5090565b80356001600160a01b03811681146116f457600080fd5b919050565b60006020828403121561170b57600080fd5b611714826116dd565b9392505050565b60006020828403121561172d57600080fd5b5035919050565b60005b8381101561174f578181015183820152602001611737565b50506000910152565b60008151808452611770816020860160208601611734565b601f01601f19169290920160200192915050565b60a08152600061179760a0830188611758565b6020830196909652506001600160a01b039390931660408401526060830191909152608090910152919050565b602081526000825160e060208401526117e1610100840182611758565b905060018060a01b0360208501511660408401526040840151606084015260608401516080840152608084015160a084015260a0840151151560c084015260c0840151151560e08401528091505092915050565b634e487b7160e01b600052604160045260246000fd5b6000806000806080858703121561186157600080fd5b61186a856116dd565b9350602085013567ffffffffffffffff81111561188657600080fd5b8501601f8101871361189757600080fd5b803567ffffffffffffffff8111156118b1576118b1611835565b604051601f8201601f19908116603f0116810167ffffffffffffffff811182821017156118e0576118e0611835565b6040528181528282016020018910156118f857600080fd5b81602084016020830137600091810160200191909152949794965050505060408301359260600135919050565b602081526000825160a0602084015261194160c0840182611758565b90506020840151604084015260018060a01b03604085015116606084015260608401516080840152608084015160a08401528091505092915050565b60e08152600061199060e083018a611758565b6001600160a01b0398909816602083015250604081019590955260608501939093526080840191909152151560a0830152151560c090910152919050565b600181811c908216806119e257607f821691505b602082108103611a0257634e487b7160e01b600052602260045260246000fd5b50919050565b6020808252601590820152742737ba1030baba3437b934bd32b21034b9b9bab2b960591b604082015260600190565b673234b21d32ba341d60c11b815260008251611a5a816008850160208701611734565b9190910160080192915050565b601f821115611ab157806000526020600020601f840160051c81016020851015611a8e5750805b601f840160051c820191505b81811015611aae5760008155600101611a9a565b50505b505050565b815167ffffffffffffffff811115611ad057611ad0611835565b611ae481611ade84546119ce565b84611a67565b6020601f821160018114611b185760008315611b005750848201515b600019600385901b1c1916600184901b178455611aae565b600084815260208120601f198516915b82811015611b485787850151825560209485019460019092019101611b28565b5084821015611b665786840151600019600387901b60f8161c191681555b50505050600190811b01905550565b604081526000611b886040830185611758565b90508260208301529392505050565b634e487b7160e01b600052601160045260246000fd5b80820180821115611bc057611bc0611b97565b92915050565b602081526000808354611bd8816119ce565b8060208601526001821660008114611bf75760018114611c1357611c47565b60ff1983166040870152604082151560051b8701019350611c47565b86600052602060002060005b83811015611c3e57815488820160400152600190910190602001611c1f565b87016040019450505b509195945050505050565b634e487b7160e01b600052603260045260246000fd5b8082028115828204841417611bc057611bc0611b9756fea2646970667358221220f4a078e3d8af575362b7b52c79107d9b912222c1bc067f84a8d231bad635dda364736f6c634300081c0033",
  "linkReferences": {},
  "deployedLinkReferences": {}
}