{
  "_format": "hh-sol-artifact-1",
  "contractName": "DIDRegistry",
  "sourceName": "contracts/core/DIDRegistry.sol",
  "abi": [
    {
      "inputs": [
        {
          "internalType": "address",
          "name": "initialOwner",
          "type": "address"
        }
      ],
      "stateMutability": "nonpayable",
      "type": "constructor"
    },
    {
      "inputs": [
        {
          "internalType": "address",
          "name": "owner",
          "type": "address"
        }
      ],
      "name": "OwnableInvalidOwner",
      "type": "error"
    },
    {
      "inputs": [
        {
          "internalType": "address",
          "name": "account",
          "type": "address"
        }
      ],
      "name": "OwnableUnauthorizedAccount",
      "type": "error"
    },
    {
      "anonymous": false,
      "inputs": [
        {
          "indexed": true,
          "internalType": "address",
          "name": "subject",
          "type": "address"
        },
        {
          "indexed": true,
          "internalType": "bytes32",
          "name": "credentialHash",
          "type": "bytes32"
        },
        {
          "indexed": false,
          "internalType": "address",
          "name": "issuer",
          "type": "address"
        }
      ],
      "name": "CredentialIssued",
      "type": "event"
    },
    {
      "anonymous": false,
      "inputs": [
        {
          "indexed": true,
          "internalType": "bytes32",
          "name": "credentialHash",
          "type": "bytes32"
        }
      ],
      "name": "CredentialRevoked",
      "type": "event"
    },
    {
      "anonymous": false,
      "inputs": [
        {
          "indexed": true,
          "internalType": "address",
          "name": "controller",
          "type": "address"
        },
        {
          "indexed": false,
          "internalType": "string",
          "name": "did",
          "type": "string"
        },
        {
          "indexed": false,
          "internalType": "uint256",
          "name": "timestamp",
          "type": "uint256"
        }
      ],
      "name": "DIDCreated",
      "type": "event"
    },
    {
      "anonymous": false,
      "inputs": [
        {
          "indexed": true,
          "internalType": "address",
          "name": "controller",
          "type": "address"
        },
        {
          "indexed": false,
          "internalType": "string",
          "name": "did",
          "type": "string"
        }
      ],
      "name": "DIDRevoked",
      "type": "event"
    },
    {
      "anonymous": false,
      "inputs": [
        {
          "indexed": true,
          "internalType": "address",
          "name": "controller",
          "type": "address"
        },
        {
          "indexed": false,
          "internalType": "string",
          "name": "did",
          "type": "string"
        }
      ],
      "name": "DIDUpdated",
      "type": "event"
    },
    {
      "anonymous": false,
      "inputs": [
        {
          "indexed": true,
          "internalType": "address",
          "name": "issuer",
          "type": "address"
        }
      ],
      "name": "IssuerAuthorized",
      "type": "event"
    },
    {
      "anonymous": false,
      "inputs": [
        {
          "indexed": true,
          "internalType": "address",
          "name": "issuer",
          "type": "address"
        }
      ],
      "name": "IssuerRevoked",
      "type": "event"
    },
    {
      "anonymous": false,
      "inputs": [
        {
          "indexed": true,
          "internalType": "address",
          "name": "previousOwner",
          "type": "address"
        },
        {
          "indexed": true,
          "internalType": "address",
          "name": "newOwner",
          "type": "address"
        }
      ],
      "name": "OwnershipTransferred",
      "type": "event"
    },
    {
      "inputs": [
        {
          "internalType": "address",
          "name": "issuer",
          "type": "address"
        }
      ],
      "name": "authorizeIssuer",
      "outputs": [],
      "stateMutability": "nonpayable",
      "type": "function"
    },
    {
      "inputs": [
        {
          "internalType": "address",
          "name": "",
          "type": "address"
        }
      ],
      "name": "authorizedIssuers",
      "outputs": [
        {
          "internalType": "bool",
          "name": "",
          "type": "bool"
        }
      ],
      "stateMutability": "view",
      "type": "function"
    },
    {
      "inputs": [
        {
          "internalType": "address",
          "name": "controller",
          "type": "address"
        }
      ],
      "name": "createDID",
      "outputs": [],
      "stateMutability": "nonpayable",
      "type": "function"
    },
    {
      "inputs": [
        {
          "internalType": "bytes32",
          "name": "",
          "type": "bytes32"
        }
      ],
      "name": "credentials",
      "outputs": [
        {
          "internalType": "string",
          "name": "credentialType",
          "type": "string"
        },
        {
          "internalType": "bytes32",
          "name": "credentialHash",
          "type": "bytes32"
        },
        {
          "internalType": "address",
          "name": "issuer",
          "type": "address"
        },
        {
          "internalType": "uint256",
          "name": "issuedAt",
          "type": "uint256"
        },
        {
          "internalType": "uint256",
          "name": "expiresAt",
          "type": "uint256"
        }
      ],
      "stateMutability": "view",
      "type": "function"
    },
    {
      "inputs": [
        {
          "internalType": "address",
          "name": "",
          "type": "address"
        }
      ],
      "name": "didDocuments",
      "outputs": [
        {
          "internalType": "string",
          "name": "did",
          "type": "string"
        },
        {
          "internalType": "address",
          "name": "controller",
          "type": "address"
        },
        {
          "internalType": "bytes32",
          "name": "credentialHash",
          "type": "bytes32"
        },
        {
          "internalType": "uint256",
          "name": "issuedAt",
          "type": "uint256"
        },
        {
          "internalType": "uint256",
          "name": "expiresAt",
          "type": "uint256"
        },
        {
          "internalType": "bool",
          "name": "isActive",
          "type": "bool"
        },
        {
          "internalType": "bool",
          "name": "isVerified",
          "type": "bool"
        }
      ],
      "stateMutability": "view",
      "type": "function"
    },
    {
      "inputs": [
        {
          "internalType": "bytes32",
          "name": "credentialHash",
          "type": "bytes32"
        }
      ],
      "name": "getCredential",
      "outputs": [
        {
          "components": [
            {
              "internalType": "string",
              "name": "credentialType",
              "type": "string"
            },
            {
              "internalType": "bytes32",
              "name": "credentialHash",
              "type": "bytes32"
            },
            {
              "internalType": "address",
              "name": "issuer",
              "type": "address"
            },
            {
              "internalType": "uint256",
              "name": "issuedAt",
              "type": "uint256"
            },
            {
              "internalType": "uint256",
              "name": "expiresAt",
              "type": "uint256"
            }
          ],
          "internalType": "struct DIDRegistry.VerifiableCredential",
          "name": "",
          "type": "tuple"
        }
      ],
      "stateMutability": "view",
      "type": "function"
    },
    {
      "inputs": [
        {
          "internalType": "address",
          "name": "controller",
          "type": "address"
        }
      ],
      "name": "getDIDDocument",
      "outputs": [
        {
          "components": [
            {
              "internalType": "string",
              "name": "did",
              "type": "string"
            },
            {
              "internalType": "address",
              "name": "controller",
              "type": "address"
            },
            {
              "internalType": "bytes32",
              "name": "credentialHash",
              "type": "bytes32"
            },
            {
              "internalType": "uint256",
              "name": "issuedAt",
              "type": "uint256"
            },
            {
              "internalType": "uint256",
              "name": "expiresAt",
              "type": "uint256"
            },
            {
              "internalType": "bool",
              "name": "isActive",
              "type": "bool"
            },
            {
              "internalType": "bool",
              "name": "isVerified",
              "type": "bool"
            }
          ],
          "internalType": "struct DIDRegistry.DIDDocument",
          "name": "",
          "type": "tuple"
        }
      ],
      "stateMutability": "view",
      "type": "function"
    },
    {
      "inputs": [
        {
          "internalType": "address",
          "name": "controller",
          "type": "address"
        }
      ],
      "name": "hasDID",
      "outputs": [
        {
          "internalType": "bool",
          "name": "",
          "type": "bool"
        }
      ],
      "stateMutability": "view",
      "type": "function"
    },
    {
      "inputs": [
        {
          "internalType": "address",
          "name": "subject",
          "type": "address"
        },
        {
          "internalType": "string",
          "name": "credentialType",
          "type": "string"
        },
        {
          "internalType": "bytes32",
          "name": "credentialHash",
          "type": "bytes32"
        },
        {
          "internalType": "uint256",
          "name": "validityPeriod",
          "type": "uint256"
        }
      ],
      "name": "issueCredential",
      "outputs": [],
      "stateMutability": "nonpayable",
      "type": "function"
    },
    {
      "inputs": [],
      "name": "owner",
      "outputs": [
        {
          "internalType": "address",
          "name": "",
          "type": "address"
        }
      ],
      "stateMutability": "view",
      "type": "function"
    },
    {
      "inputs": [],
      "name": "renounceOwnership",
      "outputs": [],
      "stateMutability": "nonpayable",
      "type": "function"
    },
    {
      "inputs": [
        {
          "internalType": "bytes32",
          "name": "credentialHash",
          "type": "bytes32"
        }
      ],
      "name": "revokeCredential",
      "outputs": [],
      "stateMutability": "nonpayable",
      "type": "function"
    },
    {
      "inputs": [
        {
          "internalType": "address",
          "name": "controller",
          "type": "address"
        }
      ],
      "name": "revokeDID",
      "outputs": [],
      "stateMutability": "nonpayable",
      "type": "function"
    },
    {
      "inputs": [
        {
          "internalType": "address",
          "name": "issuer",
          "type": "address"
        }
      ],
      "name": "revokeIssuer",
      "outputs": [],
      "stateMutability": "nonpayable",
      "type": "function"
    },
    {
      "inputs": [
        {
          "internalType": "address",
          "name": "newOwner",
          "type": "address"
        }
      ],
      "name": "transferOwnership",
      "outputs": [],
      "stateMutability": "nonpayable",
      "type": "function"
    },
    {
      "inputs": [
        {
          "internalType": "address",
          "name": "controller",
          "type": "address"
        }
      ],
      "name": "verifyVotingEligibility",
      "outputs": [
        {
          "internalType": "bool",
          "name": "isValid",
          "type": "bool"
        }
      ],
      "stateMutability": "view",
      "type": "function"
    }
  ],
  "bytecode": "0x608060405234801561001057600080fd5b50604051611af8380380611af883398101604081905261002f916100be565b806001600160a01b03811661005e57604051631e4fbdf760e01b81526000600482015260240160405180910390fd5b6100678161006e565b50506100ee565b600080546001600160a01b038381166001600160a01b0319831681178455604051919092169283917f8be0079c531659141344cd1fd0a4f28419497f9722a3daafe3b4186f6b6457e09190a35050565b6000602082840312156100d057600080fd5b81516001600160a01b03811681146100e757600080fd5b9392505050565b6119fb806100fd6000396000f3fe608060405234801561001057600080fd5b50600436106100ff5760003560e01c80639616b42011610097578063d86bba8011610066578063d86bba8014610247578063e036a2791461026d578063f2fde38b14610280578063f731fa0f1461029357600080fd5b80639616b420146101c2578063ca6eec78146101e5578063d0f4b30a146101f8578063d1be48831461022757600080fd5b806362f413cf116100d357806362f413cf14610179578063715018a61461018c5780638da5cb5b146101945780639023c07b146101af57600080fd5b806262967914610104578063299d034814610119578063436693d5146101465780635b8a59e314610159575b600080fd5b61011761011236600461142e565b6102b6565b005b61012c610127366004611450565b610365565b60405161013d9594939291906114b9565b60405180910390f35b61011761015436600461142e565b610426565b61016c61016736600461142e565b61051f565b60405161013d91906114f9565b61011761018736600461142e565b610663565b610117610893565b6000546040516001600160a01b03909116815260200161013d565b6101176101bd366004611580565b6108a7565b6101d56101d036600461142e565b610ae1565b604051901515815260200161013d565b6101176101f3366004611450565b610d42565b6101d561020636600461142e565b6001600160a01b031660009081526001602052604090206005015460ff1690565b61023a610235366004611450565b610e4a565b60405161013d919061165a565b61025a61025536600461142e565b610f57565b60405161013d97969594939291906116b2565b61011761027b36600461142e565b61102a565b61011761028e36600461142e565b611128565b6101d56102a136600461142e565b60036020526000908152604090205460ff1681565b6102be611166565b6001600160a01b03811660009081526003602052604090205460ff1661031c5760405162461bcd60e51b815260206004820152600e60248201526d139bdd08185d5d1a1bdc9a5e995960921b60448201526064015b60405180910390fd5b6001600160a01b038116600081815260036020526040808220805460ff19169055517f95a4c2ae425bb769549aa1a911911ff57c17ae811ae8c8962d0b9746fcb153979190a250565b60026020526000908152604090208054819061038090611703565b80601f01602080910402602001604051908101604052809291908181526020018280546103ac90611703565b80156103f95780601f106103ce576101008083540402835291602001916103f9565b820191906000526020600020905b8154815290600101906020018083116103dc57829003601f168201915b50505050600183015460028401546003850154600490950154939491936001600160a01b03909116925085565b61042e611166565b6001600160a01b0381166104755760405162461bcd60e51b815260206004820152600e60248201526d24b73b30b634b21034b9b9bab2b960911b6044820152606401610313565b6001600160a01b03811660009081526003602052604090205460ff16156104d35760405162461bcd60e51b8152602060048201526012602482015271105b1c9958591e48185d5d1a1bdc9a5e995960721b6044820152606401610313565b6001600160a01b038116600081815260036020526040808220805460ff19166001179055517f8b4006ca14f23d4e7aa8d120d1ab7c3761d650eefac1a5d6732dbea94b54ea249190a250565b6040805160e081018252606080825260006020830181905292820183905281018290526080810182905260a0810182905260c08101919091526001600160a01b03821660009081526001602052604090819020815160e0810190925280548290829061058a90611703565b80601f01602080910402602001604051908101604052809291908181526020018280546105b690611703565b80156106035780601f106105d857610100808354040283529160200191610603565b820191906000526020600020905b8154815290600101906020018083116105e657829003601f168201915b505050918352505060018201546001600160a01b0316602082015260028201546040820152600382015460608201526004820154608082015260059091015460ff808216151560a084015261010090910416151560c09091015292915050565b3360009081526003602052604090205460ff168061068b57506000546001600160a01b031633145b6106a75760405162461bcd60e51b81526004016103139061173d565b6001600160a01b0381166106f25760405162461bcd60e51b815260206004820152601260248201527124b73b30b634b21031b7b73a3937b63632b960711b6044820152606401610313565b6001600160a01b03811660009081526001602052604090206005015460ff16156107535760405162461bcd60e51b815260206004820152601260248201527144494420616c72656164792065786973747360701b6044820152606401610313565b60004661075f83611193565b60405160200161077092919061176c565b60408051601f1981840301815260e0830182528083526001600160a01b0385166020848101829052600085850181905242606087015260808601819052600160a0870181905260c087018290529281529190529190912082519193509081906107d990826117fc565b5060208201516001820180546001600160a01b039283166001600160a01b03199091161790556040808401516002840155606084015160038401556080840151600484015560a08401516005909301805460c09095015115156101000261ff00199415159490941661ffff19909516949094179290921790925551908316907f05df43fb03bcbacb9a4122938d2024b390ebfc39ce205b84fa2a9cecda077c609061088790849042906118bb565b60405180910390a25050565b61089b611166565b6108a56000611374565b565b3360009081526003602052604090205460ff16806108cf57506000546001600160a01b031633145b6108eb5760405162461bcd60e51b81526004016103139061173d565b6001600160a01b0384166109335760405162461bcd60e51b815260206004820152600f60248201526e125b9d985b1a59081cdd589a9958dd608a1b6044820152606401610313565b816109805760405162461bcd60e51b815260206004820152601760248201527f496e76616c69642063726564656e7469616c20686173680000000000000000006044820152606401610313565b6001600160a01b03841660009081526001602052604090206005015460ff166109dc5760405162461bcd60e51b815260206004820152600e60248201526d444944206e6f742061637469766560901b6044820152606401610313565b60006109e882426118f3565b6040805160a08101825286815260208082018790523382840152426060830152608082018490526000878152600290915291909120815192935090918190610a3090826117fc565b50602082810151600183810191909155604080850151600280860180546001600160a01b0319166001600160a01b03938416179055606087015160038701556080909601516004909501949094559289166000818152918352908390209384018790556005909301805461010061ff001990911617905590513381528592917f4363709704d3f6b8d0a65f1f3e02c640ae24b87d9115262e46ae7f3a21d471db910160405180910390a35050505050565b6001600160a01b038116600090815260016020526040808220815160e0810190925280548392919082908290610b1690611703565b80601f0160208091040260200160405190810160405280929190818152602001828054610b4290611703565b8015610b8f5780601f10610b6457610100808354040283529160200191610b8f565b820191906000526020600020905b815481529060010190602001808311610b7257829003601f168201915b505050918352505060018201546001600160a01b0316602082015260028201546040820152600382015460608201526004820154608082015260059091015460ff808216151560a08085019190915261010090920416151560c0909201919091528101519091501580610c0457508060c00151155b15610c125750600092915050565b600060026000836040015181526020019081526020016000206040518060a0016040529081600082018054610c4690611703565b80601f0160208091040260200160405190810160405280929190818152602001828054610c7290611703565b8015610cbf5780601f10610c9457610100808354040283529160200191610cbf565b820191906000526020600020905b815481529060010190602001808311610ca257829003601f168201915b5050509183525050600182015460208083019190915260028301546001600160a01b0316604083015260038301546060830152600490920154608090910152810151909150610d12575060009392505050565b60008160800151118015610d295750806080015142115b15610d38575060009392505050565b5060019392505050565b3360009081526003602052604090205460ff1680610d6a57506000546001600160a01b031633145b610d865760405162461bcd60e51b81526004016103139061173d565b600081815260026020526040902060010154610ddb5760405162461bcd60e51b815260206004820152601460248201527310dc9959195b9d1a585b081b9bdd08199bdd5b9960621b6044820152606401610313565b600081815260026020526040812090610df482826113c4565b506000600182018190556002820180546001600160a01b031916905560038201819055600490910181905560405182917f3cc2375f3fc7711ba27361cde93880f578742f9f050acee766bed662d117ba7291a250565b6040805160a08101825260608082526000602083018190529282018390528101829052608081019190915260008281526002602052604090819020815160a08101909252805482908290610e9d90611703565b80601f0160208091040260200160405190810160405280929190818152602001828054610ec990611703565b8015610f165780601f10610eeb57610100808354040283529160200191610f16565b820191906000526020600020905b815481529060010190602001808311610ef957829003601f168201915b50505091835250506001820154602082015260028201546001600160a01b031660408201526003820154606082015260049091015460809091015292915050565b600160205260009081526040902080548190610f7290611703565b80601f0160208091040260200160405190810160405280929190818152602001828054610f9e90611703565b8015610feb5780601f10610fc057610100808354040283529160200191610feb565b820191906000526020600020905b815481529060010190602001808311610fce57829003601f168201915b505050600184015460028501546003860154600487015460059097015495966001600160a01b0390931695919450925060ff8082169161010090041687565b3360009081526003602052604090205460ff168061105257506000546001600160a01b031633145b61106e5760405162461bcd60e51b81526004016103139061173d565b6001600160a01b03811660009081526001602052604090206005015460ff166110ca5760405162461bcd60e51b815260206004820152600e60248201526d444944206e6f742061637469766560901b6044820152606401610313565b6001600160a01b0381166000818152600160205260409081902060058101805460ff1916905590517fb6f55d928aa799fb2b908f97ab973710c0659f02e25f0a63fc68cbb517603e339161111d9161190c565b60405180910390a250565b611130611166565b6001600160a01b03811661115a57604051631e4fbdf760e01b815260006004820152602401610313565b61116381611374565b50565b6000546001600160a01b031633146108a55760405163118cdaa760e01b8152336004820152602401610313565b604080518082018252601081526f181899199a1a9b1b9c1cb0b131b232b360811b60208201528151602a80825260608281019094526001600160a01b0385169291600091602082018180368337019050509050600360fc1b816000815181106111fe576111fe611998565b60200101906001600160f81b031916908160001a905350600f60fb1b8160018151811061122d5761122d611998565b60200101906001600160f81b031916908160001a90535060005b601481101561136b578260048561125f84600c6118f3565b6020811061126f5761126f611998565b1a60f81b6001600160f81b031916901c60f81c60ff168151811061129557611295611998565b01602001516001600160f81b031916826112b08360026119ae565b6112bb9060026118f3565b815181106112cb576112cb611998565b60200101906001600160f81b031916908160001a90535082846112ef83600c6118f3565b602081106112ff576112ff611998565b825191901a600f1690811061131657611316611998565b01602001516001600160f81b031916826113318360026119ae565b61133c9060036118f3565b8151811061134c5761134c611998565b60200101906001600160f81b031916908160001a905350600101611247565b50949350505050565b600080546001600160a01b038381166001600160a01b0319831681178455604051919092169283917f8be0079c531659141344cd1fd0a4f28419497f9722a3daafe3b4186f6b6457e09190a35050565b5080546113d090611703565b6000825580601f106113e0575050565b601f01602090049060005260206000209081019061116391905b8082111561140e57600081556001016113fa565b5090565b80356001600160a01b038116811461142957600080fd5b919050565b60006020828403121561144057600080fd5b61144982611412565b9392505050565b60006020828403121561146257600080fd5b5035919050565b60005b8381101561148457818101518382015260200161146c565b50506000910152565b600081518084526114a5816020860160208601611469565b601f01601f19169290920160200192915050565b60a0815260006114cc60a083018861148d565b6020830196909652506001600160a01b039390931660408401526060830191909152608090910152919050565b602081526000825160e0602084015261151661010084018261148d565b905060018060a01b0360208501511660408401526040840151606084015260608401516080840152608084015160a084015260a0840151151560c084015260c0840151151560e08401528091505092915050565b634e487b7160e01b600052604160045260246000fd5b6000806000806080858703121561159657600080fd5b61159f85611412565b9350602085013567ffffffffffffffff8111156115bb57600080fd5b8501601f810187136115cc57600080fd5b803567ffffffffffffffff8111156115e6576115e661156a565b604051601f8201601f19908116603f0116810167ffffffffffffffff811182821017156116155761161561156a565b60405281815282820160200189101561162d57600080fd5b81602084016020830137600091810160200191909152949794965050505060408301359260600135919050565b602081526000825160a0602084015261167660c084018261148d565b90506020840151604084015260018060a01b03604085015116606084015260608401516080840152608084015160a08401528091505092915050565b60e0815260006116c560e083018a61148d565b6001600160a01b0398909816602083015250604081019590955260608501939093526080840191909152151560a0830152151560c090910152919050565b600181811c9082168061171757607f821691505b60208210810361173757634e487b7160e01b600052602260045260246000fd5b50919050565b6020808252601590820152742737ba1030baba3437b934bd32b21034b9b9bab2b960591b604082015260600190565b673234b21d32ba341d60c11b8152826008820152601d60f91b60288201526000825161179f816029850160208701611469565b919091016029019392505050565b601f8211156117f757806000526020600020601f840160051c810160208510156117d45750805b601f840160051c820191505b818110156117f457600081556001016117e0565b50505b505050565b815167ffffffffffffffff8111156118165761181661156a565b61182a816118248454611703565b846117ad565b6020601f82116001811461185e57600083156118465750848201515b600019600385901b1c1916600184901b1784556117f4565b600084815260208120601f198516915b8281101561188e578785015182556020948501946001909201910161186e565b50848210156118ac5786840151600019600387901b60f8161c191681555b50505050600190811b01905550565b6040815260006118ce604083018561148d565b90508260208301529392505050565b634e487b7160e01b600052601160045260246000fd5b80820180821115611906576119066118dd565b92915050565b60208152600080835461191e81611703565b806020860152600182166000811461193d57600181146119595761198d565b60ff1983166040870152604082151560051b870101935061198d565b86600052602060002060005b8381101561198457815488820160400152600190910190602001611965565b87016040019450505b509195945050505050565b634e487b7160e01b600052603260045260246000fd5b8082028115828204841417611906576119066118dd56fea2646970667358221220c2f68ae27d2b97f10211675487a1d73ffe2402e3ac89a5708d7836a08ea9426b64736f6c634300081c0033",
  "linkReferences": {},
  "deployedLinkReferences": {}
}