{
  "_format": "hh-sol-artifact-1",
  "contractName": "GovernanceToken",
  "sourceName": "contracts/core/GovernanceToken.sol",
  "abi": [
    {
      "inputs": [
        {
          "internalType": "string",
          "name": "name",
          "type": "string"
        },
        {
          "internalType": "string",
          "name": "symbol",
          "type": "string"
        },
        {
          "internalType": "address",
          "name": "initialOwner",
          "type": "address"
        }
      ],
      "stateMutability": "nonpayable",
      "type": "constructor"
    },
    {
      "inputs": [
        {
          "internalType": "address",
          "name": "spender",
          "type": "address"
        },
        {
          "internalType": "uint256",
          "name": "allowance",
          "type": "uint256"
        },
        {
          "internalType": "uint256",
          "name": "needed",
          "type": "uint256"
        }
      ],
      "name": "ERC20InsufficientAllowance",
      "type": "error"
    },
    {
      "inputs": [
        {
          "internalType": "address",
          "name": "sender",
          "type": "address"
        },
        {
          "internalType": "uint256",
          "name": "balance",
          "type": "uint256"
        },
        {
          "internalType": "uint256",
          "name": "needed",
          "type": "uint256"
        }
      ],
      "name": "ERC20InsufficientBalance",
      "type": "error"
    },
    {
      "inputs": [
        {
          "internalType": "address",
          "name": "approver",
          "type": "address"
        }
      ],
      "name": "ERC20InvalidApprover",
      "type": "error"
    },
    {
      "inputs": [
        {
          "internalType": "address",
          "name": "receiver",
          "type": "address"
        }
      ],
      "name": "ERC20InvalidReceiver",
      "type": "error"
    },
    {
      "inputs": [
        {
          "internalType": "address",
          "name": "sender",
          "type": "address"
        }
      ],
      "name": "ERC20InvalidSender",
      "type": "error"
    },
    {
      "inputs": [
        {
          "internalType": "address",
          "name": "spender",
          "type": "address"
        }
      ],
      "name": "ERC20InvalidSpender",
      "type": "error"
    },
    {
      "inputs": [
        {
          "internalType": "address",
          "name": "owner",
          "type": "address"
        }
      ],
      "name": "OwnableInvalidOwner",
      "type": "error"
    },
    {
      "inputs": [
        {
          "internalType": "address",
          "name": "account",
          "type": "address"
        }
      ],
      "name": "OwnableUnauthorizedAccount",
      "type": "error"
    },
    {
      "anonymous": false,
      "inputs": [
        {
          "indexed": true,
          "internalType": "address",
          "name": "owner",
          "type": "address"
        },
        {
          "indexed": true,
          "internalType": "address",
          "name": "spender",
          "type": "address"
        },
        {
          "indexed": false,
          "internalType": "uint256",
          "name": "value",
          "type": "uint256"
        }
      ],
      "name": "Approval",
      "type": "event"
    },
    {
      "anonymous": false,
      "inputs": [
        {
          "indexed": true,
          "internalType": "address",
          "name": "minter",
          "type": "address"
        }
      ],
      "name": "MinterAdded",
      "type": "event"
    },
    {
      "anonymous": false,
      "inputs": [
        {
          "indexed": true,
          "internalType": "address",
          "name": "minter",
          "type": "address"
        }
      ],
      "name": "MinterRemoved",
      "type": "event"
    },
    {
      "anonymous": false,
      "inputs": [
        {
          "indexed": true,
          "internalType": "address",
          "name": "previousOwner",
          "type": "address"
        },
        {
          "indexed": true,
          "internalType": "address",
          "name": "newOwner",
          "type": "address"
        }
      ],
      "name": "OwnershipTransferred",
      "type": "event"
    },
    {
      "anonymous": false,
      "inputs": [
        {
          "indexed": true,
          "internalType": "address",
          "name": "from",
          "type": "address"
        },
        {
          "indexed": true,
          "internalType": "address",
          "name": "to",
          "type": "address"
        },
        {
          "indexed": false,
          "internalType": "uint256",
          "name": "value",
          "type": "uint256"
        }
      ],
      "name": "Transfer",
      "type": "event"
    },
    {
      "inputs": [],
      "name": "INITIAL_SUPPLY",
      "outputs": [
        {
          "internalType": "uint256",
          "name": "",
          "type": "uint256"
        }
      ],
      "stateMutability": "view",
      "type": "function"
    },
    {
      "inputs": [],
      "name": "MAX_SUPPLY",
      "outputs": [
        {
          "internalType": "uint256",
          "name": "",
          "type": "uint256"
        }
      ],
      "stateMutability": "view",
      "type": "function"
    },
    {
      "inputs": [
        {
          "internalType": "address",
          "name": "minter",
          "type": "address"
        }
      ],
      "name": "addMinter",
      "outputs": [],
      "stateMutability": "nonpayable",
      "type": "function"
    },
    {
      "inputs": [
        {
          "internalType": "address",
          "name": "owner",
          "type": "address"
        },
        {
          "internalType": "address",
          "name": "spender",
          "type": "address"
        }
      ],
      "name": "allowance",
      "outputs": [
        {
          "internalType": "uint256",
          "name": "",
          "type": "uint256"
        }
      ],
      "stateMutability": "view",
      "type": "function"
    },
    {
      "inputs": [
        {
          "internalType": "address",
          "name": "spender",
          "type": "address"
        },
        {
          "internalType": "uint256",
          "name": "value",
          "type": "uint256"
        }
      ],
      "name": "approve",
      "outputs": [
        {
          "internalType": "bool",
          "name": "",
          "type": "bool"
        }
      ],
      "stateMutability": "nonpayable",
      "type": "function"
    },
    {
      "inputs": [
        {
          "internalType": "address",
          "name": "account",
          "type": "address"
        }
      ],
      "name": "balanceOf",
      "outputs": [
        {
          "internalType": "uint256",
          "name": "",
          "type": "uint256"
        }
      ],
      "stateMutability": "view",
      "type": "function"
    },
    {
      "inputs": [
        {
          "internalType": "address[]",
          "name": "recipients",
          "type": "address[]"
        },
        {
          "internalType": "uint256[]",
          "name": "amounts",
          "type": "uint256[]"
        }
      ],
      "name": "batchMint",
      "outputs": [],
      "stateMutability": "nonpayable",
      "type": "function"
    },
    {
      "inputs": [
        {
          "internalType": "uint256",
          "name": "value",
          "type": "uint256"
        }
      ],
      "name": "burn",
      "outputs": [],
      "stateMutability": "nonpayable",
      "type": "function"
    },
    {
      "inputs": [
        {
          "internalType": "address",
          "name": "account",
          "type": "address"
        },
        {
          "internalType": "uint256",
          "name": "value",
          "type": "uint256"
        }
      ],
      "name": "burnFrom",
      "outputs": [],
      "stateMutability": "nonpayable",
      "type": "function"
    },
    {
      "inputs": [
        {
          "internalType": "address",
          "name": "account",
          "type": "address"
        }
      ],
      "name": "canMint",
      "outputs": [
        {
          "internalType": "bool",
          "name": "",
          "type": "bool"
        }
      ],
      "stateMutability": "view",
      "type": "function"
    },
    {
      "inputs": [],
      "name": "decimals",
      "outputs": [
        {
          "internalType": "uint8",
          "name": "",
          "type": "uint8"
        }
      ],
      "stateMutability": "view",
      "type": "function"
    },
    {
      "inputs": [
        {
          "internalType": "address",
          "name": "account",
          "type": "address"
        }
      ],
      "name": "getVotingPower",
      "outputs": [
        {
          "internalType": "uint256",
          "name": "",
          "type": "uint256"
        }
      ],
      "stateMutability": "view",
      "type": "function"
    },
    {
      "inputs": [
        {
          "internalType": "address",
          "name": "to",
          "type": "address"
        },
        {
          "internalType": "uint256",
          "name": "amount",
          "type": "uint256"
        }
      ],
      "name": "mint",
      "outputs": [],
      "stateMutability": "nonpayable",
      "type": "function"
    },
    {
      "inputs": [
        {
          "internalType": "address",
          "name": "",
          "type": "address"
        }
      ],
      "name": "minters",
      "outputs": [
        {
          "internalType": "bool",
          "name": "",
          "type": "bool"
        }
      ],
      "stateMutability": "view",
      "type": "function"
    },
    {
      "inputs": [],
      "name": "name",
      "outputs": [
        {
          "internalType": "string",
          "name": "",
          "type": "string"
        }
      ],
      "stateMutability": "view",
      "type": "function"
    },
    {
      "inputs": [],
      "name": "owner",
      "outputs": [
        {
          "internalType": "address",
          "name": "",
          "type": "address"
        }
      ],
      "stateMutability": "view",
      "type": "function"
    },
    {
      "inputs": [
        {
          "internalType": "address",
          "name": "minter",
          "type": "address"
        }
      ],
      "name": "removeMinter",
      "outputs": [],
      "stateMutability": "nonpayable",
      "type": "function"
    },
    {
      "inputs": [],
      "name": "renounceOwnership",
      "outputs": [],
      "stateMutability": "nonpayable",
      "type": "function"
    },
    {
      "inputs": [],
      "name": "symbol",
      "outputs": [
        {
          "internalType": "string",
          "name": "",
          "type": "string"
        }
      ],
      "stateMutability": "view",
      "type": "function"
    },
    {
      "inputs": [],
      "name": "totalSupply",
      "outputs": [
        {
          "internalType": "uint256",
          "name": "",
          "type": "uint256"
        }
      ],
      "stateMutability": "view",
      "type": "function"
    },
    {
      "inputs": [
        {
          "internalType": "address",
          "name": "to",
          "type": "address"
        },
        {
          "internalType": "uint256",
          "name": "value",
          "type": "uint256"
        }
      ],
      "name": "transfer",
      "outputs": [
        {
          "internalType": "bool",
          "name": "",
          "type": "bool"
        }
      ],
      "stateMutability": "nonpayable",
      "type": "function"
    },
    {
      "inputs": [
        {
          "internalType": "address",
          "name": "from",
          "type": "address"
        },
        {
          "internalType": "address",
          "name": "to",
          "type": "address"
        },
        {
          "internalType": "uint256",
          "name": "value",
          "type": "uint256"
        }
      ],
      "name": "transferFrom",
      "outputs": [
        {
          "internalType": "bool",
          "name": "",
          "type": "bool"
        }
      ],
      "stateMutability": "nonpayable",
      "type": "function"
    },
    {
      "inputs": [
        {
          "internalType": "address",
          "name": "newOwner",
          "type": "address"
        }
      ],
      "name": "transferOwnership",
      "outputs": [],
      "stateMutability": "nonpayable",
      "type": "function"
    }
  ],
  "bytecode": "0x608060405234801561001057600080fd5b506040516115c03803806115c083398101604081905261002f91610312565b808383600361003e8382610426565b50600461004b8282610426565b5050506001600160a01b03811661007d57604051631e4fbdf760e01b8152600060048201526024015b60405180910390fd5b610086816100a3565b5061009b8169152d02c7e14af68000006100f5565b50505061050b565b600580546001600160a01b038381166001600160a01b0319831681179093556040519116919082907f8be0079c531659141344cd1fd0a4f28419497f9722a3daafe3b4186f6b6457e090600090a35050565b6001600160a01b03821661011f5760405163ec442f0560e01b815260006004820152602401610074565b61012b6000838361012f565b5050565b6001600160a01b03831661015a57806002600082825461014f91906104e4565b909155506101cc9050565b6001600160a01b038316600090815260208190526040902054818110156101ad5760405163391434e360e21b81526001600160a01b03851660048201526024810182905260448101839052606401610074565b6001600160a01b03841660009081526020819052604090209082900390555b6001600160a01b0382166101e857600280548290039055610207565b6001600160a01b03821660009081526020819052604090208054820190555b816001600160a01b0316836001600160a01b03167fddf252ad1be2c89b69c2b068fc378daa952ba7f163c4a11628f55a4df523b3ef8360405161024c91815260200190565b60405180910390a3505050565b634e487b7160e01b600052604160045260246000fd5b600082601f83011261028057600080fd5b81516001600160401b0381111561029957610299610259565b604051601f8201601f19908116603f011681016001600160401b03811182821017156102c7576102c7610259565b6040528181528382016020018510156102df57600080fd5b60005b828110156102fe576020818601810151838301820152016102e2565b506000918101602001919091529392505050565b60008060006060848603121561032757600080fd5b83516001600160401b0381111561033d57600080fd5b6103498682870161026f565b602086015190945090506001600160401b0381111561036757600080fd5b6103738682870161026f565b604086015190935090506001600160a01b038116811461039257600080fd5b809150509250925092565b600181811c908216806103b157607f821691505b6020821081036103d157634e487b7160e01b600052602260045260246000fd5b50919050565b601f82111561042157806000526020600020601f840160051c810160208510156103fe5750805b601f840160051c820191505b8181101561041e576000815560010161040a565b50505b505050565b81516001600160401b0381111561043f5761043f610259565b6104538161044d845461039d565b846103d7565b6020601f821160018114610487576000831561046f5750848201515b600019600385901b1c1916600184901b17845561041e565b600084815260208120601f198516915b828110156104b75787850151825560209485019460019092019101610497565b50848210156104d55786840151600019600387901b60f8161c191681555b50505050600190811b01905550565b8082018082111561050557634e487b7160e01b600052601160045260246000fd5b92915050565b6110a68061051a6000396000f3fe608060405234801561001057600080fd5b506004361061014d5760003560e01c806370a08231116100c3578063a9059cbb1161007c578063a9059cbb146102b1578063bb4d4436146102c4578063c2ba4744146102d7578063dd62ed3e146102ea578063f2fde38b14610323578063f46eccc41461033657600080fd5b806370a0823114610237578063715018a61461026057806379cc6790146102685780638da5cb5b1461027b57806395d89b4114610296578063983b2d561461029e57600080fd5b80633092afd5116101155780633092afd5146101c9578063313ce567146101de57806332cb6b0c146101ed57806340c10f19146101fe57806342966c6814610211578063685731071461022457600080fd5b806306fdde0314610152578063095ea7b31461017057806318160ddd1461019357806323b872dd146101a55780632ff2e9dc146101b8575b600080fd5b61015a610359565b6040516101679190610e03565b60405180910390f35b61018361017e366004610e6d565b6103eb565b6040519015158152602001610167565b6002545b604051908152602001610167565b6101836101b3366004610e97565b610405565b61019769152d02c7e14af680000081565b6101dc6101d7366004610ed4565b610429565b005b60405160128152602001610167565b61019769d3c21bcecceda100000081565b6101dc61020c366004610e6d565b6104d6565b6101dc61021f366004610ef6565b61060e565b6101dc610232366004610f5b565b61061b565b610197610245366004610ed4565b6001600160a01b031660009081526020819052604090205490565b6101dc610854565b6101dc610276366004610e6d565b610868565b6005546040516001600160a01b039091168152602001610167565b61015a61087d565b6101dc6102ac366004610ed4565b61088c565b6101836102bf366004610e6d565b61098b565b6101976102d2366004610ed4565b610999565b6101836102e5366004610ed4565b6109b7565b6101976102f8366004610fcc565b6001600160a01b03918216600090815260016020908152604080832093909416825291909152205490565b6101dc610331366004610ed4565b6109ee565b610183610344366004610ed4565b60066020526000908152604090205460ff1681565b60606003805461036890610fff565b80601f016020809104026020016040519081016040528092919081815260200182805461039490610fff565b80156103e15780601f106103b6576101008083540402835291602001916103e1565b820191906000526020600020905b8154815290600101906020018083116103c457829003601f168201915b5050505050905090565b6000336103f9818585610a29565b60019150505b92915050565b600033610413858285610a3b565b61041e858585610aba565b506001949350505050565b610431610b19565b6001600160a01b03811660009081526006602052604090205460ff1661048d5760405162461bcd60e51b815260206004820152600c60248201526b2737ba10309036b4b73a32b960a11b60448201526064015b60405180910390fd5b6001600160a01b038116600081815260066020526040808220805460ff19169055517fe94479a9f7e1952cc78f2d6baab678adc1b772d936c6583def489e524cb666929190a250565b3360009081526006602052604090205460ff16806104fe57506005546001600160a01b031633145b6105435760405162461bcd60e51b8152602060048201526016602482015275139bdd08185d5d1a1bdc9a5e9959081d1bc81b5a5b9d60521b6044820152606401610484565b6001600160a01b0382166105995760405162461bcd60e51b815260206004820152601b60248201527f43616e6e6f74206d696e7420746f207a65726f206164647265737300000000006044820152606401610484565b69d3c21bcecceda1000000816105ae60025490565b6105b89190611039565b11156106005760405162461bcd60e51b8152602060048201526017602482015276576f756c6420657863656564206d617820737570706c7960481b6044820152606401610484565b61060a8282610b46565b5050565b6106183382610b7c565b50565b3360009081526006602052604090205460ff168061064357506005546001600160a01b031633145b6106885760405162461bcd60e51b8152602060048201526016602482015275139bdd08185d5d1a1bdc9a5e9959081d1bc81b5a5b9d60521b6044820152606401610484565b8281146106d05760405162461bcd60e51b8152602060048201526016602482015275082e4e4c2f2e640d8cadccee8d040dad2e6dac2e8c6d60531b6044820152606401610484565b6000805b8281101561070a578383828181106106ee576106ee61105a565b90506020020135826107009190611039565b91506001016106d4565b5069d3c21bcecceda10000008161072060025490565b61072a9190611039565b11156107725760405162461bcd60e51b8152602060048201526017602482015276576f756c6420657863656564206d617820737570706c7960481b6044820152606401610484565b60005b8481101561084c5760008686838181106107915761079161105a565b90506020020160208101906107a69190610ed4565b6001600160a01b0316036107fc5760405162461bcd60e51b815260206004820152601b60248201527f43616e6e6f74206d696e7420746f207a65726f206164647265737300000000006044820152606401610484565b6108448686838181106108115761081161105a565b90506020020160208101906108269190610ed4565b8585848181106108385761083861105a565b90506020020135610b46565b600101610775565b505050505050565b61085c610b19565b6108666000610bb2565b565b610873823383610a3b565b61060a8282610b7c565b60606004805461036890610fff565b610894610b19565b6001600160a01b0381166108e35760405162461bcd60e51b8152602060048201526016602482015275496e76616c6964206d696e746572206164647265737360501b6044820152606401610484565b6001600160a01b03811660009081526006602052604090205460ff161561093f5760405162461bcd60e51b815260206004820152601060248201526f20b63932b0b23c90309036b4b73a32b960811b6044820152606401610484565b6001600160a01b038116600081815260066020526040808220805460ff19166001179055517f6ae172837ea30b801fbfcdd4108aa1d5bf8ff775444fd70256b44e6bf3dfc3f69190a250565b6000336103f9818585610aba565b6001600160a01b0381166000908152602081905260408120546103ff565b6001600160a01b03811660009081526006602052604081205460ff16806103ff5750506005546001600160a01b0391821691161490565b6109f6610b19565b6001600160a01b038116610a2057604051631e4fbdf760e01b815260006004820152602401610484565b61061881610bb2565b610a368383836001610c04565b505050565b6001600160a01b03838116600090815260016020908152604080832093861683529290522054600019811015610ab45781811015610aa557604051637dc7a0d960e11b81526001600160a01b03841660048201526024810182905260448101839052606401610484565b610ab484848484036000610c04565b50505050565b6001600160a01b038316610ae457604051634b637e8f60e11b815260006004820152602401610484565b6001600160a01b038216610b0e5760405163ec442f0560e01b815260006004820152602401610484565b610a36838383610cd9565b6005546001600160a01b031633146108665760405163118cdaa760e01b8152336004820152602401610484565b6001600160a01b038216610b705760405163ec442f0560e01b815260006004820152602401610484565b61060a60008383610cd9565b6001600160a01b038216610ba657604051634b637e8f60e11b815260006004820152602401610484565b61060a82600083610cd9565b600580546001600160a01b038381166001600160a01b0319831681179093556040519116919082907f8be0079c531659141344cd1fd0a4f28419497f9722a3daafe3b4186f6b6457e090600090a35050565b6001600160a01b038416610c2e5760405163e602df0560e01b815260006004820152602401610484565b6001600160a01b038316610c5857604051634a1406b160e11b815260006004820152602401610484565b6001600160a01b0380851660009081526001602090815260408083209387168352929052208290558015610ab457826001600160a01b0316846001600160a01b03167f8c5be1e5ebec7d5bd14f71427d1e84f3dd0314c0f7b2291e5b200ac8c7c3b92584604051610ccb91815260200190565b60405180910390a350505050565b6001600160a01b038316610d04578060026000828254610cf99190611039565b90915550610d769050565b6001600160a01b03831660009081526020819052604090205481811015610d575760405163391434e360e21b81526001600160a01b03851660048201526024810182905260448101839052606401610484565b6001600160a01b03841660009081526020819052604090209082900390555b6001600160a01b038216610d9257600280548290039055610db1565b6001600160a01b03821660009081526020819052604090208054820190555b816001600160a01b0316836001600160a01b03167fddf252ad1be2c89b69c2b068fc378daa952ba7f163c4a11628f55a4df523b3ef83604051610df691815260200190565b60405180910390a3505050565b602081526000825180602084015260005b81811015610e315760208186018101516040868401015201610e14565b506000604082850101526040601f19601f83011684010191505092915050565b80356001600160a01b0381168114610e6857600080fd5b919050565b60008060408385031215610e8057600080fd5b610e8983610e51565b946020939093013593505050565b600080600060608486031215610eac57600080fd5b610eb584610e51565b9250610ec360208501610e51565b929592945050506040919091013590565b600060208284031215610ee657600080fd5b610eef82610e51565b9392505050565b600060208284031215610f0857600080fd5b5035919050565b60008083601f840112610f2157600080fd5b50813567ffffffffffffffff811115610f3957600080fd5b6020830191508360208260051b8501011115610f5457600080fd5b9250929050565b60008060008060408587031215610f7157600080fd5b843567ffffffffffffffff811115610f8857600080fd5b610f9487828801610f0f565b909550935050602085013567ffffffffffffffff811115610fb457600080fd5b610fc087828801610f0f565b95989497509550505050565b60008060408385031215610fdf57600080fd5b610fe883610e51565b9150610ff660208401610e51565b90509250929050565b600181811c9082168061101357607f821691505b60208210810361103357634e487b7160e01b600052602260045260246000fd5b50919050565b808201808211156103ff57634e487b7160e01b600052601160045260246000fd5b634e487b7160e01b600052603260045260246000fdfea2646970667358221220fca1c0c3f6fe51cfe3f92c1b312a7ca05eccbbf2883fb6a07e2501300aa35f5964736f6c634300081c0033",
  "linkReferences": {},
  "deployedLinkReferences": {}
}