{
  "_format": "hh-sol-artifact-1",
  "contractName": "PrivateDAOVoting",
  "sourceName": "contracts/core/PrivateDAOVoting.sol",
  "abi": [
    {
      "inputs": [
        {
          "internalType": "address",
          "name": "_verifier",
          "type": "address"
        },
        {
          "internalType": "address",
          "name": "_reputationManager",
          "type": "address"
        },
        {
          "internalType": "address",
          "name": "initialOwner",
          "type": "address"
        }
      ],
      "stateMutability": "nonpayable",
      "type": "constructor"
    },
    {
      "inputs": [
        {
          "internalType": "address",
          "name": "owner",
          "type": "address"
        }
      ],
      "name": "OwnableInvalidOwner",
      "type": "error"
    },
    {
      "inputs": [
        {
          "internalType": "address",
          "name": "account",
          "type": "address"
        }
      ],
      "name": "OwnableUnauthorizedAccount",
      "type": "error"
    },
    {
      "inputs": [],
      "name": "ReentrancyGuardReentrantCall",
      "type": "error"
    },
    {
      "anonymous": false,
      "inputs": [
        {
          "indexed": true,
          "internalType": "address",
          "name": "newRegistry",
          "type": "address"
        }
      ],
      "name": "DIDRegistryUpdated",
      "type": "event"
    },
    {
      "anonymous": false,
      "inputs": [
        {
          "indexed": true,
          "internalType": "address",
          "name": "previousOwner",
          "type": "address"
        },
        {
          "indexed": true,
          "internalType": "address",
          "name": "newOwner",
          "type": "address"
        }
      ],
      "name": "OwnershipTransferred",
      "type": "event"
    },
    {
      "anonymous": false,
      "inputs": [
        {
          "indexed": true,
          "internalType": "uint256",
          "name": "proposalId",
          "type": "uint256"
        },
        {
          "indexed": true,
          "internalType": "bytes32",
          "name": "nullifier",
          "type": "bytes32"
        },
        {
          "indexed": false,
          "internalType": "bool",
          "name": "support",
          "type": "bool"
        }
      ],
      "name": "PrivateVoteCast",
      "type": "event"
    },
    {
      "anonymous": false,
      "inputs": [
        {
          "indexed": true,
          "internalType": "uint256",
          "name": "proposalId",
          "type": "uint256"
        },
        {
          "indexed": true,
          "internalType": "address",
          "name": "proposer",
          "type": "address"
        },
        {
          "indexed": false,
          "internalType": "string",
          "name": "title",
          "type": "string"
        },
        {
          "indexed": false,
          "internalType": "bytes32",
          "name": "voterSetRoot",
          "type": "bytes32"
        },
        {
          "indexed": false,
          "internalType": "uint256",
          "name": "minReputationRequired",
          "type": "uint256"
        }
      ],
      "name": "ProposalCreated",
      "type": "event"
    },
    {
      "anonymous": false,
      "inputs": [
        {
          "indexed": true,
          "internalType": "uint256",
          "name": "proposalId",
          "type": "uint256"
        },
        {
          "indexed": false,
          "internalType": "enum PrivateDAOVoting.ProposalState",
          "name": "newState",
          "type": "uint8"
        }
      ],
      "name": "ProposalStateChanged",
      "type": "event"
    },
    {
      "anonymous": false,
      "inputs": [
        {
          "indexed": true,
          "internalType": "bytes32",
          "name": "commitment",
          "type": "bytes32"
        }
      ],
      "name": "VoterRegistered",
      "type": "event"
    },
    {
      "anonymous": false,
      "inputs": [
        {
          "indexed": true,
          "internalType": "bytes32",
          "name": "newRoot",
          "type": "bytes32"
        },
        {
          "indexed": false,
          "internalType": "uint256",
          "name": "timestamp",
          "type": "uint256"
        }
      ],
      "name": "VoterSetUpdated",
      "type": "event"
    },
    {
      "inputs": [
        {
          "internalType": "bytes32[]",
          "name": "commitments",
          "type": "bytes32[]"
        }
      ],
      "name": "batchRegisterVoters",
      "outputs": [],
      "stateMutability": "nonpayable",
      "type": "function"
    },
    {
      "inputs": [
        {
          "internalType": "uint256",
          "name": "_proposalId",
          "type": "uint256"
        }
      ],
      "name": "cancelProposal",
      "outputs": [],
      "stateMutability": "nonpayable",
      "type": "function"
    },
    {
      "inputs": [
        {
          "internalType": "uint256",
          "name": "_proposalId",
          "type": "uint256"
        },
        {
          "internalType": "bool",
          "name": "_support",
          "type": "bool"
        },
        {
          "internalType": "bytes32",
          "name": "_nullifier",
          "type": "bytes32"
        },
        {
          "internalType": "uint256[2]",
          "name": "_proof_a",
          "type": "uint256[2]"
        },
        {
          "internalType": "uint256[2][2]",
          "name": "_proof_b",
          "type": "uint256[2][2]"
        },
        {
          "internalType": "uint256[2]",
          "name": "_proof_c",
          "type": "uint256[2]"
        },
        {
          "internalType": "uint256[4]",
          "name": "_publicSignals",
          "type": "uint256[4]"
        }
      ],
      "name": "castPrivateVote",
      "outputs": [],
      "stateMutability": "nonpayable",
      "type": "function"
    },
    {
      "inputs": [],
      "name": "currentVoterSetRoot",
      "outputs": [
        {
          "internalType": "bytes32",
          "name": "",
          "type": "bytes32"
        }
      ],
      "stateMutability": "view",
      "type": "function"
    },
    {
      "inputs": [],
      "name": "didRegistry",
      "outputs": [
        {
          "internalType": "address",
          "name": "",
          "type": "address"
        }
      ],
      "stateMutability": "view",
      "type": "function"
    },
    {
      "inputs": [
        {
          "internalType": "uint256",
          "name": "_proposalId",
          "type": "uint256"
        }
      ],
      "name": "finalizeProposal",
      "outputs": [],
      "stateMutability": "nonpayable",
      "type": "function"
    },
    {
      "inputs": [
        {
          "internalType": "uint256",
          "name": "_proposalId",
          "type": "uint256"
        }
      ],
      "name": "getProposal",
      "outputs": [
        {
          "components": [
            {
              "internalType": "uint256",
              "name": "id",
              "type": "uint256"
            },
            {
              "internalType": "string",
              "name": "title",
              "type": "string"
            },
            {
              "internalType": "string",
              "name": "description",
              "type": "string"
            },
            {
              "internalType": "address",
              "name": "proposer",
              "type": "address"
            },
            {
              "internalType": "uint256",
              "name": "yesVotes",
              "type": "uint256"
            },
            {
              "internalType": "uint256",
              "name": "noVotes",
              "type": "uint256"
            },
            {
              "internalType": "enum PrivateDAOVoting.ProposalState",
              "name": "state",
              "type": "uint8"
            },
            {
              "internalType": "uint256",
              "name": "createdAt",
              "type": "uint256"
            },
            {
              "internalType": "uint256",
              "name": "votingStart",
              "type": "uint256"
            },
            {
              "internalType": "uint256",
              "name": "votingEnd",
              "type": "uint256"
            },
            {
              "internalType": "bytes32",
              "name": "voterSetRoot",
              "type": "bytes32"
            },
            {
              "internalType": "uint256",
              "name": "minReputationRequired",
              "type": "uint256"
            }
          ],
          "internalType": "struct PrivateDAOVoting.Proposal",
          "name": "",
          "type": "tuple"
        }
      ],
      "stateMutability": "view",
      "type": "function"
    },
    {
      "inputs": [
        {
          "internalType": "uint256",
          "name": "_proposalId",
          "type": "uint256"
        },
        {
          "internalType": "bytes32",
          "name": "_nullifier",
          "type": "bytes32"
        }
      ],
      "name": "hasVoted",
      "outputs": [
        {
          "internalType": "bool",
          "name": "",
          "type": "bool"
        }
      ],
      "stateMutability": "view",
      "type": "function"
    },
    {
      "inputs": [
        {
          "internalType": "bytes32",
          "name": "_commitment",
          "type": "bytes32"
        }
      ],
      "name": "isCommitmentRegistered",
      "outputs": [
        {
          "internalType": "bool",
          "name": "",
          "type": "bool"
        }
      ],
      "stateMutability": "view",
      "type": "function"
    },
    {
      "inputs": [
        {
          "internalType": "uint256",
          "name": "",
          "type": "uint256"
        },
        {
          "internalType": "bytes32",
          "name": "",
          "type": "bytes32"
        }
      ],
      "name": "nullifiers",
      "outputs": [
        {
          "internalType": "bool",
          "name": "",
          "type": "bool"
        }
      ],
      "stateMutability": "view",
      "type": "function"
    },
    {
      "inputs": [],
      "name": "owner",
      "outputs": [
        {
          "internalType": "address",
          "name": "",
          "type": "address"
        }
      ],
      "stateMutability": "view",
      "type": "function"
    },
    {
      "inputs": [],
      "name": "proposalCount",
      "outputs": [
        {
          "internalType": "uint256",
          "name": "",
          "type": "uint256"
        }
      ],
      "stateMutability": "view",
      "type": "function"
    },
    {
      "inputs": [
        {
          "internalType": "uint256",
          "name": "",
          "type": "uint256"
        }
      ],
      "name": "proposals",
      "outputs": [
        {
          "internalType": "uint256",
          "name": "id",
          "type": "uint256"
        },
        {
          "internalType": "string",
          "name": "title",
          "type": "string"
        },
        {
          "internalType": "string",
          "name": "description",
          "type": "string"
        },
        {
          "internalType": "address",
          "name": "proposer",
          "type": "address"
        },
        {
          "internalType": "uint256",
          "name": "yesVotes",
          "type": "uint256"
        },
        {
          "internalType": "uint256",
          "name": "noVotes",
          "type": "uint256"
        },
        {
          "internalType": "enum PrivateDAOVoting.ProposalState",
          "name": "state",
          "type": "uint8"
        },
        {
          "internalType": "uint256",
          "name": "createdAt",
          "type": "uint256"
        },
        {
          "internalType": "uint256",
          "name": "votingStart",
          "type": "uint256"
        },
        {
          "internalType": "uint256",
          "name": "votingEnd",
          "type": "uint256"
        },
        {
          "internalType": "bytes32",
          "name": "voterSetRoot",
          "type": "bytes32"
        },
        {
          "internalType": "uint256",
          "name": "minReputationRequired",
          "type": "uint256"
        }
      ],
      "stateMutability": "view",
      "type": "function"
    },
    {
      "inputs": [],
      "name": "quorumPercentage",
      "outputs": [
        {
          "internalType": "uint256",
          "name": "",
          "type": "uint256"
        }
      ],
      "stateMutability": "view",
      "type": "function"
    },
    {
      "inputs": [
        {
          "internalType": "bytes32",
          "name": "commitment",
          "type": "bytes32"
        }
      ],
      "name": "registerVoter",
      "outputs": [],
      "stateMutability": "nonpayable",
      "type": "function"
    },
    {
      "inputs": [],
      "name": "renounceOwnership",
      "outputs": [],
      "stateMutability": "nonpayable",
      "type": "function"
    },
    {
      "inputs": [],
      "name": "reputationManager",
      "outputs": [
        {
          "internalType": "contract IReputationManager",
          "name": "",
          "type": "address"
        }
      ],
      "stateMutability": "view",
      "type": "function"
    },
    {
      "inputs": [
        {
          "internalType": "address",
          "name": "_didRegistry",
          "type": "address"
        }
      ],
      "name": "setDIDRegistry",
      "outputs": [],
      "stateMutability": "nonpayable",
      "type": "function"
    },
    {
      "inputs": [
        {
          "internalType": "uint256",
          "name": "_proposalId",
          "type": "uint256"
        }
      ],
      "name": "startVoting",
      "outputs": [],
      "stateMutability": "nonpayable",
      "type": "function"
    },
    {
      "inputs": [
        {
          "internalType": "string",
          "name": "_title",
          "type": "string"
        },
        {
          "internalType": "string",
          "name": "_description",
          "type": "string"
        },
        {
          "internalType": "uint256",
          "name": "_minReputationRequired",
          "type": "uint256"
        }
      ],
      "name": "submitProposal",
      "outputs": [],
      "stateMutability": "nonpayable",
      "type": "function"
    },
    {
      "inputs": [
        {
          "internalType": "address",
          "name": "newOwner",
          "type": "address"
        }
      ],
      "name": "transferOwnership",
      "outputs": [],
      "stateMutability": "nonpayable",
      "type": "function"
    },
    {
      "inputs": [
        {
          "internalType": "bytes32",
          "name": "newRoot",
          "type": "bytes32"
        }
      ],
      "name": "updateVoterSetRoot",
      "outputs": [],
      "stateMutability": "nonpayable",
      "type": "function"
    },
    {
      "inputs": [],
      "name": "verifier",
      "outputs": [
        {
          "internalType": "contract Groth16Verifier",
          "name": "",
          "type": "address"
        }
      ],
      "stateMutability": "view",
      "type": "function"
    },
    {
      "inputs": [
        {
          "internalType": "bytes32",
          "name": "",
          "type": "bytes32"
        }
      ],
      "name": "voterCommitments",
      "outputs": [
        {
          "internalType": "bool",
          "name": "",
          "type": "bool"
        }
      ],
      "stateMutability": "view",
      "type": "function"
    },
    {
      "inputs": [],
      "name": "votingDelay",
      "outputs": [
        {
          "internalType": "uint256",
          "name": "",
          "type": "uint256"
        }
      ],
      "stateMutability": "view",
      "type": "function"
    },
    {
      "inputs": [],
      "name": "votingPeriod",
      "outputs": [
        {
          "internalType": "uint256",
          "name": "",
          "type": "uint256"
        }
      ],
      "stateMutability": "view",
      "type": "function"
    }
  ],
  "bytecode": "0x6080604052610e1060095562093a80600a556028600b5534801561002257600080fd5b506040516120f03803806120f0833981016040819052610041916101d4565b806001600160a01b03811661007157604051631e4fbdf760e01b8152600060048201526024015b60405180910390fd5b61007a81610168565b50600180556001600160a01b0383166100d55760405162461bcd60e51b815260206004820152601860248201527f496e76616c6964207665726966696572206164647265737300000000000000006044820152606401610068565b6001600160a01b0382166101365760405162461bcd60e51b815260206004820152602260248201527f496e76616c69642072657075746174696f6e206d616e61676572206164647265604482015261737360f01b6064820152608401610068565b50600280546001600160a01b039384166001600160a01b03199182161790915560038054929093169116179055610217565b600080546001600160a01b038381166001600160a01b0319831681178455604051919092169283917f8be0079c531659141344cd1fd0a4f28419497f9722a3daafe3b4186f6b6457e09190a35050565b80516001600160a01b03811681146101cf57600080fd5b919050565b6000806000606084860312156101e957600080fd5b6101f2846101b8565b9250610200602085016101b8565b915061020e604085016101b8565b90509250925092565b611eca806102266000396000f3fe608060405234801561001057600080fd5b506004361061018e5760003560e01c8063793c5d21116100de578063d0c2a60911610097578063e0a8f6f511610071578063e0a8f6f51461037c578063f186879b1461038f578063f19ea903146103a2578063f2fde38b146103d057600080fd5b8063d0c2a60914610347578063d249f4311461036a578063da35c6641461037357600080fd5b8063793c5d21146102ca5780638da5cb5b146102dd5780638fca9fac146102ee578063ba8554c714610301578063c55696b814610314578063c7f758a81461032757600080fd5b80635652077c1161014b5780636b868afb116101255780636b868afb1461028957806371015e0a1461029c578063715018a6146102af57806374417bf4146102b757600080fd5b80635652077c14610230578063577f9fb114610243578063620b53051461025657600080fd5b8063013cf08b1461019357806302a251a3146101c75780632b7ac3f3146101de5780633932abb1146102095780633d2f5bda146102125780634fa76ec914610227575b600080fd5b6101a66101a13660046116b3565b6103e3565b6040516101be9c9b9a9998979695949392919061174a565b60405180910390f35b6101d0600a5481565b6040519081526020016101be565b6002546101f1906001600160a01b031681565b6040516001600160a01b0390911681526020016101be565b6101d060095481565b6102256102203660046116b3565b61055f565b005b6101d0600b5481565b61022561023e3660046116b3565b610656565b6004546101f1906001600160a01b031681565b6102796102643660046116b3565b60009081526007602052604090205460ff1690565b60405190151581526020016101be565b6003546101f1906001600160a01b031681565b6102256102aa3660046117d7565b6107b0565b610225610858565b6102796102c5366004611807565b61086c565b6102256102d83660046116b3565b610890565b6000546001600160a01b03166101f1565b6102256102fc3660046116b3565b6109d5565b61022561030f3660046118e0565b610a56565b610225610322366004611953565b610d30565b61033a6103353660046116b3565b610e69565b6040516101be91906119ca565b6102796103553660046116b3565b60076020526000908152604090205460ff1681565b6101d0600c5481565b6101d060085481565b61022561038a3660046116b3565b611050565b61022561039d366004611b2e565b61117e565b6102796103b0366004611807565b600660209081526000928352604080842090915290825290205460ff1681565b6102256103de3660046117d7565b611550565b6005602052600090815260409020805460018201805491929161040590611bf7565b80601f016020809104026020016040519081016040528092919081815260200182805461043190611bf7565b801561047e5780601f106104535761010080835404028352916020019161047e565b820191906000526020600020905b81548152906001019060200180831161046157829003601f168201915b50505050509080600201805461049390611bf7565b80601f01602080910402602001604051908101604052809291908181526020018280546104bf90611bf7565b801561050c5780601f106104e15761010080835404028352916020019161050c565b820191906000526020600020905b8154815290600101906020018083116104ef57829003601f168201915b50505060038401546004850154600586015460068701546007880154600889015460098a0154600a8b0154600b909b0154999a6001600160a01b039097169995985093965060ff9092169490939192918c565b600081815260056020526040812090600682015460ff16600581111561058757610587611712565b146105c75760405162461bcd60e51b815260206004820152600b60248201526a4e6f742070656e64696e6760a81b60448201526064015b60405180910390fd5b80600801544210156106075760405162461bcd60e51b8152602060048201526009602482015268546f6f206561726c7960b81b60448201526064016105be565b60068101805460ff1916600190811790915560405183917fd6b3a81dd8b7dc419d8d0f20797397ea2eaba914386b89898aa638438803a1ec9161064a9190611c31565b60405180910390a25050565b60008181526005602052604090206001600682015460ff16600581111561067f5761067f611712565b146106b95760405162461bcd60e51b815260206004820152600a6024820152694e6f742061637469766560b01b60448201526064016105be565b806009015442116106f85760405162461bcd60e51b8152602060048201526009602482015268139bdd08195b99195960ba1b60448201526064016105be565b60008160050154826004015461070e9190611c55565b905080600003610734576006820180546003919060ff19166001835b021790555061076a565b81600501548260040154111561075a576006820180546002919060ff191660018361072a565b60068201805460ff191660031790555b600682015460405184917fd6b3a81dd8b7dc419d8d0f20797397ea2eaba914386b89898aa638438803a1ec916107a39160ff1690611c31565b60405180910390a2505050565b6107b861158e565b6001600160a01b03811661080e5760405162461bcd60e51b815260206004820152601860248201527f496e76616c69642072656769737472792061646472657373000000000000000060448201526064016105be565b600480546001600160a01b0319166001600160a01b0383169081179091556040517f157ccc8b25cb42c7ec2e5d88024e7c10238cd86f07776d1d55174cbf6ee4f59290600090a250565b61086061158e565b61086a60006115bb565b565b600082815260066020908152604080832084845290915290205460ff165b92915050565b6004546001600160a01b031633146108fc5760405162461bcd60e51b815260206004820152602960248201527f43616c6c6572206973206e6f742074686520617574686f72697a65642044494460448201526820526567697374727960b81b60648201526084016105be565b8061093e5760405162461bcd60e51b8152602060048201526012602482015271125b9d985b1a590818dbdb5b5a5d1b595b9d60721b60448201526064016105be565b60008181526007602052604090205460ff16156109925760405162461bcd60e51b8152602060048201526012602482015271105b1c9958591e481c9959da5cdd195c995960721b60448201526064016105be565b600081815260076020526040808220805460ff191660011790555182917fe1e93aab4d6cae623ae197f9c4d63ac5eede4c69f9d0fbc92e4dbb0766abd11591a250565b6109dd61158e565b80610a195760405162461bcd60e51b815260206004820152600c60248201526b125b9d985b1a59081c9bdbdd60a21b60448201526064016105be565b600c81905560405142815281907f9dc79e6d56752c3d9c2ed7457371e9dc454a01492ed011e981bfdef6975da5469060200160405180910390a250565b610a5e61160b565b6000835111610aa05760405162461bcd60e51b815260206004820152600e60248201526d151a5d1b19481c995c5d5a5c995960921b60448201526064016105be565b6000825111610ae85760405162461bcd60e51b815260206004820152601460248201527311195cd8dc9a5c1d1a5bdb881c995c5d5a5c995960621b60448201526064016105be565b600c54610b375760405162461bcd60e51b815260206004820152601960248201527f566f74657220736574206e6f7420696e697469616c697a65640000000000000060448201526064016105be565b60088054906000610b4783611c68565b9190505550600060095442610b5c9190611c55565b90506000600a5482610b6e9190611c55565b90506040518061018001604052806008548152602001868152602001858152602001336001600160a01b03168152602001600081526020016000815260200160006005811115610bc057610bc0611712565b8152602001428152602001838152602001828152602001600c54815260200184815250600560006008548152602001908152602001600020600082015181600001556020820151816001019081610c179190611ccf565b5060408201516002820190610c2c9082611ccf565b5060608201518160030160006101000a8154816001600160a01b0302191690836001600160a01b031602179055506080820151816004015560a0820151816005015560c08201518160060160006101000a81548160ff02191690836005811115610c9857610c98611712565b021790555060e082015181600701556101008201518160080155610120820151816009015561014082015181600a015561016082015181600b0155905050336001600160a01b03166008547f3c9679db2e099dbc1b8385d8d908b60224acb3acb7d4e5d4501b73c102472b5487600c5487604051610d1893929190611d8e565b60405180910390a35050610d2b60018055565b505050565b610d3861158e565b60005b81811015610d2b576000838383818110610d5757610d57611db3565b9050602002013503610da05760405162461bcd60e51b8152602060048201526012602482015271125b9d985b1a590818dbdb5b5a5d1b595b9d60721b60448201526064016105be565b60076000848484818110610db657610db6611db3565b602090810292909201358352508101919091526040016000205460ff16610e6157600160076000858585818110610def57610def611db3565b90506020020135815260200190815260200160002060006101000a81548160ff021916908315150217905550828282818110610e2d57610e2d611db3565b905060200201357fe1e93aab4d6cae623ae197f9c4d63ac5eede4c69f9d0fbc92e4dbb0766abd11560405160405180910390a25b600101610d3b565b610e71611635565b600560008381526020019081526020016000206040518061018001604052908160008201548152602001600182018054610eaa90611bf7565b80601f0160208091040260200160405190810160405280929190818152602001828054610ed690611bf7565b8015610f235780601f10610ef857610100808354040283529160200191610f23565b820191906000526020600020905b815481529060010190602001808311610f0657829003601f168201915b50505050508152602001600282018054610f3c90611bf7565b80601f0160208091040260200160405190810160405280929190818152602001828054610f6890611bf7565b8015610fb55780601f10610f8a57610100808354040283529160200191610fb5565b820191906000526020600020905b815481529060010190602001808311610f9857829003601f168201915b505050918352505060038201546001600160a01b03166020820152600482015460408201526005808301546060830152600683015460809092019160ff169081111561100357611003611712565b600581111561101457611014611712565b8152600782015460208201526008820154604082015260098201546060820152600a8201546080820152600b9091015460a09091015292915050565b600081815260056020526040902060038101546001600160a01b031633148061108357506000546001600160a01b031633145b6110c05760405162461bcd60e51b815260206004820152600e60248201526d139bdd08185d5d1a1bdc9a5e995960921b60448201526064016105be565b6000600682015460ff1660058111156110db576110db611712565b14806110ff57506001600682015460ff1660058111156110fd576110fd611712565b145b61113b5760405162461bcd60e51b815260206004820152600d60248201526c10d85b9b9bdd0818d85b98d95b609a1b60448201526064016105be565b60068101805460ff1916600590811790915560405183917fd6b3a81dd8b7dc419d8d0f20797397ea2eaba914386b89898aa638438803a1ec9161064a9190611c31565b61118661160b565b60008781526005602052604090206001600682015460ff1660058111156111af576111af611712565b146111e95760405162461bcd60e51b815260206004820152600a6024820152694e6f742061637469766560b01b60448201526064016105be565b806008015442101561122b5760405162461bcd60e51b815260206004820152600b60248201526a139bdd081cdd185c9d195960aa1b60448201526064016105be565b80600901544211156112675760405162461bcd60e51b8152602060048201526005602482015264115b99195960da1b60448201526064016105be565b600088815260066020908152604080832089845290915290205460ff16156112c15760405162461bcd60e51b815260206004820152600d60248201526c105b1c9958591e481d9bdd1959609a1b60448201526064016105be565b815186146113065760405162461bcd60e51b815260206004820152601260248201527109cead8d8d2ccd2cae440dad2e6dac2e8c6d60731b60448201526064016105be565b6020820151600a8201541461134c5760405162461bcd60e51b815260206004820152600c60248201526b125b9d985b1a59081c9bdbdd60a21b60448201526064016105be565b604082015188146113955760405162461bcd60e51b8152602060048201526013602482015272125b9d985b1a59081c1c9bdc1bdcd85b081251606a1b60448201526064016105be565b6060820151876113a65760006113a9565b60015b60ff16146113ef5760405162461bcd60e51b8152602060048201526013602482015272496e76616c696420766f74652063686f69636560681b60448201526064016105be565b600254604051635fe8c13b60e01b81526001600160a01b0390911690635fe8c13b90611425908890889088908890600401611df2565b602060405180830381865afa158015611442573d6000803e3d6000fd5b505050506040513d601f19601f820116820180604052508101906114669190611e77565b6114a25760405162461bcd60e51b815260206004820152600d60248201526c24b73b30b634b210383937b7b360991b60448201526064016105be565b60008881526006602090815260408083208984529091529020805460ff1916600117905586156114e8576004810180549060006114de83611c68565b9190505550611500565b6005810180549060006114fa83611c68565b91905055505b85887f75487a8ccdee2b2c115434c90dda155352df8a832b9d1ffd673623ef0575903d89604051611535911515815260200190565b60405180910390a35061154760018055565b50505050505050565b61155861158e565b6001600160a01b03811661158257604051631e4fbdf760e01b8152600060048201526024016105be565b61158b816115bb565b50565b6000546001600160a01b0316331461086a5760405163118cdaa760e01b81523360048201526024016105be565b600080546001600160a01b038381166001600160a01b0319831681178455604051919092169283917f8be0079c531659141344cd1fd0a4f28419497f9722a3daafe3b4186f6b6457e09190a35050565b60026001540361162e57604051633ee5aeb560e01b815260040160405180910390fd5b6002600155565b60405180610180016040528060008152602001606081526020016060815260200160006001600160a01b0316815260200160008152602001600081526020016000600581111561168757611687611712565b815260200160008152602001600081526020016000815260200160008019168152602001600081525090565b6000602082840312156116c557600080fd5b5035919050565b6000815180845260005b818110156116f2576020818501810151868301820152016116d6565b506000602082860101526020601f19601f83011685010191505092915050565b634e487b7160e01b600052602160045260246000fd5b6006811061174657634e487b7160e01b600052602160045260246000fd5b9052565b8c81526101806020820152600061176561018083018e6116cc565b8281036040840152611777818e6116cc565b6001600160a01b038d166060850152608084018c905260a084018b905291506117a5905060c0830189611728565b60e082019690965261010081019490945261012084019290925261014083015261016090910152979650505050505050565b6000602082840312156117e957600080fd5b81356001600160a01b038116811461180057600080fd5b9392505050565b6000806040838503121561181a57600080fd5b50508035926020909101359150565b634e487b7160e01b600052604160045260246000fd5b604051601f8201601f1916810167ffffffffffffffff8111828210171561186857611868611829565b604052919050565b600082601f83011261188157600080fd5b813567ffffffffffffffff81111561189b5761189b611829565b6118ae601f8201601f191660200161183f565b8181528460208386010111156118c357600080fd5b816020850160208301376000918101602001919091529392505050565b6000806000606084860312156118f557600080fd5b833567ffffffffffffffff81111561190c57600080fd5b61191886828701611870565b935050602084013567ffffffffffffffff81111561193557600080fd5b61194186828701611870565b93969395505050506040919091013590565b6000806020838503121561196657600080fd5b823567ffffffffffffffff81111561197d57600080fd5b8301601f8101851361198e57600080fd5b803567ffffffffffffffff8111156119a557600080fd5b8560208260051b84010111156119ba57600080fd5b6020919091019590945092505050565b60208152815160208201526000602083015161018060408401526119f26101a08401826116cc565b90506040840151601f19848303016060850152611a0f82826116cc565b9150506060840151611a2c60808501826001600160a01b03169052565b50608084015160a084015260a084015160c084015260c0840151611a5360e0850182611728565b5060e08401516101008401526101008401516101208401526101208401516101408401526101408401516101608401526101608401516101808401528091505092915050565b801515811461158b57600080fd5b600082601f830112611ab857600080fd5b6000611ac4604061183f565b9050806040840185811115611ad857600080fd5b845b81811015611af2578035835260209283019201611ada565b509195945050505050565b600082601f830112611b0e57600080fd5b6000611b1a608061183f565b9050806080840185811115611ad857600080fd5b60008060008060008060006101e0888a031215611b4a57600080fd5b873596506020880135611b5c81611a99565b955060408801359450611b728960608a01611aa7565b93508860bf890112611b8357600080fd5b6040611b8e8161183f565b806101208b018c811115611ba157600080fd5b60a08c015b81811015611bc757611bb88e82611aa7565b84526020909301928401611ba6565b50819650611bd58d82611aa7565b955050505050611be9896101608a01611afd565b905092959891949750929550565b600181811c90821680611c0b57607f821691505b602082108103611c2b57634e487b7160e01b600052602260045260246000fd5b50919050565b6020810161088a8284611728565b634e487b7160e01b600052601160045260246000fd5b8082018082111561088a5761088a611c3f565b600060018201611c7a57611c7a611c3f565b5060010190565b601f821115610d2b57806000526020600020601f840160051c81016020851015611ca85750805b601f840160051c820191505b81811015611cc85760008155600101611cb4565b5050505050565b815167ffffffffffffffff811115611ce957611ce9611829565b611cfd81611cf78454611bf7565b84611c81565b6020601f821160018114611d315760008315611d195750848201515b600019600385901b1c1916600184901b178455611cc8565b600084815260208120601f198516915b82811015611d615787850151825560209485019460019092019101611d41565b5084821015611d7f5786840151600019600387901b60f8161c191681555b50505050600190811b01905550565b606081526000611da160608301866116cc565b60208301949094525060400152919050565b634e487b7160e01b600052603260045260246000fd5b8060005b6002811015611dec578151845260209384019390910190600101611dcd565b50505050565b6101808101611e018287611dc9565b604082018560005b6002811015611e3357611e1d838351611dc9565b6040929092019160209190910190600101611e09565b505050611e4360c0830185611dc9565b61010082018360005b6004811015611e6b578151835260209283019290910190600101611e4c565b50505095945050505050565b600060208284031215611e8957600080fd5b815161180081611a9956fea2646970667358221220034c2f69d8c6a29b25a674fcbe3618b6b5d614fba45b0f7b1b50aa30ce6fdf7c64736f6c634300081c0033",
  "linkReferences": {},
  "deployedLinkReferences": {}
}