{
  "_format": "hh-sol-artifact-1",
  "contractName": "PrivateDAOVoting",
  "sourceName": "contracts/core/PrivateDAOVoting.sol",
  "abi": [
    {
      "inputs": [
        {
          "internalType": "address",
          "name": "_verifier",
          "type": "address"
        },
        {
          "internalType": "address",
          "name": "_reputationManager",
          "type": "address"
        },
        {
          "internalType": "address",
          "name": "initialOwner",
          "type": "address"
        }
      ],
      "stateMutability": "nonpayable",
      "type": "constructor"
    },
    {
      "inputs": [
        {
          "internalType": "address",
          "name": "owner",
          "type": "address"
        }
      ],
      "name": "OwnableInvalidOwner",
      "type": "error"
    },
    {
      "inputs": [
        {
          "internalType": "address",
          "name": "account",
          "type": "address"
        }
      ],
      "name": "OwnableUnauthorizedAccount",
      "type": "error"
    },
    {
      "inputs": [],
      "name": "ReentrancyGuardReentrantCall",
      "type": "error"
    },
    {
      "anonymous": false,
      "inputs": [
        {
          "indexed": true,
          "internalType": "address",
          "name": "newRegistry",
          "type": "address"
        }
      ],
      "name": "DIDRegistryUpdated",
      "type": "event"
    },
    {
      "anonymous": false,
      "inputs": [
        {
          "indexed": true,
          "internalType": "address",
          "name": "previousOwner",
          "type": "address"
        },
        {
          "indexed": true,
          "internalType": "address",
          "name": "newOwner",
          "type": "address"
        }
      ],
      "name": "OwnershipTransferred",
      "type": "event"
    },
    {
      "anonymous": false,
      "inputs": [
        {
          "indexed": true,
          "internalType": "uint256",
          "name": "proposalId",
          "type": "uint256"
        },
        {
          "indexed": true,
          "internalType": "bytes32",
          "name": "nullifier",
          "type": "bytes32"
        },
        {
          "indexed": false,
          "internalType": "bool",
          "name": "support",
          "type": "bool"
        }
      ],
      "name": "PrivateVoteCast",
      "type": "event"
    },
    {
      "anonymous": false,
      "inputs": [
        {
          "indexed": true,
          "internalType": "uint256",
          "name": "proposalId",
          "type": "uint256"
        },
        {
          "indexed": true,
          "internalType": "address",
          "name": "proposer",
          "type": "address"
        },
        {
          "indexed": false,
          "internalType": "string",
          "name": "title",
          "type": "string"
        },
        {
          "indexed": false,
          "internalType": "bytes32",
          "name": "voterSetRoot",
          "type": "bytes32"
        },
        {
          "indexed": false,
          "internalType": "uint256",
          "name": "minReputationRequired",
          "type": "uint256"
        }
      ],
      "name": "ProposalCreated",
      "type": "event"
    },
    {
      "anonymous": false,
      "inputs": [
        {
          "indexed": true,
          "internalType": "uint256",
          "name": "proposalId",
          "type": "uint256"
        },
        {
          "indexed": false,
          "internalType": "enum PrivateDAOVoting.ProposalState",
          "name": "newState",
          "type": "uint8"
        }
      ],
      "name": "ProposalStateChanged",
      "type": "event"
    },
    {
      "anonymous": false,
      "inputs": [
        {
          "indexed": true,
          "internalType": "bytes32",
          "name": "commitment",
          "type": "bytes32"
        }
      ],
      "name": "VoterRegistered",
      "type": "event"
    },
    {
      "anonymous": false,
      "inputs": [
        {
          "indexed": true,
          "internalType": "bytes32",
          "name": "newRoot",
          "type": "bytes32"
        },
        {
          "indexed": false,
          "internalType": "uint256",
          "name": "timestamp",
          "type": "uint256"
        }
      ],
      "name": "VoterSetUpdated",
      "type": "event"
    },
    {
      "inputs": [
        {
          "internalType": "bytes32[]",
          "name": "commitments",
          "type": "bytes32[]"
        }
      ],
      "name": "batchRegisterVoters",
      "outputs": [],
      "stateMutability": "nonpayable",
      "type": "function"
    },
    {
      "inputs": [
        {
          "internalType": "uint256",
          "name": "_proposalId",
          "type": "uint256"
        }
      ],
      "name": "cancelProposal",
      "outputs": [],
      "stateMutability": "nonpayable",
      "type": "function"
    },
    {
      "inputs": [
        {
          "internalType": "uint256",
          "name": "_proposalId",
          "type": "uint256"
        },
        {
          "internalType": "bool",
          "name": "_support",
          "type": "bool"
        },
        {
          "internalType": "bytes32",
          "name": "_nullifier",
          "type": "bytes32"
        },
        {
          "internalType": "uint256[2]",
          "name": "_proof_a",
          "type": "uint256[2]"
        },
        {
          "internalType": "uint256[2][2]",
          "name": "_proof_b",
          "type": "uint256[2][2]"
        },
        {
          "internalType": "uint256[2]",
          "name": "_proof_c",
          "type": "uint256[2]"
        },
        {
          "internalType": "uint256[4]",
          "name": "_publicSignals",
          "type": "uint256[4]"
        }
      ],
      "name": "castPrivateVote",
      "outputs": [],
      "stateMutability": "nonpayable",
      "type": "function"
    },
    {
      "inputs": [],
      "name": "currentVoterSetRoot",
      "outputs": [
        {
          "internalType": "bytes32",
          "name": "",
          "type": "bytes32"
        }
      ],
      "stateMutability": "view",
      "type": "function"
    },
    {
      "inputs": [],
      "name": "didRegistry",
      "outputs": [
        {
          "internalType": "address",
          "name": "",
          "type": "address"
        }
      ],
      "stateMutability": "view",
      "type": "function"
    },
    {
      "inputs": [
        {
          "internalType": "uint256",
          "name": "_proposalId",
          "type": "uint256"
        }
      ],
      "name": "finalizeProposal",
      "outputs": [],
      "stateMutability": "nonpayable",
      "type": "function"
    },
    {
      "inputs": [],
      "name": "getAllVoterCommitments",
      "outputs": [
        {
          "internalType": "bytes32[]",
          "name": "",
          "type": "bytes32[]"
        }
      ],
      "stateMutability": "view",
      "type": "function"
    },
    {
      "inputs": [
        {
          "internalType": "uint256",
          "name": "_proposalId",
          "type": "uint256"
        }
      ],
      "name": "getProposal",
      "outputs": [
        {
          "components": [
            {
              "internalType": "uint256",
              "name": "id",
              "type": "uint256"
            },
            {
              "internalType": "string",
              "name": "title",
              "type": "string"
            },
            {
              "internalType": "string",
              "name": "description",
              "type": "string"
            },
            {
              "internalType": "address",
              "name": "proposer",
              "type": "address"
            },
            {
              "internalType": "uint256",
              "name": "yesVotes",
              "type": "uint256"
            },
            {
              "internalType": "uint256",
              "name": "noVotes",
              "type": "uint256"
            },
            {
              "internalType": "enum PrivateDAOVoting.ProposalState",
              "name": "state",
              "type": "uint8"
            },
            {
              "internalType": "uint256",
              "name": "createdAt",
              "type": "uint256"
            },
            {
              "internalType": "uint256",
              "name": "votingStart",
              "type": "uint256"
            },
            {
              "internalType": "uint256",
              "name": "votingEnd",
              "type": "uint256"
            },
            {
              "internalType": "bytes32",
              "name": "voterSetRoot",
              "type": "bytes32"
            },
            {
              "internalType": "uint256",
              "name": "minReputationRequired",
              "type": "uint256"
            }
          ],
          "internalType": "struct PrivateDAOVoting.Proposal",
          "name": "",
          "type": "tuple"
        }
      ],
      "stateMutability": "view",
      "type": "function"
    },
    {
      "inputs": [],
      "name": "getRegisteredVoterCount",
      "outputs": [
        {
          "internalType": "uint256",
          "name": "",
          "type": "uint256"
        }
      ],
      "stateMutability": "view",
      "type": "function"
    },
    {
      "inputs": [
        {
          "internalType": "uint256",
          "name": "index",
          "type": "uint256"
        }
      ],
      "name": "getVoterCommitmentByIndex",
      "outputs": [
        {
          "internalType": "bytes32",
          "name": "",
          "type": "bytes32"
        }
      ],
      "stateMutability": "view",
      "type": "function"
    },
    {
      "inputs": [
        {
          "internalType": "uint256",
          "name": "_proposalId",
          "type": "uint256"
        },
        {
          "internalType": "bytes32",
          "name": "_nullifier",
          "type": "bytes32"
        }
      ],
      "name": "hasVoted",
      "outputs": [
        {
          "internalType": "bool",
          "name": "",
          "type": "bool"
        }
      ],
      "stateMutability": "view",
      "type": "function"
    },
    {
      "inputs": [
        {
          "internalType": "bytes32",
          "name": "_commitment",
          "type": "bytes32"
        }
      ],
      "name": "isCommitmentRegistered",
      "outputs": [
        {
          "internalType": "bool",
          "name": "",
          "type": "bool"
        }
      ],
      "stateMutability": "view",
      "type": "function"
    },
    {
      "inputs": [],
      "name": "minReputationToPropose",
      "outputs": [
        {
          "internalType": "uint256",
          "name": "",
          "type": "uint256"
        }
      ],
      "stateMutability": "view",
      "type": "function"
    },
    {
      "inputs": [
        {
          "internalType": "uint256",
          "name": "",
          "type": "uint256"
        },
        {
          "internalType": "bytes32",
          "name": "",
          "type": "bytes32"
        }
      ],
      "name": "nullifiers",
      "outputs": [
        {
          "internalType": "bool",
          "name": "",
          "type": "bool"
        }
      ],
      "stateMutability": "view",
      "type": "function"
    },
    {
      "inputs": [],
      "name": "owner",
      "outputs": [
        {
          "internalType": "address",
          "name": "",
          "type": "address"
        }
      ],
      "stateMutability": "view",
      "type": "function"
    },
    {
      "inputs": [],
      "name": "proposalCount",
      "outputs": [
        {
          "internalType": "uint256",
          "name": "",
          "type": "uint256"
        }
      ],
      "stateMutability": "view",
      "type": "function"
    },
    {
      "inputs": [
        {
          "internalType": "uint256",
          "name": "",
          "type": "uint256"
        }
      ],
      "name": "proposals",
      "outputs": [
        {
          "internalType": "uint256",
          "name": "id",
          "type": "uint256"
        },
        {
          "internalType": "string",
          "name": "title",
          "type": "string"
        },
        {
          "internalType": "string",
          "name": "description",
          "type": "string"
        },
        {
          "internalType": "address",
          "name": "proposer",
          "type": "address"
        },
        {
          "internalType": "uint256",
          "name": "yesVotes",
          "type": "uint256"
        },
        {
          "internalType": "uint256",
          "name": "noVotes",
          "type": "uint256"
        },
        {
          "internalType": "enum PrivateDAOVoting.ProposalState",
          "name": "state",
          "type": "uint8"
        },
        {
          "internalType": "uint256",
          "name": "createdAt",
          "type": "uint256"
        },
        {
          "internalType": "uint256",
          "name": "votingStart",
          "type": "uint256"
        },
        {
          "internalType": "uint256",
          "name": "votingEnd",
          "type": "uint256"
        },
        {
          "internalType": "bytes32",
          "name": "voterSetRoot",
          "type": "bytes32"
        },
        {
          "internalType": "uint256",
          "name": "minReputationRequired",
          "type": "uint256"
        }
      ],
      "stateMutability": "view",
      "type": "function"
    },
    {
      "inputs": [],
      "name": "quorumPercentage",
      "outputs": [
        {
          "internalType": "uint256",
          "name": "",
          "type": "uint256"
        }
      ],
      "stateMutability": "view",
      "type": "function"
    },
    {
      "inputs": [
        {
          "internalType": "bytes32",
          "name": "commitment",
          "type": "bytes32"
        }
      ],
      "name": "registerVoter",
      "outputs": [],
      "stateMutability": "nonpayable",
      "type": "function"
    },
    {
      "inputs": [],
      "name": "renounceOwnership",
      "outputs": [],
      "stateMutability": "nonpayable",
      "type": "function"
    },
    {
      "inputs": [],
      "name": "reputationManager",
      "outputs": [
        {
          "internalType": "contract IReputationManager",
          "name": "",
          "type": "address"
        }
      ],
      "stateMutability": "view",
      "type": "function"
    },
    {
      "inputs": [
        {
          "internalType": "address",
          "name": "_didRegistry",
          "type": "address"
        }
      ],
      "name": "setDIDRegistry",
      "outputs": [],
      "stateMutability": "nonpayable",
      "type": "function"
    },
    {
      "inputs": [
        {
          "internalType": "uint256",
          "name": "_amount",
          "type": "uint256"
        }
      ],
      "name": "setMinReputationToPropose",
      "outputs": [],
      "stateMutability": "nonpayable",
      "type": "function"
    },
    {
      "inputs": [
        {
          "internalType": "uint256",
          "name": "_proposalId",
          "type": "uint256"
        }
      ],
      "name": "startVoting",
      "outputs": [],
      "stateMutability": "nonpayable",
      "type": "function"
    },
    {
      "inputs": [
        {
          "internalType": "string",
          "name": "_title",
          "type": "string"
        },
        {
          "internalType": "string",
          "name": "_description",
          "type": "string"
        },
        {
          "internalType": "uint256",
          "name": "_minReputationRequired",
          "type": "uint256"
        }
      ],
      "name": "submitProposal",
      "outputs": [],
      "stateMutability": "nonpayable",
      "type": "function"
    },
    {
      "inputs": [
        {
          "internalType": "address",
          "name": "newOwner",
          "type": "address"
        }
      ],
      "name": "transferOwnership",
      "outputs": [],
      "stateMutability": "nonpayable",
      "type": "function"
    },
    {
      "inputs": [
        {
          "internalType": "bytes32",
          "name": "newRoot",
          "type": "bytes32"
        }
      ],
      "name": "updateVoterSetRoot",
      "outputs": [],
      "stateMutability": "nonpayable",
      "type": "function"
    },
    {
      "inputs": [],
      "name": "verifier",
      "outputs": [
        {
          "internalType": "contract Groth16Verifier",
          "name": "",
          "type": "address"
        }
      ],
      "stateMutability": "view",
      "type": "function"
    },
    {
      "inputs": [
        {
          "internalType": "bytes32",
          "name": "",
          "type": "bytes32"
        }
      ],
      "name": "voterCommitments",
      "outputs": [
        {
          "internalType": "bool",
          "name": "",
          "type": "bool"
        }
      ],
      "stateMutability": "view",
      "type": "function"
    },
    {
      "inputs": [
        {
          "internalType": "uint256",
          "name": "",
          "type": "uint256"
        }
      ],
      "name": "voterCommitmentsArray",
      "outputs": [
        {
          "internalType": "bytes32",
          "name": "",
          "type": "bytes32"
        }
      ],
      "stateMutability": "view",
      "type": "function"
    },
    {
      "inputs": [],
      "name": "votingDelay",
      "outputs": [
        {
          "internalType": "uint256",
          "name": "",
          "type": "uint256"
        }
      ],
      "stateMutability": "view",
      "type": "function"
    },
    {
      "inputs": [],
      "name": "votingPeriod",
      "outputs": [
        {
          "internalType": "uint256",
          "name": "",
          "type": "uint256"
        }
      ],
      "stateMutability": "view",
      "type": "function"
    }
  ],
  "bytecode": "0x6080604052610e10600a5562093a80600b556028600c556032600d5534801561002757600080fd5b5060405161243f38038061243f833981016040819052610046916101d9565b806001600160a01b03811661007657604051631e4fbdf760e01b8152600060048201526024015b60405180910390fd5b61007f8161016d565b50600180556001600160a01b0383166100da5760405162461bcd60e51b815260206004820152601860248201527f496e76616c696420766572696669657220616464726573730000000000000000604482015260640161006d565b6001600160a01b03821661013b5760405162461bcd60e51b815260206004820152602260248201527f496e76616c69642072657075746174696f6e206d616e61676572206164647265604482015261737360f01b606482015260840161006d565b50600280546001600160a01b039384166001600160a01b0319918216179091556003805492909316911617905561021c565b600080546001600160a01b038381166001600160a01b0319831681178455604051919092169283917f8be0079c531659141344cd1fd0a4f28419497f9722a3daafe3b4186f6b6457e09190a35050565b80516001600160a01b03811681146101d457600080fd5b919050565b6000806000606084860312156101ee57600080fd5b6101f7846101bd565b9250610205602085016101bd565b9150610213604085016101bd565b90509250925092565b6122148061022b6000396000f3fe608060405234801561001057600080fd5b50600436106101ef5760003560e01c80638da5cb5b1161010f578063d0c2a609116100a2578063e0a8f6f511610071578063e0a8f6f51461043c578063f186879b1461044f578063f19ea90314610462578063f2fde38b1461049057600080fd5b8063d0c2a609146103fe578063d0e902d114610421578063d249f4311461042a578063da35c6641461043357600080fd5b8063c158a488116100de578063c158a488146103a5578063c16b1764146103b8578063c55696b8146103cb578063c7f758a8146103de57600080fd5b80638da5cb5b1461035b5780638fca9fac1461036c57806394c27e581461037f578063ba8554c71461039257600080fd5b80635652077c1161018757806371015e0a1161015657806371015e0a1461031a578063715018a61461032d57806374417bf414610335578063793c5d211461034857600080fd5b80635652077c146102ae578063577f9fb1146102c1578063620b5305146102d45780636b868afb1461030757600080fd5b80632b8c2504116101c35780632b8c25041461027f5780633932abb1146102875780633d2f5bda146102905780634fa76ec9146102a557600080fd5b806251cfb9146101f4578063013cf08b1461021257806302a251a31461023d5780632b7ac3f314610254575b600080fd5b6101fc6104a3565b60405161020991906119a1565b60405180910390f35b6102256102203660046119e4565b6104fb565b6040516102099c9b9a99989796959493929190611a7b565b610246600b5481565b604051908152602001610209565b600254610267906001600160a01b031681565b6040516001600160a01b039091168152602001610209565b600854610246565b610246600a5481565b6102a361029e3660046119e4565b610677565b005b610246600c5481565b6102a36102bc3660046119e4565b61076e565b600454610267906001600160a01b031681565b6102f76102e23660046119e4565b60009081526007602052604090205460ff1690565b6040519015158152602001610209565b600354610267906001600160a01b031681565b6102a3610328366004611b08565b6108c8565b6102a3610970565b6102f7610343366004611b38565b610984565b6102a36103563660046119e4565b6109a8565b6000546001600160a01b0316610267565b6102a361037a3660046119e4565b610b20565b61024661038d3660046119e4565b610ba1565b6102a36103a0366004611c11565b610bc2565b6102466103b33660046119e4565b610f6c565b6102a36103c63660046119e4565b610fdb565b6102a36103d9366004611c84565b610fe8565b6103f16103ec3660046119e4565b611157565b6040516102099190611cfb565b6102f761040c3660046119e4565b60076020526000908152604090205460ff1681565b610246600d5481565b610246600e5481565b61024660095481565b6102a361044a3660046119e4565b61133e565b6102a361045d366004611e5f565b61146c565b6102f7610470366004611b38565b600660209081526000928352604080842090915290825290205460ff1681565b6102a361049e366004611b08565b61183e565b606060088054806020026020016040519081016040528092919081815260200182805480156104f157602002820191906000526020600020905b8154815260200190600101908083116104dd575b5050505050905090565b6005602052600090815260409020805460018201805491929161051d90611f28565b80601f016020809104026020016040519081016040528092919081815260200182805461054990611f28565b80156105965780601f1061056b57610100808354040283529160200191610596565b820191906000526020600020905b81548152906001019060200180831161057957829003601f168201915b5050505050908060020180546105ab90611f28565b80601f01602080910402602001604051908101604052809291908181526020018280546105d790611f28565b80156106245780601f106105f957610100808354040283529160200191610624565b820191906000526020600020905b81548152906001019060200180831161060757829003601f168201915b50505060038401546004850154600586015460068701546007880154600889015460098a0154600a8b0154600b909b0154999a6001600160a01b039097169995985093965060ff9092169490939192918c565b600081815260056020526040812090600682015460ff16600581111561069f5761069f611a43565b146106df5760405162461bcd60e51b815260206004820152600b60248201526a4e6f742070656e64696e6760a81b60448201526064015b60405180910390fd5b806008015442101561071f5760405162461bcd60e51b8152602060048201526009602482015268546f6f206561726c7960b81b60448201526064016106d6565b60068101805460ff1916600190811790915560405183917fd6b3a81dd8b7dc419d8d0f20797397ea2eaba914386b89898aa638438803a1ec916107629190611f62565b60405180910390a25050565b60008181526005602052604090206001600682015460ff16600581111561079757610797611a43565b146107d15760405162461bcd60e51b815260206004820152600a6024820152694e6f742061637469766560b01b60448201526064016106d6565b806009015442116108105760405162461bcd60e51b8152602060048201526009602482015268139bdd08195b99195960ba1b60448201526064016106d6565b6000816005015482600401546108269190611f86565b90508060000361084c576006820180546003919060ff19166001835b0217905550610882565b816005015482600401541115610872576006820180546002919060ff1916600183610842565b60068201805460ff191660031790555b600682015460405184917fd6b3a81dd8b7dc419d8d0f20797397ea2eaba914386b89898aa638438803a1ec916108bb9160ff1690611f62565b60405180910390a2505050565b6108d061187c565b6001600160a01b0381166109265760405162461bcd60e51b815260206004820152601860248201527f496e76616c69642072656769737472792061646472657373000000000000000060448201526064016106d6565b600480546001600160a01b0319166001600160a01b0383169081179091556040517f157ccc8b25cb42c7ec2e5d88024e7c10238cd86f07776d1d55174cbf6ee4f59290600090a250565b61097861187c565b61098260006118a9565b565b600082815260066020908152604080832084845290915290205460ff165b92915050565b6004546001600160a01b03163314610a145760405162461bcd60e51b815260206004820152602960248201527f43616c6c6572206973206e6f742074686520617574686f72697a65642044494460448201526820526567697374727960b81b60648201526084016106d6565b80610a565760405162461bcd60e51b8152602060048201526012602482015271125b9d985b1a590818dbdb5b5a5d1b595b9d60721b60448201526064016106d6565b60008181526007602052604090205460ff1615610aaa5760405162461bcd60e51b8152602060048201526012602482015271105b1c9958591e481c9959da5cdd195c995960721b60448201526064016106d6565b600081815260076020526040808220805460ff1916600190811790915560088054918201815583527ff3f7a9fe364faab93b216da50a3214154f22a0a2b415b23a84c8169e8b636ee3018390555182917fe1e93aab4d6cae623ae197f9c4d63ac5eede4c69f9d0fbc92e4dbb0766abd11591a250565b610b2861187c565b80610b645760405162461bcd60e51b815260206004820152600c60248201526b125b9d985b1a59081c9bdbdd60a21b60448201526064016106d6565b600e81905560405142815281907f9dc79e6d56752c3d9c2ed7457371e9dc454a01492ed011e981bfdef6975da5469060200160405180910390a250565b60088181548110610bb157600080fd5b600091825260209091200154905081565b610bca6118f9565b6000835111610c0c5760405162461bcd60e51b815260206004820152600e60248201526d151a5d1b19481c995c5d5a5c995960921b60448201526064016106d6565b6000825111610c545760405162461bcd60e51b815260206004820152601460248201527311195cd8dc9a5c1d1a5bdb881c995c5d5a5c995960621b60448201526064016106d6565b600e54610ca35760405162461bcd60e51b815260206004820152601960248201527f566f74657220736574206e6f7420696e697469616c697a65640000000000000060448201526064016106d6565b600d54600354604051631d699f5760e21b81523360048201526001600160a01b03909116906375a67d5c90602401602060405180830381865afa158015610cee573d6000803e3d6000fd5b505050506040513d601f19601f82011682018060405250810190610d129190611f99565b1015610d735760405162461bcd60e51b815260206004820152602a60248201527f496e73756666696369656e742072657075746174696f6e20746f20637265617460448201526919481c1c9bdc1bdcd85b60b21b60648201526084016106d6565b60098054906000610d8383611fb2565b91905055506000600a5442610d989190611f86565b90506000600b5482610daa9190611f86565b90506040518061018001604052806009548152602001868152602001858152602001336001600160a01b03168152602001600081526020016000815260200160006005811115610dfc57610dfc611a43565b8152602001428152602001838152602001828152602001600e54815260200184815250600560006009548152602001908152602001600020600082015181600001556020820151816001019081610e539190612019565b5060408201516002820190610e689082612019565b5060608201518160030160006101000a8154816001600160a01b0302191690836001600160a01b031602179055506080820151816004015560a0820151816005015560c08201518160060160006101000a81548160ff02191690836005811115610ed457610ed4611a43565b021790555060e082015181600701556101008201518160080155610120820151816009015561014082015181600a015561016082015181600b0155905050336001600160a01b03166009547f3c9679db2e099dbc1b8385d8d908b60224acb3acb7d4e5d4501b73c102472b5487600e5487604051610f54939291906120d8565b60405180910390a35050610f6760018055565b505050565b6008546000908210610fb65760405162461bcd60e51b8152602060048201526013602482015272496e646578206f7574206f6620626f756e647360681b60448201526064016106d6565b60088281548110610fc957610fc96120fd565b90600052602060002001549050919050565b610fe361187c565b600d55565b610ff061187c565b60005b81811015610f6757600083838381811061100f5761100f6120fd565b90506020020135036110585760405162461bcd60e51b8152602060048201526012602482015271125b9d985b1a590818dbdb5b5a5d1b595b9d60721b60448201526064016106d6565b6007600084848481811061106e5761106e6120fd565b602090810292909201358352508101919091526040016000205460ff1661114f576001600760008585858181106110a7576110a76120fd565b90506020020135815260200190815260200160002060006101000a81548160ff02191690831515021790555060088383838181106110e7576110e76120fd565b8354600181018555600094855260209485902091909402929092013591909201555082828281811061111b5761111b6120fd565b905060200201357fe1e93aab4d6cae623ae197f9c4d63ac5eede4c69f9d0fbc92e4dbb0766abd11560405160405180910390a25b600101610ff3565b61115f611923565b60056000838152602001908152602001600020604051806101800160405290816000820154815260200160018201805461119890611f28565b80601f01602080910402602001604051908101604052809291908181526020018280546111c490611f28565b80156112115780601f106111e657610100808354040283529160200191611211565b820191906000526020600020905b8154815290600101906020018083116111f457829003601f168201915b5050505050815260200160028201805461122a90611f28565b80601f016020809104026020016040519081016040528092919081815260200182805461125690611f28565b80156112a35780601f10611278576101008083540402835291602001916112a3565b820191906000526020600020905b81548152906001019060200180831161128657829003601f168201915b505050918352505060038201546001600160a01b03166020820152600482015460408201526005808301546060830152600683015460809092019160ff16908111156112f1576112f1611a43565b600581111561130257611302611a43565b8152600782015460208201526008820154604082015260098201546060820152600a8201546080820152600b9091015460a09091015292915050565b600081815260056020526040902060038101546001600160a01b031633148061137157506000546001600160a01b031633145b6113ae5760405162461bcd60e51b815260206004820152600e60248201526d139bdd08185d5d1a1bdc9a5e995960921b60448201526064016106d6565b6000600682015460ff1660058111156113c9576113c9611a43565b14806113ed57506001600682015460ff1660058111156113eb576113eb611a43565b145b6114295760405162461bcd60e51b815260206004820152600d60248201526c10d85b9b9bdd0818d85b98d95b609a1b60448201526064016106d6565b60068101805460ff1916600590811790915560405183917fd6b3a81dd8b7dc419d8d0f20797397ea2eaba914386b89898aa638438803a1ec916107629190611f62565b6114746118f9565b60008781526005602052604090206001600682015460ff16600581111561149d5761149d611a43565b146114d75760405162461bcd60e51b815260206004820152600a6024820152694e6f742061637469766560b01b60448201526064016106d6565b80600801544210156115195760405162461bcd60e51b815260206004820152600b60248201526a139bdd081cdd185c9d195960aa1b60448201526064016106d6565b80600901544211156115555760405162461bcd60e51b8152602060048201526005602482015264115b99195960da1b60448201526064016106d6565b600088815260066020908152604080832089845290915290205460ff16156115af5760405162461bcd60e51b815260206004820152600d60248201526c105b1c9958591e481d9bdd1959609a1b60448201526064016106d6565b815186146115f45760405162461bcd60e51b815260206004820152601260248201527109cead8d8d2ccd2cae440dad2e6dac2e8c6d60731b60448201526064016106d6565b6020820151600a8201541461163a5760405162461bcd60e51b815260206004820152600c60248201526b125b9d985b1a59081c9bdbdd60a21b60448201526064016106d6565b604082015188146116835760405162461bcd60e51b8152602060048201526013602482015272125b9d985b1a59081c1c9bdc1bdcd85b081251606a1b60448201526064016106d6565b606082015187611694576000611697565b60015b60ff16146116dd5760405162461bcd60e51b8152602060048201526013602482015272496e76616c696420766f74652063686f69636560681b60448201526064016106d6565b600254604051635fe8c13b60e01b81526001600160a01b0390911690635fe8c13b9061171390889088908890889060040161213c565b602060405180830381865afa158015611730573d6000803e3d6000fd5b505050506040513d601f19601f8201168201806040525081019061175491906121c1565b6117905760405162461bcd60e51b815260206004820152600d60248201526c24b73b30b634b210383937b7b360991b60448201526064016106d6565b60008881526006602090815260408083208984529091529020805460ff1916600117905586156117d6576004810180549060006117cc83611fb2565b91905055506117ee565b6005810180549060006117e883611fb2565b91905055505b85887f75487a8ccdee2b2c115434c90dda155352df8a832b9d1ffd673623ef0575903d89604051611823911515815260200190565b60405180910390a35061183560018055565b50505050505050565b61184661187c565b6001600160a01b03811661187057604051631e4fbdf760e01b8152600060048201526024016106d6565b611879816118a9565b50565b6000546001600160a01b031633146109825760405163118cdaa760e01b81523360048201526024016106d6565b600080546001600160a01b038381166001600160a01b0319831681178455604051919092169283917f8be0079c531659141344cd1fd0a4f28419497f9722a3daafe3b4186f6b6457e09190a35050565b60026001540361191c57604051633ee5aeb560e01b815260040160405180910390fd5b6002600155565b60405180610180016040528060008152602001606081526020016060815260200160006001600160a01b0316815260200160008152602001600081526020016000600581111561197557611975611a43565b815260200160008152602001600081526020016000815260200160008019168152602001600081525090565b602080825282518282018190526000918401906040840190835b818110156119d95783518352602093840193909201916001016119bb565b509095945050505050565b6000602082840312156119f657600080fd5b5035919050565b6000815180845260005b81811015611a2357602081850181015186830182015201611a07565b506000602082860101526020601f19601f83011685010191505092915050565b634e487b7160e01b600052602160045260246000fd5b60068110611a7757634e487b7160e01b600052602160045260246000fd5b9052565b8c815261018060208201526000611a9661018083018e6119fd565b8281036040840152611aa8818e6119fd565b6001600160a01b038d166060850152608084018c905260a084018b90529150611ad6905060c0830189611a59565b60e082019690965261010081019490945261012084019290925261014083015261016090910152979650505050505050565b600060208284031215611b1a57600080fd5b81356001600160a01b0381168114611b3157600080fd5b9392505050565b60008060408385031215611b4b57600080fd5b50508035926020909101359150565b634e487b7160e01b600052604160045260246000fd5b604051601f8201601f1916810167ffffffffffffffff81118282101715611b9957611b99611b5a565b604052919050565b600082601f830112611bb257600080fd5b813567ffffffffffffffff811115611bcc57611bcc611b5a565b611bdf601f8201601f1916602001611b70565b818152846020838601011115611bf457600080fd5b816020850160208301376000918101602001919091529392505050565b600080600060608486031215611c2657600080fd5b833567ffffffffffffffff811115611c3d57600080fd5b611c4986828701611ba1565b935050602084013567ffffffffffffffff811115611c6657600080fd5b611c7286828701611ba1565b93969395505050506040919091013590565b60008060208385031215611c9757600080fd5b823567ffffffffffffffff811115611cae57600080fd5b8301601f81018513611cbf57600080fd5b803567ffffffffffffffff811115611cd657600080fd5b8560208260051b8401011115611ceb57600080fd5b6020919091019590945092505050565b6020815281516020820152600060208301516101806040840152611d236101a08401826119fd565b90506040840151601f19848303016060850152611d4082826119fd565b9150506060840151611d5d60808501826001600160a01b03169052565b50608084015160a084015260a084015160c084015260c0840151611d8460e0850182611a59565b5060e08401516101008401526101008401516101208401526101208401516101408401526101408401516101608401526101608401516101808401528091505092915050565b801515811461187957600080fd5b600082601f830112611de957600080fd5b6000611df56040611b70565b9050806040840185811115611e0957600080fd5b845b81811015611e23578035835260209283019201611e0b565b509195945050505050565b600082601f830112611e3f57600080fd5b6000611e4b6080611b70565b9050806080840185811115611e0957600080fd5b60008060008060008060006101e0888a031215611e7b57600080fd5b873596506020880135611e8d81611dca565b955060408801359450611ea38960608a01611dd8565b93508860bf890112611eb457600080fd5b6040611ebf81611b70565b806101208b018c811115611ed257600080fd5b60a08c015b81811015611ef857611ee98e82611dd8565b84526020909301928401611ed7565b50819650611f068d82611dd8565b955050505050611f1a896101608a01611e2e565b905092959891949750929550565b600181811c90821680611f3c57607f821691505b602082108103611f5c57634e487b7160e01b600052602260045260246000fd5b50919050565b602081016109a28284611a59565b634e487b7160e01b600052601160045260246000fd5b808201808211156109a2576109a2611f70565b600060208284031215611fab57600080fd5b5051919050565b600060018201611fc457611fc4611f70565b5060010190565b601f821115610f6757806000526020600020601f840160051c81016020851015611ff25750805b601f840160051c820191505b818110156120125760008155600101611ffe565b5050505050565b815167ffffffffffffffff81111561203357612033611b5a565b612047816120418454611f28565b84611fcb565b6020601f82116001811461207b57600083156120635750848201515b600019600385901b1c1916600184901b178455612012565b600084815260208120601f198516915b828110156120ab578785015182556020948501946001909201910161208b565b50848210156120c95786840151600019600387901b60f8161c191681555b50505050600190811b01905550565b6060815260006120eb60608301866119fd565b60208301949094525060400152919050565b634e487b7160e01b600052603260045260246000fd5b8060005b6002811015612136578151845260209384019390910190600101612117565b50505050565b610180810161214b8287612113565b604082018560005b600281101561217d57612167838351612113565b6040929092019160209190910190600101612153565b50505061218d60c0830185612113565b61010082018360005b60048110156121b5578151835260209283019290910190600101612196565b50505095945050505050565b6000602082840312156121d357600080fd5b8151611b3181611dca56fea2646970667358221220490c2bc453a9c8b0b6eed2b5a93bd6336dd507552df70f222a66000b16a2355364736f6c634300081c0033",
  "linkReferences": {},
  "deployedLinkReferences": {}
}