{
  "_format": "hh-sol-artifact-1",
  "contractName": "PrivateDAOVoting",
  "sourceName": "contracts/core/PrivateDAOVoting.sol",
  "abi": [
    {
      "inputs": [
        {
          "internalType": "address",
          "name": "_verifier",
          "type": "address"
        },
        {
          "internalType": "address",
          "name": "_reputationManager",
          "type": "address"
        },
        {
          "internalType": "address",
          "name": "initialOwner",
          "type": "address"
        }
      ],
      "stateMutability": "nonpayable",
      "type": "constructor"
    },
    {
      "inputs": [
        {
          "internalType": "address",
          "name": "owner",
          "type": "address"
        }
      ],
      "name": "OwnableInvalidOwner",
      "type": "error"
    },
    {
      "inputs": [
        {
          "internalType": "address",
          "name": "account",
          "type": "address"
        }
      ],
      "name": "OwnableUnauthorizedAccount",
      "type": "error"
    },
    {
      "inputs": [],
      "name": "ReentrancyGuardReentrantCall",
      "type": "error"
    },
    {
      "anonymous": false,
      "inputs": [
        {
          "indexed": true,
          "internalType": "address",
          "name": "newRegistry",
          "type": "address"
        }
      ],
      "name": "DIDRegistryUpdated",
      "type": "event"
    },
    {
      "anonymous": false,
      "inputs": [
        {
          "indexed": true,
          "internalType": "address",
          "name": "previousOwner",
          "type": "address"
        },
        {
          "indexed": true,
          "internalType": "address",
          "name": "newOwner",
          "type": "address"
        }
      ],
      "name": "OwnershipTransferred",
      "type": "event"
    },
    {
      "anonymous": false,
      "inputs": [
        {
          "indexed": true,
          "internalType": "uint256",
          "name": "proposalId",
          "type": "uint256"
        },
        {
          "indexed": true,
          "internalType": "bytes32",
          "name": "nullifier",
          "type": "bytes32"
        },
        {
          "indexed": false,
          "internalType": "bool",
          "name": "support",
          "type": "bool"
        }
      ],
      "name": "PrivateVoteCast",
      "type": "event"
    },
    {
      "anonymous": false,
      "inputs": [
        {
          "indexed": true,
          "internalType": "uint256",
          "name": "proposalId",
          "type": "uint256"
        },
        {
          "indexed": true,
          "internalType": "address",
          "name": "proposer",
          "type": "address"
        },
        {
          "indexed": false,
          "internalType": "string",
          "name": "title",
          "type": "string"
        },
        {
          "indexed": false,
          "internalType": "bytes32",
          "name": "voterSetRoot",
          "type": "bytes32"
        },
        {
          "indexed": false,
          "internalType": "uint256",
          "name": "minReputationRequired",
          "type": "uint256"
        }
      ],
      "name": "ProposalCreated",
      "type": "event"
    },
    {
      "anonymous": false,
      "inputs": [
        {
          "indexed": true,
          "internalType": "uint256",
          "name": "proposalId",
          "type": "uint256"
        },
        {
          "indexed": false,
          "internalType": "enum PrivateDAOVoting.ProposalState",
          "name": "newState",
          "type": "uint8"
        }
      ],
      "name": "ProposalStateChanged",
      "type": "event"
    },
    {
      "anonymous": false,
      "inputs": [
        {
          "indexed": true,
          "internalType": "bytes32",
          "name": "commitment",
          "type": "bytes32"
        }
      ],
      "name": "VoterRegistered",
      "type": "event"
    },
    {
      "anonymous": false,
      "inputs": [
        {
          "indexed": true,
          "internalType": "bytes32",
          "name": "newRoot",
          "type": "bytes32"
        },
        {
          "indexed": false,
          "internalType": "uint256",
          "name": "timestamp",
          "type": "uint256"
        }
      ],
      "name": "VoterSetUpdated",
      "type": "event"
    },
    {
      "inputs": [
        {
          "internalType": "bytes32[]",
          "name": "commitments",
          "type": "bytes32[]"
        }
      ],
      "name": "batchRegisterVoters",
      "outputs": [],
      "stateMutability": "nonpayable",
      "type": "function"
    },
    {
      "inputs": [
        {
          "internalType": "uint256",
          "name": "_proposalId",
          "type": "uint256"
        }
      ],
      "name": "cancelProposal",
      "outputs": [],
      "stateMutability": "nonpayable",
      "type": "function"
    },
    {
      "inputs": [
        {
          "internalType": "uint256",
          "name": "_proposalId",
          "type": "uint256"
        },
        {
          "internalType": "bool",
          "name": "_support",
          "type": "bool"
        },
        {
          "internalType": "bytes32",
          "name": "_nullifier",
          "type": "bytes32"
        },
        {
          "internalType": "uint256[2]",
          "name": "_proof_a",
          "type": "uint256[2]"
        },
        {
          "internalType": "uint256[2][2]",
          "name": "_proof_b",
          "type": "uint256[2][2]"
        },
        {
          "internalType": "uint256[2]",
          "name": "_proof_c",
          "type": "uint256[2]"
        },
        {
          "internalType": "uint256[4]",
          "name": "_publicSignals",
          "type": "uint256[4]"
        }
      ],
      "name": "castPrivateVote",
      "outputs": [],
      "stateMutability": "nonpayable",
      "type": "function"
    },
    {
      "inputs": [],
      "name": "currentVoterSetRoot",
      "outputs": [
        {
          "internalType": "bytes32",
          "name": "",
          "type": "bytes32"
        }
      ],
      "stateMutability": "view",
      "type": "function"
    },
    {
      "inputs": [],
      "name": "didRegistry",
      "outputs": [
        {
          "internalType": "address",
          "name": "",
          "type": "address"
        }
      ],
      "stateMutability": "view",
      "type": "function"
    },
    {
      "inputs": [
        {
          "internalType": "uint256",
          "name": "_proposalId",
          "type": "uint256"
        }
      ],
      "name": "finalizeProposal",
      "outputs": [],
      "stateMutability": "nonpayable",
      "type": "function"
    },
    {
      "inputs": [
        {
          "internalType": "uint256",
          "name": "_proposalId",
          "type": "uint256"
        }
      ],
      "name": "getProposal",
      "outputs": [
        {
          "components": [
            {
              "internalType": "uint256",
              "name": "id",
              "type": "uint256"
            },
            {
              "internalType": "string",
              "name": "title",
              "type": "string"
            },
            {
              "internalType": "string",
              "name": "description",
              "type": "string"
            },
            {
              "internalType": "address",
              "name": "proposer",
              "type": "address"
            },
            {
              "internalType": "uint256",
              "name": "yesVotes",
              "type": "uint256"
            },
            {
              "internalType": "uint256",
              "name": "noVotes",
              "type": "uint256"
            },
            {
              "internalType": "enum PrivateDAOVoting.ProposalState",
              "name": "state",
              "type": "uint8"
            },
            {
              "internalType": "uint256",
              "name": "createdAt",
              "type": "uint256"
            },
            {
              "internalType": "uint256",
              "name": "votingStart",
              "type": "uint256"
            },
            {
              "internalType": "uint256",
              "name": "votingEnd",
              "type": "uint256"
            },
            {
              "internalType": "bytes32",
              "name": "voterSetRoot",
              "type": "bytes32"
            },
            {
              "internalType": "uint256",
              "name": "minReputationRequired",
              "type": "uint256"
            }
          ],
          "internalType": "struct PrivateDAOVoting.Proposal",
          "name": "",
          "type": "tuple"
        }
      ],
      "stateMutability": "view",
      "type": "function"
    },
    {
      "inputs": [
        {
          "internalType": "uint256",
          "name": "_proposalId",
          "type": "uint256"
        },
        {
          "internalType": "bytes32",
          "name": "_nullifier",
          "type": "bytes32"
        }
      ],
      "name": "hasVoted",
      "outputs": [
        {
          "internalType": "bool",
          "name": "",
          "type": "bool"
        }
      ],
      "stateMutability": "view",
      "type": "function"
    },
    {
      "inputs": [
        {
          "internalType": "bytes32",
          "name": "_commitment",
          "type": "bytes32"
        }
      ],
      "name": "isCommitmentRegistered",
      "outputs": [
        {
          "internalType": "bool",
          "name": "",
          "type": "bool"
        }
      ],
      "stateMutability": "view",
      "type": "function"
    },
    {
      "inputs": [],
      "name": "minReputationToPropose",
      "outputs": [
        {
          "internalType": "uint256",
          "name": "",
          "type": "uint256"
        }
      ],
      "stateMutability": "view",
      "type": "function"
    },
    {
      "inputs": [
        {
          "internalType": "uint256",
          "name": "",
          "type": "uint256"
        },
        {
          "internalType": "bytes32",
          "name": "",
          "type": "bytes32"
        }
      ],
      "name": "nullifiers",
      "outputs": [
        {
          "internalType": "bool",
          "name": "",
          "type": "bool"
        }
      ],
      "stateMutability": "view",
      "type": "function"
    },
    {
      "inputs": [],
      "name": "owner",
      "outputs": [
        {
          "internalType": "address",
          "name": "",
          "type": "address"
        }
      ],
      "stateMutability": "view",
      "type": "function"
    },
    {
      "inputs": [],
      "name": "proposalCount",
      "outputs": [
        {
          "internalType": "uint256",
          "name": "",
          "type": "uint256"
        }
      ],
      "stateMutability": "view",
      "type": "function"
    },
    {
      "inputs": [
        {
          "internalType": "uint256",
          "name": "",
          "type": "uint256"
        }
      ],
      "name": "proposals",
      "outputs": [
        {
          "internalType": "uint256",
          "name": "id",
          "type": "uint256"
        },
        {
          "internalType": "string",
          "name": "title",
          "type": "string"
        },
        {
          "internalType": "string",
          "name": "description",
          "type": "string"
        },
        {
          "internalType": "address",
          "name": "proposer",
          "type": "address"
        },
        {
          "internalType": "uint256",
          "name": "yesVotes",
          "type": "uint256"
        },
        {
          "internalType": "uint256",
          "name": "noVotes",
          "type": "uint256"
        },
        {
          "internalType": "enum PrivateDAOVoting.ProposalState",
          "name": "state",
          "type": "uint8"
        },
        {
          "internalType": "uint256",
          "name": "createdAt",
          "type": "uint256"
        },
        {
          "internalType": "uint256",
          "name": "votingStart",
          "type": "uint256"
        },
        {
          "internalType": "uint256",
          "name": "votingEnd",
          "type": "uint256"
        },
        {
          "internalType": "bytes32",
          "name": "voterSetRoot",
          "type": "bytes32"
        },
        {
          "internalType": "uint256",
          "name": "minReputationRequired",
          "type": "uint256"
        }
      ],
      "stateMutability": "view",
      "type": "function"
    },
    {
      "inputs": [],
      "name": "quorumPercentage",
      "outputs": [
        {
          "internalType": "uint256",
          "name": "",
          "type": "uint256"
        }
      ],
      "stateMutability": "view",
      "type": "function"
    },
    {
      "inputs": [
        {
          "internalType": "bytes32",
          "name": "commitment",
          "type": "bytes32"
        }
      ],
      "name": "registerVoter",
      "outputs": [],
      "stateMutability": "nonpayable",
      "type": "function"
    },
    {
      "inputs": [],
      "name": "renounceOwnership",
      "outputs": [],
      "stateMutability": "nonpayable",
      "type": "function"
    },
    {
      "inputs": [],
      "name": "reputationManager",
      "outputs": [
        {
          "internalType": "contract IReputationManager",
          "name": "",
          "type": "address"
        }
      ],
      "stateMutability": "view",
      "type": "function"
    },
    {
      "inputs": [
        {
          "internalType": "address",
          "name": "_didRegistry",
          "type": "address"
        }
      ],
      "name": "setDIDRegistry",
      "outputs": [],
      "stateMutability": "nonpayable",
      "type": "function"
    },
    {
      "inputs": [
        {
          "internalType": "uint256",
          "name": "_amount",
          "type": "uint256"
        }
      ],
      "name": "setMinReputationToPropose",
      "outputs": [],
      "stateMutability": "nonpayable",
      "type": "function"
    },
    {
      "inputs": [
        {
          "internalType": "uint256",
          "name": "_proposalId",
          "type": "uint256"
        }
      ],
      "name": "startVoting",
      "outputs": [],
      "stateMutability": "nonpayable",
      "type": "function"
    },
    {
      "inputs": [
        {
          "internalType": "string",
          "name": "_title",
          "type": "string"
        },
        {
          "internalType": "string",
          "name": "_description",
          "type": "string"
        },
        {
          "internalType": "uint256",
          "name": "_minReputationRequired",
          "type": "uint256"
        }
      ],
      "name": "submitProposal",
      "outputs": [],
      "stateMutability": "nonpayable",
      "type": "function"
    },
    {
      "inputs": [
        {
          "internalType": "address",
          "name": "newOwner",
          "type": "address"
        }
      ],
      "name": "transferOwnership",
      "outputs": [],
      "stateMutability": "nonpayable",
      "type": "function"
    },
    {
      "inputs": [
        {
          "internalType": "bytes32",
          "name": "newRoot",
          "type": "bytes32"
        }
      ],
      "name": "updateVoterSetRoot",
      "outputs": [],
      "stateMutability": "nonpayable",
      "type": "function"
    },
    {
      "inputs": [],
      "name": "verifier",
      "outputs": [
        {
          "internalType": "contract Groth16Verifier",
          "name": "",
          "type": "address"
        }
      ],
      "stateMutability": "view",
      "type": "function"
    },
    {
      "inputs": [
        {
          "internalType": "bytes32",
          "name": "",
          "type": "bytes32"
        }
      ],
      "name": "voterCommitments",
      "outputs": [
        {
          "internalType": "bool",
          "name": "",
          "type": "bool"
        }
      ],
      "stateMutability": "view",
      "type": "function"
    },
    {
      "inputs": [],
      "name": "votingDelay",
      "outputs": [
        {
          "internalType": "uint256",
          "name": "",
          "type": "uint256"
        }
      ],
      "stateMutability": "view",
      "type": "function"
    },
    {
      "inputs": [],
      "name": "votingPeriod",
      "outputs": [
        {
          "internalType": "uint256",
          "name": "",
          "type": "uint256"
        }
      ],
      "stateMutability": "view",
      "type": "function"
    }
  ],
  "bytecode": "0x6080604052610e1060095562093a80600a556028600b556032600c5534801561002757600080fd5b5060405161223d38038061223d833981016040819052610046916101d9565b806001600160a01b03811661007657604051631e4fbdf760e01b8152600060048201526024015b60405180910390fd5b61007f8161016d565b50600180556001600160a01b0383166100da5760405162461bcd60e51b815260206004820152601860248201527f496e76616c696420766572696669657220616464726573730000000000000000604482015260640161006d565b6001600160a01b03821661013b5760405162461bcd60e51b815260206004820152602260248201527f496e76616c69642072657075746174696f6e206d616e61676572206164647265604482015261737360f01b606482015260840161006d565b50600280546001600160a01b039384166001600160a01b0319918216179091556003805492909316911617905561021c565b600080546001600160a01b038381166001600160a01b0319831681178455604051919092169283917f8be0079c531659141344cd1fd0a4f28419497f9722a3daafe3b4186f6b6457e09190a35050565b80516001600160a01b03811681146101d457600080fd5b919050565b6000806000606084860312156101ee57600080fd5b6101f7846101bd565b9250610205602085016101bd565b9150610213604085016101bd565b90509250925092565b6120128061022b6000396000f3fe608060405234801561001057600080fd5b50600436106101c45760003560e01c80638da5cb5b116100f9578063d0e902d111610097578063e0a8f6f511610071578063e0a8f6f5146103ce578063f186879b146103e1578063f19ea903146103f4578063f2fde38b1461042257600080fd5b8063d0e902d1146103b3578063d249f431146103bc578063da35c664146103c557600080fd5b8063c16b1764116100d3578063c16b17641461034a578063c55696b81461035d578063c7f758a814610370578063d0c2a6091461039057600080fd5b80638da5cb5b146103135780638fca9fac14610324578063ba8554c71461033757600080fd5b8063577f9fb11161016657806371015e0a1161014057806371015e0a146102d2578063715018a6146102e557806374417bf4146102ed578063793c5d211461030057600080fd5b8063577f9fb114610279578063620b53051461028c5780636b868afb146102bf57600080fd5b80633932abb1116101a25780633932abb11461023f5780633d2f5bda146102485780634fa76ec91461025d5780635652077c1461026657600080fd5b8063013cf08b146101c957806302a251a3146101fd5780632b7ac3f314610214575b600080fd5b6101dc6101d73660046117e2565b610435565b6040516101f49c9b9a99989796959493929190611879565b60405180910390f35b610206600a5481565b6040519081526020016101f4565b600254610227906001600160a01b031681565b6040516001600160a01b0390911681526020016101f4565b61020660095481565b61025b6102563660046117e2565b6105b1565b005b610206600b5481565b61025b6102743660046117e2565b6106a8565b600454610227906001600160a01b031681565b6102af61029a3660046117e2565b60009081526007602052604090205460ff1690565b60405190151581526020016101f4565b600354610227906001600160a01b031681565b61025b6102e0366004611906565b610802565b61025b6108aa565b6102af6102fb366004611936565b6108be565b61025b61030e3660046117e2565b6108e2565b6000546001600160a01b0316610227565b61025b6103323660046117e2565b610a27565b61025b610345366004611a0f565b610aa8565b61025b6103583660046117e2565b610e52565b61025b61036b366004611a82565b610e5f565b61038361037e3660046117e2565b610f98565b6040516101f49190611af9565b6102af61039e3660046117e2565b60076020526000908152604090205460ff1681565b610206600c5481565b610206600d5481565b61020660085481565b61025b6103dc3660046117e2565b61117f565b61025b6103ef366004611c5d565b6112ad565b6102af610402366004611936565b600660209081526000928352604080842090915290825290205460ff1681565b61025b610430366004611906565b61167f565b6005602052600090815260409020805460018201805491929161045790611d26565b80601f016020809104026020016040519081016040528092919081815260200182805461048390611d26565b80156104d05780601f106104a5576101008083540402835291602001916104d0565b820191906000526020600020905b8154815290600101906020018083116104b357829003601f168201915b5050505050908060020180546104e590611d26565b80601f016020809104026020016040519081016040528092919081815260200182805461051190611d26565b801561055e5780601f106105335761010080835404028352916020019161055e565b820191906000526020600020905b81548152906001019060200180831161054157829003601f168201915b50505060038401546004850154600586015460068701546007880154600889015460098a0154600a8b0154600b909b0154999a6001600160a01b039097169995985093965060ff9092169490939192918c565b600081815260056020526040812090600682015460ff1660058111156105d9576105d9611841565b146106195760405162461bcd60e51b815260206004820152600b60248201526a4e6f742070656e64696e6760a81b60448201526064015b60405180910390fd5b80600801544210156106595760405162461bcd60e51b8152602060048201526009602482015268546f6f206561726c7960b81b6044820152606401610610565b60068101805460ff1916600190811790915560405183917fd6b3a81dd8b7dc419d8d0f20797397ea2eaba914386b89898aa638438803a1ec9161069c9190611d60565b60405180910390a25050565b60008181526005602052604090206001600682015460ff1660058111156106d1576106d1611841565b1461070b5760405162461bcd60e51b815260206004820152600a6024820152694e6f742061637469766560b01b6044820152606401610610565b8060090154421161074a5760405162461bcd60e51b8152602060048201526009602482015268139bdd08195b99195960ba1b6044820152606401610610565b6000816005015482600401546107609190611d84565b905080600003610786576006820180546003919060ff19166001835b02179055506107bc565b8160050154826004015411156107ac576006820180546002919060ff191660018361077c565b60068201805460ff191660031790555b600682015460405184917fd6b3a81dd8b7dc419d8d0f20797397ea2eaba914386b89898aa638438803a1ec916107f59160ff1690611d60565b60405180910390a2505050565b61080a6116bd565b6001600160a01b0381166108605760405162461bcd60e51b815260206004820152601860248201527f496e76616c6964207265676973747279206164647265737300000000000000006044820152606401610610565b600480546001600160a01b0319166001600160a01b0383169081179091556040517f157ccc8b25cb42c7ec2e5d88024e7c10238cd86f07776d1d55174cbf6ee4f59290600090a250565b6108b26116bd565b6108bc60006116ea565b565b600082815260066020908152604080832084845290915290205460ff165b92915050565b6004546001600160a01b0316331461094e5760405162461bcd60e51b815260206004820152602960248201527f43616c6c6572206973206e6f742074686520617574686f72697a65642044494460448201526820526567697374727960b81b6064820152608401610610565b806109905760405162461bcd60e51b8152602060048201526012602482015271125b9d985b1a590818dbdb5b5a5d1b595b9d60721b6044820152606401610610565b60008181526007602052604090205460ff16156109e45760405162461bcd60e51b8152602060048201526012602482015271105b1c9958591e481c9959da5cdd195c995960721b6044820152606401610610565b600081815260076020526040808220805460ff191660011790555182917fe1e93aab4d6cae623ae197f9c4d63ac5eede4c69f9d0fbc92e4dbb0766abd11591a250565b610a2f6116bd565b80610a6b5760405162461bcd60e51b815260206004820152600c60248201526b125b9d985b1a59081c9bdbdd60a21b6044820152606401610610565b600d81905560405142815281907f9dc79e6d56752c3d9c2ed7457371e9dc454a01492ed011e981bfdef6975da5469060200160405180910390a250565b610ab061173a565b6000835111610af25760405162461bcd60e51b815260206004820152600e60248201526d151a5d1b19481c995c5d5a5c995960921b6044820152606401610610565b6000825111610b3a5760405162461bcd60e51b815260206004820152601460248201527311195cd8dc9a5c1d1a5bdb881c995c5d5a5c995960621b6044820152606401610610565b600d54610b895760405162461bcd60e51b815260206004820152601960248201527f566f74657220736574206e6f7420696e697469616c697a6564000000000000006044820152606401610610565b600c54600354604051631d699f5760e21b81523360048201526001600160a01b03909116906375a67d5c90602401602060405180830381865afa158015610bd4573d6000803e3d6000fd5b505050506040513d601f19601f82011682018060405250810190610bf89190611d97565b1015610c595760405162461bcd60e51b815260206004820152602a60248201527f496e73756666696369656e742072657075746174696f6e20746f20637265617460448201526919481c1c9bdc1bdcd85b60b21b6064820152608401610610565b60088054906000610c6983611db0565b9190505550600060095442610c7e9190611d84565b90506000600a5482610c909190611d84565b90506040518061018001604052806008548152602001868152602001858152602001336001600160a01b03168152602001600081526020016000815260200160006005811115610ce257610ce2611841565b8152602001428152602001838152602001828152602001600d54815260200184815250600560006008548152602001908152602001600020600082015181600001556020820151816001019081610d399190611e17565b5060408201516002820190610d4e9082611e17565b5060608201518160030160006101000a8154816001600160a01b0302191690836001600160a01b031602179055506080820151816004015560a0820151816005015560c08201518160060160006101000a81548160ff02191690836005811115610dba57610dba611841565b021790555060e082015181600701556101008201518160080155610120820151816009015561014082015181600a015561016082015181600b0155905050336001600160a01b03166008547f3c9679db2e099dbc1b8385d8d908b60224acb3acb7d4e5d4501b73c102472b5487600d5487604051610e3a93929190611ed6565b60405180910390a35050610e4d60018055565b505050565b610e5a6116bd565b600c55565b610e676116bd565b60005b81811015610e4d576000838383818110610e8657610e86611efb565b9050602002013503610ecf5760405162461bcd60e51b8152602060048201526012602482015271125b9d985b1a590818dbdb5b5a5d1b595b9d60721b6044820152606401610610565b60076000848484818110610ee557610ee5611efb565b602090810292909201358352508101919091526040016000205460ff16610f9057600160076000858585818110610f1e57610f1e611efb565b90506020020135815260200190815260200160002060006101000a81548160ff021916908315150217905550828282818110610f5c57610f5c611efb565b905060200201357fe1e93aab4d6cae623ae197f9c4d63ac5eede4c69f9d0fbc92e4dbb0766abd11560405160405180910390a25b600101610e6a565b610fa0611764565b600560008381526020019081526020016000206040518061018001604052908160008201548152602001600182018054610fd990611d26565b80601f016020809104026020016040519081016040528092919081815260200182805461100590611d26565b80156110525780601f1061102757610100808354040283529160200191611052565b820191906000526020600020905b81548152906001019060200180831161103557829003601f168201915b5050505050815260200160028201805461106b90611d26565b80601f016020809104026020016040519081016040528092919081815260200182805461109790611d26565b80156110e45780601f106110b9576101008083540402835291602001916110e4565b820191906000526020600020905b8154815290600101906020018083116110c757829003601f168201915b505050918352505060038201546001600160a01b03166020820152600482015460408201526005808301546060830152600683015460809092019160ff169081111561113257611132611841565b600581111561114357611143611841565b8152600782015460208201526008820154604082015260098201546060820152600a8201546080820152600b9091015460a09091015292915050565b600081815260056020526040902060038101546001600160a01b03163314806111b257506000546001600160a01b031633145b6111ef5760405162461bcd60e51b815260206004820152600e60248201526d139bdd08185d5d1a1bdc9a5e995960921b6044820152606401610610565b6000600682015460ff16600581111561120a5761120a611841565b148061122e57506001600682015460ff16600581111561122c5761122c611841565b145b61126a5760405162461bcd60e51b815260206004820152600d60248201526c10d85b9b9bdd0818d85b98d95b609a1b6044820152606401610610565b60068101805460ff1916600590811790915560405183917fd6b3a81dd8b7dc419d8d0f20797397ea2eaba914386b89898aa638438803a1ec9161069c9190611d60565b6112b561173a565b60008781526005602052604090206001600682015460ff1660058111156112de576112de611841565b146113185760405162461bcd60e51b815260206004820152600a6024820152694e6f742061637469766560b01b6044820152606401610610565b806008015442101561135a5760405162461bcd60e51b815260206004820152600b60248201526a139bdd081cdd185c9d195960aa1b6044820152606401610610565b80600901544211156113965760405162461bcd60e51b8152602060048201526005602482015264115b99195960da1b6044820152606401610610565b600088815260066020908152604080832089845290915290205460ff16156113f05760405162461bcd60e51b815260206004820152600d60248201526c105b1c9958591e481d9bdd1959609a1b6044820152606401610610565b815186146114355760405162461bcd60e51b815260206004820152601260248201527109cead8d8d2ccd2cae440dad2e6dac2e8c6d60731b6044820152606401610610565b6020820151600a8201541461147b5760405162461bcd60e51b815260206004820152600c60248201526b125b9d985b1a59081c9bdbdd60a21b6044820152606401610610565b604082015188146114c45760405162461bcd60e51b8152602060048201526013602482015272125b9d985b1a59081c1c9bdc1bdcd85b081251606a1b6044820152606401610610565b6060820151876114d55760006114d8565b60015b60ff161461151e5760405162461bcd60e51b8152602060048201526013602482015272496e76616c696420766f74652063686f69636560681b6044820152606401610610565b600254604051635fe8c13b60e01b81526001600160a01b0390911690635fe8c13b90611554908890889088908890600401611f3a565b602060405180830381865afa158015611571573d6000803e3d6000fd5b505050506040513d601f19601f820116820180604052508101906115959190611fbf565b6115d15760405162461bcd60e51b815260206004820152600d60248201526c24b73b30b634b210383937b7b360991b6044820152606401610610565b60008881526006602090815260408083208984529091529020805460ff1916600117905586156116175760048101805490600061160d83611db0565b919050555061162f565b60058101805490600061162983611db0565b91905055505b85887f75487a8ccdee2b2c115434c90dda155352df8a832b9d1ffd673623ef0575903d89604051611664911515815260200190565b60405180910390a35061167660018055565b50505050505050565b6116876116bd565b6001600160a01b0381166116b157604051631e4fbdf760e01b815260006004820152602401610610565b6116ba816116ea565b50565b6000546001600160a01b031633146108bc5760405163118cdaa760e01b8152336004820152602401610610565b600080546001600160a01b038381166001600160a01b0319831681178455604051919092169283917f8be0079c531659141344cd1fd0a4f28419497f9722a3daafe3b4186f6b6457e09190a35050565b60026001540361175d57604051633ee5aeb560e01b815260040160405180910390fd5b6002600155565b60405180610180016040528060008152602001606081526020016060815260200160006001600160a01b031681526020016000815260200160008152602001600060058111156117b6576117b6611841565b815260200160008152602001600081526020016000815260200160008019168152602001600081525090565b6000602082840312156117f457600080fd5b5035919050565b6000815180845260005b8181101561182157602081850181015186830182015201611805565b506000602082860101526020601f19601f83011685010191505092915050565b634e487b7160e01b600052602160045260246000fd5b6006811061187557634e487b7160e01b600052602160045260246000fd5b9052565b8c81526101806020820152600061189461018083018e6117fb565b82810360408401526118a6818e6117fb565b6001600160a01b038d166060850152608084018c905260a084018b905291506118d4905060c0830189611857565b60e082019690965261010081019490945261012084019290925261014083015261016090910152979650505050505050565b60006020828403121561191857600080fd5b81356001600160a01b038116811461192f57600080fd5b9392505050565b6000806040838503121561194957600080fd5b50508035926020909101359150565b634e487b7160e01b600052604160045260246000fd5b604051601f8201601f1916810167ffffffffffffffff8111828210171561199757611997611958565b604052919050565b600082601f8301126119b057600080fd5b813567ffffffffffffffff8111156119ca576119ca611958565b6119dd601f8201601f191660200161196e565b8181528460208386010111156119f257600080fd5b816020850160208301376000918101602001919091529392505050565b600080600060608486031215611a2457600080fd5b833567ffffffffffffffff811115611a3b57600080fd5b611a478682870161199f565b935050602084013567ffffffffffffffff811115611a6457600080fd5b611a708682870161199f565b93969395505050506040919091013590565b60008060208385031215611a9557600080fd5b823567ffffffffffffffff811115611aac57600080fd5b8301601f81018513611abd57600080fd5b803567ffffffffffffffff811115611ad457600080fd5b8560208260051b8401011115611ae957600080fd5b6020919091019590945092505050565b6020815281516020820152600060208301516101806040840152611b216101a08401826117fb565b90506040840151601f19848303016060850152611b3e82826117fb565b9150506060840151611b5b60808501826001600160a01b03169052565b50608084015160a084015260a084015160c084015260c0840151611b8260e0850182611857565b5060e08401516101008401526101008401516101208401526101208401516101408401526101408401516101608401526101608401516101808401528091505092915050565b80151581146116ba57600080fd5b600082601f830112611be757600080fd5b6000611bf3604061196e565b9050806040840185811115611c0757600080fd5b845b81811015611c21578035835260209283019201611c09565b509195945050505050565b600082601f830112611c3d57600080fd5b6000611c49608061196e565b9050806080840185811115611c0757600080fd5b60008060008060008060006101e0888a031215611c7957600080fd5b873596506020880135611c8b81611bc8565b955060408801359450611ca18960608a01611bd6565b93508860bf890112611cb257600080fd5b6040611cbd8161196e565b806101208b018c811115611cd057600080fd5b60a08c015b81811015611cf657611ce78e82611bd6565b84526020909301928401611cd5565b50819650611d048d82611bd6565b955050505050611d18896101608a01611c2c565b905092959891949750929550565b600181811c90821680611d3a57607f821691505b602082108103611d5a57634e487b7160e01b600052602260045260246000fd5b50919050565b602081016108dc8284611857565b634e487b7160e01b600052601160045260246000fd5b808201808211156108dc576108dc611d6e565b600060208284031215611da957600080fd5b5051919050565b600060018201611dc257611dc2611d6e565b5060010190565b601f821115610e4d57806000526020600020601f840160051c81016020851015611df05750805b601f840160051c820191505b81811015611e105760008155600101611dfc565b5050505050565b815167ffffffffffffffff811115611e3157611e31611958565b611e4581611e3f8454611d26565b84611dc9565b6020601f821160018114611e795760008315611e615750848201515b600019600385901b1c1916600184901b178455611e10565b600084815260208120601f198516915b82811015611ea95787850151825560209485019460019092019101611e89565b5084821015611ec75786840151600019600387901b60f8161c191681555b50505050600190811b01905550565b606081526000611ee960608301866117fb565b60208301949094525060400152919050565b634e487b7160e01b600052603260045260246000fd5b8060005b6002811015611f34578151845260209384019390910190600101611f15565b50505050565b6101808101611f498287611f11565b604082018560005b6002811015611f7b57611f65838351611f11565b6040929092019160209190910190600101611f51565b505050611f8b60c0830185611f11565b61010082018360005b6004811015611fb3578151835260209283019290910190600101611f94565b50505095945050505050565b600060208284031215611fd157600080fd5b815161192f81611bc856fea2646970667358221220e42e44771edb91ba5389bcbe6b9f66fbe4bfe608fa78fd63ed5d2ab4bb0f3fe764736f6c634300081c0033",
  "linkReferences": {},
  "deployedLinkReferences": {}
}