{
  "_format": "hh-sol-artifact-1",
  "contractName": "PrivateDAOVoting",
  "sourceName": "contracts/core/PrivateDAOVoting.sol",
  "abi": [
    {
      "inputs": [
        {
          "internalType": "address",
          "name": "_verifier",
          "type": "address"
        },
        {
          "internalType": "address",
          "name": "initialOwner",
          "type": "address"
        }
      ],
      "stateMutability": "nonpayable",
      "type": "constructor"
    },
    {
      "inputs": [
        {
          "internalType": "address",
          "name": "owner",
          "type": "address"
        }
      ],
      "name": "OwnableInvalidOwner",
      "type": "error"
    },
    {
      "inputs": [
        {
          "internalType": "address",
          "name": "account",
          "type": "address"
        }
      ],
      "name": "OwnableUnauthorizedAccount",
      "type": "error"
    },
    {
      "inputs": [],
      "name": "ReentrancyGuardReentrantCall",
      "type": "error"
    },
    {
      "anonymous": false,
      "inputs": [
        {
          "indexed": true,
          "internalType": "address",
          "name": "previousOwner",
          "type": "address"
        },
        {
          "indexed": true,
          "internalType": "address",
          "name": "newOwner",
          "type": "address"
        }
      ],
      "name": "OwnershipTransferred",
      "type": "event"
    },
    {
      "anonymous": false,
      "inputs": [
        {
          "indexed": true,
          "internalType": "uint256",
          "name": "proposalId",
          "type": "uint256"
        },
        {
          "indexed": true,
          "internalType": "bytes32",
          "name": "nullifier",
          "type": "bytes32"
        },
        {
          "indexed": false,
          "internalType": "bool",
          "name": "support",
          "type": "bool"
        }
      ],
      "name": "PrivateVoteCast",
      "type": "event"
    },
    {
      "anonymous": false,
      "inputs": [
        {
          "indexed": true,
          "internalType": "uint256",
          "name": "proposalId",
          "type": "uint256"
        },
        {
          "indexed": true,
          "internalType": "address",
          "name": "proposer",
          "type": "address"
        },
        {
          "indexed": false,
          "internalType": "string",
          "name": "title",
          "type": "string"
        },
        {
          "indexed": false,
          "internalType": "bytes32",
          "name": "voterSetRoot",
          "type": "bytes32"
        }
      ],
      "name": "ProposalCreated",
      "type": "event"
    },
    {
      "anonymous": false,
      "inputs": [
        {
          "indexed": true,
          "internalType": "uint256",
          "name": "proposalId",
          "type": "uint256"
        },
        {
          "indexed": false,
          "internalType": "enum PrivateDAOVoting.ProposalState",
          "name": "newState",
          "type": "uint8"
        }
      ],
      "name": "ProposalStateChanged",
      "type": "event"
    },
    {
      "anonymous": false,
      "inputs": [
        {
          "indexed": true,
          "internalType": "bytes32",
          "name": "commitment",
          "type": "bytes32"
        }
      ],
      "name": "VoterRegistered",
      "type": "event"
    },
    {
      "anonymous": false,
      "inputs": [
        {
          "indexed": true,
          "internalType": "bytes32",
          "name": "newRoot",
          "type": "bytes32"
        },
        {
          "indexed": false,
          "internalType": "uint256",
          "name": "timestamp",
          "type": "uint256"
        }
      ],
      "name": "VoterSetUpdated",
      "type": "event"
    },
    {
      "inputs": [
        {
          "internalType": "bytes32[]",
          "name": "commitments",
          "type": "bytes32[]"
        }
      ],
      "name": "batchRegisterVoters",
      "outputs": [],
      "stateMutability": "nonpayable",
      "type": "function"
    },
    {
      "inputs": [
        {
          "internalType": "uint256",
          "name": "_proposalId",
          "type": "uint256"
        }
      ],
      "name": "cancelProposal",
      "outputs": [],
      "stateMutability": "nonpayable",
      "type": "function"
    },
    {
      "inputs": [
        {
          "internalType": "uint256",
          "name": "_proposalId",
          "type": "uint256"
        },
        {
          "internalType": "bool",
          "name": "_support",
          "type": "bool"
        },
        {
          "internalType": "bytes32",
          "name": "_nullifier",
          "type": "bytes32"
        },
        {
          "internalType": "uint256[2]",
          "name": "_proof_a",
          "type": "uint256[2]"
        },
        {
          "internalType": "uint256[2][2]",
          "name": "_proof_b",
          "type": "uint256[2][2]"
        },
        {
          "internalType": "uint256[2]",
          "name": "_proof_c",
          "type": "uint256[2]"
        },
        {
          "internalType": "uint256[4]",
          "name": "_publicSignals",
          "type": "uint256[4]"
        }
      ],
      "name": "castPrivateVote",
      "outputs": [],
      "stateMutability": "nonpayable",
      "type": "function"
    },
    {
      "inputs": [],
      "name": "currentVoterSetRoot",
      "outputs": [
        {
          "internalType": "bytes32",
          "name": "",
          "type": "bytes32"
        }
      ],
      "stateMutability": "view",
      "type": "function"
    },
    {
      "inputs": [
        {
          "internalType": "uint256",
          "name": "_proposalId",
          "type": "uint256"
        }
      ],
      "name": "finalizeProposal",
      "outputs": [],
      "stateMutability": "nonpayable",
      "type": "function"
    },
    {
      "inputs": [
        {
          "internalType": "uint256",
          "name": "_proposalId",
          "type": "uint256"
        }
      ],
      "name": "getProposal",
      "outputs": [
        {
          "components": [
            {
              "internalType": "uint256",
              "name": "id",
              "type": "uint256"
            },
            {
              "internalType": "string",
              "name": "title",
              "type": "string"
            },
            {
              "internalType": "string",
              "name": "description",
              "type": "string"
            },
            {
              "internalType": "address",
              "name": "proposer",
              "type": "address"
            },
            {
              "internalType": "uint256",
              "name": "yesVotes",
              "type": "uint256"
            },
            {
              "internalType": "uint256",
              "name": "noVotes",
              "type": "uint256"
            },
            {
              "internalType": "enum PrivateDAOVoting.ProposalState",
              "name": "state",
              "type": "uint8"
            },
            {
              "internalType": "uint256",
              "name": "createdAt",
              "type": "uint256"
            },
            {
              "internalType": "uint256",
              "name": "votingStart",
              "type": "uint256"
            },
            {
              "internalType": "uint256",
              "name": "votingEnd",
              "type": "uint256"
            },
            {
              "internalType": "bytes32",
              "name": "voterSetRoot",
              "type": "bytes32"
            }
          ],
          "internalType": "struct PrivateDAOVoting.Proposal",
          "name": "",
          "type": "tuple"
        }
      ],
      "stateMutability": "view",
      "type": "function"
    },
    {
      "inputs": [
        {
          "internalType": "uint256",
          "name": "_proposalId",
          "type": "uint256"
        },
        {
          "internalType": "bytes32",
          "name": "_nullifier",
          "type": "bytes32"
        }
      ],
      "name": "hasVoted",
      "outputs": [
        {
          "internalType": "bool",
          "name": "",
          "type": "bool"
        }
      ],
      "stateMutability": "view",
      "type": "function"
    },
    {
      "inputs": [
        {
          "internalType": "bytes32",
          "name": "_commitment",
          "type": "bytes32"
        }
      ],
      "name": "isCommitmentRegistered",
      "outputs": [
        {
          "internalType": "bool",
          "name": "",
          "type": "bool"
        }
      ],
      "stateMutability": "view",
      "type": "function"
    },
    {
      "inputs": [
        {
          "internalType": "uint256",
          "name": "",
          "type": "uint256"
        },
        {
          "internalType": "bytes32",
          "name": "",
          "type": "bytes32"
        }
      ],
      "name": "nullifiers",
      "outputs": [
        {
          "internalType": "bool",
          "name": "",
          "type": "bool"
        }
      ],
      "stateMutability": "view",
      "type": "function"
    },
    {
      "inputs": [],
      "name": "owner",
      "outputs": [
        {
          "internalType": "address",
          "name": "",
          "type": "address"
        }
      ],
      "stateMutability": "view",
      "type": "function"
    },
    {
      "inputs": [],
      "name": "proposalCount",
      "outputs": [
        {
          "internalType": "uint256",
          "name": "",
          "type": "uint256"
        }
      ],
      "stateMutability": "view",
      "type": "function"
    },
    {
      "inputs": [
        {
          "internalType": "uint256",
          "name": "",
          "type": "uint256"
        }
      ],
      "name": "proposals",
      "outputs": [
        {
          "internalType": "uint256",
          "name": "id",
          "type": "uint256"
        },
        {
          "internalType": "string",
          "name": "title",
          "type": "string"
        },
        {
          "internalType": "string",
          "name": "description",
          "type": "string"
        },
        {
          "internalType": "address",
          "name": "proposer",
          "type": "address"
        },
        {
          "internalType": "uint256",
          "name": "yesVotes",
          "type": "uint256"
        },
        {
          "internalType": "uint256",
          "name": "noVotes",
          "type": "uint256"
        },
        {
          "internalType": "enum PrivateDAOVoting.ProposalState",
          "name": "state",
          "type": "uint8"
        },
        {
          "internalType": "uint256",
          "name": "createdAt",
          "type": "uint256"
        },
        {
          "internalType": "uint256",
          "name": "votingStart",
          "type": "uint256"
        },
        {
          "internalType": "uint256",
          "name": "votingEnd",
          "type": "uint256"
        },
        {
          "internalType": "bytes32",
          "name": "voterSetRoot",
          "type": "bytes32"
        }
      ],
      "stateMutability": "view",
      "type": "function"
    },
    {
      "inputs": [],
      "name": "quorumPercentage",
      "outputs": [
        {
          "internalType": "uint256",
          "name": "",
          "type": "uint256"
        }
      ],
      "stateMutability": "view",
      "type": "function"
    },
    {
      "inputs": [
        {
          "internalType": "bytes32",
          "name": "commitment",
          "type": "bytes32"
        }
      ],
      "name": "registerVoter",
      "outputs": [],
      "stateMutability": "nonpayable",
      "type": "function"
    },
    {
      "inputs": [],
      "name": "renounceOwnership",
      "outputs": [],
      "stateMutability": "nonpayable",
      "type": "function"
    },
    {
      "inputs": [
        {
          "internalType": "uint256",
          "name": "_proposalId",
          "type": "uint256"
        }
      ],
      "name": "startVoting",
      "outputs": [],
      "stateMutability": "nonpayable",
      "type": "function"
    },
    {
      "inputs": [
        {
          "internalType": "string",
          "name": "_title",
          "type": "string"
        },
        {
          "internalType": "string",
          "name": "_description",
          "type": "string"
        }
      ],
      "name": "submitProposal",
      "outputs": [],
      "stateMutability": "nonpayable",
      "type": "function"
    },
    {
      "inputs": [
        {
          "internalType": "address",
          "name": "newOwner",
          "type": "address"
        }
      ],
      "name": "transferOwnership",
      "outputs": [],
      "stateMutability": "nonpayable",
      "type": "function"
    },
    {
      "inputs": [
        {
          "internalType": "bytes32",
          "name": "newRoot",
          "type": "bytes32"
        }
      ],
      "name": "updateVoterSetRoot",
      "outputs": [],
      "stateMutability": "nonpayable",
      "type": "function"
    },
    {
      "inputs": [],
      "name": "verifier",
      "outputs": [
        {
          "internalType": "contract Groth16Verifier",
          "name": "",
          "type": "address"
        }
      ],
      "stateMutability": "view",
      "type": "function"
    },
    {
      "inputs": [
        {
          "internalType": "bytes32",
          "name": "",
          "type": "bytes32"
        }
      ],
      "name": "voterCommitments",
      "outputs": [
        {
          "internalType": "bool",
          "name": "",
          "type": "bool"
        }
      ],
      "stateMutability": "view",
      "type": "function"
    },
    {
      "inputs": [],
      "name": "votingDelay",
      "outputs": [
        {
          "internalType": "uint256",
          "name": "",
          "type": "uint256"
        }
      ],
      "stateMutability": "view",
      "type": "function"
    },
    {
      "inputs": [],
      "name": "votingPeriod",
      "outputs": [
        {
          "internalType": "uint256",
          "name": "",
          "type": "uint256"
        }
      ],
      "stateMutability": "view",
      "type": "function"
    }
  ],
  "bytecode": "0x6080604052610e1060075562093a80600855602860095534801561002257600080fd5b50604051611edc380380611edc83398101604081905261004191610167565b806001600160a01b03811661007157604051631e4fbdf760e01b8152600060048201526024015b60405180910390fd5b61007a816100fb565b50600180556001600160a01b0382166100d55760405162461bcd60e51b815260206004820152601860248201527f496e76616c6964207665726966696572206164647265737300000000000000006044820152606401610068565b50600280546001600160a01b0319166001600160a01b039290921691909117905561019a565b600080546001600160a01b038381166001600160a01b0319831681178455604051919092169283917f8be0079c531659141344cd1fd0a4f28419497f9722a3daafe3b4186f6b6457e09190a35050565b80516001600160a01b038116811461016257600080fd5b919050565b6000806040838503121561017a57600080fd5b6101838361014b565b91506101916020840161014b565b90509250929050565b611d33806101a96000396000f3fe608060405234801561001057600080fd5b506004361061014d5760003560e01c80638da5cb5b116100c3578063d249f4311161007c578063d249f431146102ef578063da35c664146102f8578063e0a8f6f514610301578063f186879b14610314578063f19ea90314610327578063f2fde38b1461035557600080fd5b80638da5cb5b146102625780638fca9fac14610273578063be0dc4b714610286578063c55696b814610299578063c7f758a8146102ac578063d0c2a609146102cc57600080fd5b80634fa76ec9116101155780634fa76ec9146101e55780635652077c146101ee578063620b530514610201578063715018a61461023457806374417bf41461023c578063793c5d211461024f57600080fd5b8063013cf08b1461015257806302a251a3146101855780632b7ac3f31461019c5780633932abb1146101c75780633d2f5bda146101d0575b600080fd5b61016561016036600461153c565b610368565b60405161017c9b9a999897969594939291906115d3565b60405180910390f35b61018e60085481565b60405190815260200161017c565b6002546101af906001600160a01b031681565b6040516001600160a01b03909116815260200161017c565b61018e60075481565b6101e36101de36600461153c565b6104dc565b005b61018e60095481565b6101e36101fc36600461153c565b6105d3565b61022461020f36600461153c565b60009081526005602052604090205460ff1690565b604051901515815260200161017c565b6101e361072d565b61022461024a366004611659565b610741565b6101e361025d36600461153c565b610765565b6000546001600160a01b03166101af565b6101e361028136600461153c565b610846565b6101e3610294366004611732565b6108c7565b6101e36102a736600461179b565b610b84565b6102bf6102ba36600461153c565b610d01565b60405161017c9190611812565b6102246102da36600461153c565b60056020526000908152604090205460ff1681565b61018e600a5481565b61018e60065481565b6101e361030f36600461153c565b610ede565b6101e361032236600461196a565b61100e565b610224610335366004611659565b600460209081526000928352604080842090915290825290205460ff1681565b6101e3610363366004611a33565b6113e0565b6003602052600090815260409020805460018201805491929161038a90611a63565b80601f01602080910402602001604051908101604052809291908181526020018280546103b690611a63565b80156104035780601f106103d857610100808354040283529160200191610403565b820191906000526020600020905b8154815290600101906020018083116103e657829003601f168201915b50505050509080600201805461041890611a63565b80601f016020809104026020016040519081016040528092919081815260200182805461044490611a63565b80156104915780601f1061046657610100808354040283529160200191610491565b820191906000526020600020905b81548152906001019060200180831161047457829003601f168201915b50505060038401546004850154600586015460068701546007880154600889015460098a0154600a909a015498996001600160a01b039096169894975092955060ff9091169390928b565b600081815260036020526040812090600682015460ff1660058111156105045761050461159b565b146105445760405162461bcd60e51b815260206004820152600b60248201526a4e6f742070656e64696e6760a81b60448201526064015b60405180910390fd5b80600801544210156105845760405162461bcd60e51b8152602060048201526009602482015268546f6f206561726c7960b81b604482015260640161053b565b60068101805460ff1916600190811790915560405183917fd6b3a81dd8b7dc419d8d0f20797397ea2eaba914386b89898aa638438803a1ec916105c79190611a9d565b60405180910390a25050565b60008181526003602052604090206001600682015460ff1660058111156105fc576105fc61159b565b146106365760405162461bcd60e51b815260206004820152600a6024820152694e6f742061637469766560b01b604482015260640161053b565b806009015442116106755760405162461bcd60e51b8152602060048201526009602482015268139bdd08195b99195960ba1b604482015260640161053b565b60008160050154826004015461068b9190611ac1565b9050806000036106b1576006820180546003919060ff19166001835b02179055506106e7565b8160050154826004015411156106d7576006820180546002919060ff19166001836106a7565b60068201805460ff191660031790555b600682015460405184917fd6b3a81dd8b7dc419d8d0f20797397ea2eaba914386b89898aa638438803a1ec916107209160ff1690611a9d565b60405180910390a2505050565b61073561141e565b61073f600061144b565b565b600082815260046020908152604080832084845290915290205460ff165b92915050565b61076d61141e565b806107af5760405162461bcd60e51b8152602060048201526012602482015271125b9d985b1a590818dbdb5b5a5d1b595b9d60721b604482015260640161053b565b60008181526005602052604090205460ff16156108035760405162461bcd60e51b8152602060048201526012602482015271105b1c9958591e481c9959da5cdd195c995960721b604482015260640161053b565b600081815260056020526040808220805460ff191660011790555182917fe1e93aab4d6cae623ae197f9c4d63ac5eede4c69f9d0fbc92e4dbb0766abd11591a250565b61084e61141e565b8061088a5760405162461bcd60e51b815260206004820152600c60248201526b125b9d985b1a59081c9bdbdd60a21b604482015260640161053b565b600a81905560405142815281907f9dc79e6d56752c3d9c2ed7457371e9dc454a01492ed011e981bfdef6975da5469060200160405180910390a250565b6108cf61149b565b60008251116109115760405162461bcd60e51b815260206004820152600e60248201526d151a5d1b19481c995c5d5a5c995960921b604482015260640161053b565b60008151116109595760405162461bcd60e51b815260206004820152601460248201527311195cd8dc9a5c1d1a5bdb881c995c5d5a5c995960621b604482015260640161053b565b600a546109a85760405162461bcd60e51b815260206004820152601960248201527f566f74657220736574206e6f7420696e697469616c697a656400000000000000604482015260640161053b565b600680549060006109b883611ad4565b91905055506000600754426109cd9190611ac1565b90506000600854826109df9190611ac1565b90506040518061016001604052806006548152602001858152602001848152602001336001600160a01b03168152602001600081526020016000815260200160006005811115610a3157610a3161159b565b8152602001428152602001838152602001828152602001600a54815250600360006006548152602001908152602001600020600082015181600001556020820151816001019081610a829190611b3b565b5060408201516002820190610a979082611b3b565b5060608201518160030160006101000a8154816001600160a01b0302191690836001600160a01b031602179055506080820151816004015560a0820151816005015560c08201518160060160006101000a81548160ff02191690836005811115610b0357610b0361159b565b021790555060e082015160078201556101008201516008820155610120820151600982015561014090910151600a9182015560065490546040513392917f9d3436a62d49e52b565fa3207edf5cce08b774f67847bb1697995b2ec51b233091610b6d918991611bfa565b60405180910390a35050610b8060018055565b5050565b610b8c61141e565b60005b81811015610cfc576000838383818110610bab57610bab611c1c565b9050602002013503610bf45760405162461bcd60e51b8152602060048201526012602482015271125b9d985b1a590818dbdb5b5a5d1b595b9d60721b604482015260640161053b565b60056000848484818110610c0a57610c0a611c1c565b602090810292909201358352508101919091526040016000205460ff1615610c6b5760405162461bcd60e51b8152602060048201526014602482015273111d5c1b1a58d85d194818dbdb5b5a5d1b595b9d60621b604482015260640161053b565b600160056000858585818110610c8357610c83611c1c565b90506020020135815260200190815260200160002060006101000a81548160ff021916908315150217905550828282818110610cc157610cc1611c1c565b905060200201357fe1e93aab4d6cae623ae197f9c4d63ac5eede4c69f9d0fbc92e4dbb0766abd11560405160405180910390a2600101610b8f565b505050565b610d096114c5565b600360008381526020019081526020016000206040518061016001604052908160008201548152602001600182018054610d4290611a63565b80601f0160208091040260200160405190810160405280929190818152602001828054610d6e90611a63565b8015610dbb5780601f10610d9057610100808354040283529160200191610dbb565b820191906000526020600020905b815481529060010190602001808311610d9e57829003601f168201915b50505050508152602001600282018054610dd490611a63565b80601f0160208091040260200160405190810160405280929190818152602001828054610e0090611a63565b8015610e4d5780601f10610e2257610100808354040283529160200191610e4d565b820191906000526020600020905b815481529060010190602001808311610e3057829003601f168201915b505050918352505060038201546001600160a01b03166020820152600482015460408201526005808301546060830152600683015460809092019160ff1690811115610e9b57610e9b61159b565b6005811115610eac57610eac61159b565b8152600782015460208201526008820154604082015260098201546060820152600a9091015460809091015292915050565b6000818152600360208190526040909120908101546001600160a01b0316331480610f1357506000546001600160a01b031633145b610f505760405162461bcd60e51b815260206004820152600e60248201526d139bdd08185d5d1a1bdc9a5e995960921b604482015260640161053b565b6000600682015460ff166005811115610f6b57610f6b61159b565b1480610f8f57506001600682015460ff166005811115610f8d57610f8d61159b565b145b610fcb5760405162461bcd60e51b815260206004820152600d60248201526c10d85b9b9bdd0818d85b98d95b609a1b604482015260640161053b565b60068101805460ff1916600590811790915560405183917fd6b3a81dd8b7dc419d8d0f20797397ea2eaba914386b89898aa638438803a1ec916105c79190611a9d565b61101661149b565b60008781526003602052604090206001600682015460ff16600581111561103f5761103f61159b565b146110795760405162461bcd60e51b815260206004820152600a6024820152694e6f742061637469766560b01b604482015260640161053b565b80600801544210156110bb5760405162461bcd60e51b815260206004820152600b60248201526a139bdd081cdd185c9d195960aa1b604482015260640161053b565b80600901544211156110f75760405162461bcd60e51b8152602060048201526005602482015264115b99195960da1b604482015260640161053b565b600088815260046020908152604080832089845290915290205460ff16156111515760405162461bcd60e51b815260206004820152600d60248201526c105b1c9958591e481d9bdd1959609a1b604482015260640161053b565b815186146111965760405162461bcd60e51b815260206004820152601260248201527109cead8d8d2ccd2cae440dad2e6dac2e8c6d60731b604482015260640161053b565b6020820151600a820154146111dc5760405162461bcd60e51b815260206004820152600c60248201526b125b9d985b1a59081c9bdbdd60a21b604482015260640161053b565b604082015188146112255760405162461bcd60e51b8152602060048201526013602482015272125b9d985b1a59081c1c9bdc1bdcd85b081251606a1b604482015260640161053b565b606082015187611236576000611239565b60015b60ff161461127f5760405162461bcd60e51b8152602060048201526013602482015272496e76616c696420766f74652063686f69636560681b604482015260640161053b565b600254604051635fe8c13b60e01b81526001600160a01b0390911690635fe8c13b906112b5908890889088908890600401611c5b565b602060405180830381865afa1580156112d2573d6000803e3d6000fd5b505050506040513d601f19601f820116820180604052508101906112f69190611ce0565b6113325760405162461bcd60e51b815260206004820152600d60248201526c24b73b30b634b210383937b7b360991b604482015260640161053b565b60008881526004602090815260408083208984529091529020805460ff1916600117905586156113785760048101805490600061136e83611ad4565b9190505550611390565b60058101805490600061138a83611ad4565b91905055505b85887f75487a8ccdee2b2c115434c90dda155352df8a832b9d1ffd673623ef0575903d896040516113c5911515815260200190565b60405180910390a3506113d760018055565b50505050505050565b6113e861141e565b6001600160a01b03811661141257604051631e4fbdf760e01b81526000600482015260240161053b565b61141b8161144b565b50565b6000546001600160a01b0316331461073f5760405163118cdaa760e01b815233600482015260240161053b565b600080546001600160a01b038381166001600160a01b0319831681178455604051919092169283917f8be0079c531659141344cd1fd0a4f28419497f9722a3daafe3b4186f6b6457e09190a35050565b6002600154036114be57604051633ee5aeb560e01b815260040160405180910390fd5b6002600155565b60405180610160016040528060008152602001606081526020016060815260200160006001600160a01b031681526020016000815260200160008152602001600060058111156115175761151761159b565b8152602001600081526020016000815260200160008152602001600080191681525090565b60006020828403121561154e57600080fd5b5035919050565b6000815180845260005b8181101561157b5760208185018101518683018201520161155f565b506000602082860101526020601f19601f83011685010191505092915050565b634e487b7160e01b600052602160045260246000fd5b600681106115cf57634e487b7160e01b600052602160045260246000fd5b9052565b8b8152610160602082015260006115ee61016083018d611555565b8281036040840152611600818d611555565b6001600160a01b038c166060850152608084018b905260a084018a9052915061162e905060c08301886115b1565b8560e08301528461010083015283610120830152826101408301529c9b505050505050505050505050565b6000806040838503121561166c57600080fd5b50508035926020909101359150565b634e487b7160e01b600052604160045260246000fd5b604051601f8201601f1916810167ffffffffffffffff811182821017156116ba576116ba61167b565b604052919050565b600082601f8301126116d357600080fd5b813567ffffffffffffffff8111156116ed576116ed61167b565b611700601f8201601f1916602001611691565b81815284602083860101111561171557600080fd5b816020850160208301376000918101602001919091529392505050565b6000806040838503121561174557600080fd5b823567ffffffffffffffff81111561175c57600080fd5b611768858286016116c2565b925050602083013567ffffffffffffffff81111561178557600080fd5b611791858286016116c2565b9150509250929050565b600080602083850312156117ae57600080fd5b823567ffffffffffffffff8111156117c557600080fd5b8301601f810185136117d657600080fd5b803567ffffffffffffffff8111156117ed57600080fd5b8560208260051b840101111561180257600080fd5b6020919091019590945092505050565b602081528151602082015260006020830151610160604084015261183a610180840182611555565b90506040840151601f198483030160608501526118578282611555565b915050606084015161187460808501826001600160a01b03169052565b50608084015160a084015260a084015160c084015260c084015161189b60e08501826115b1565b5060e08401516101008401526101008401516101208401526101208401516101408401526101408401516101608401528091505092915050565b801515811461141b57600080fd5b600082601f8301126118f457600080fd5b60006119006040611691565b905080604084018581111561191457600080fd5b845b8181101561192e578035835260209283019201611916565b509195945050505050565b600082601f83011261194a57600080fd5b60006119566080611691565b905080608084018581111561191457600080fd5b60008060008060008060006101e0888a03121561198657600080fd5b873596506020880135611998816118d5565b9550604088013594506119ae8960608a016118e3565b93508860bf8901126119bf57600080fd5b60406119ca81611691565b806101208b018c8111156119dd57600080fd5b60a08c015b81811015611a03576119f48e826118e3565b845260209093019284016119e2565b50819650611a118d826118e3565b955050505050611a25896101608a01611939565b905092959891949750929550565b600060208284031215611a4557600080fd5b81356001600160a01b0381168114611a5c57600080fd5b9392505050565b600181811c90821680611a7757607f821691505b602082108103611a9757634e487b7160e01b600052602260045260246000fd5b50919050565b6020810161075f82846115b1565b634e487b7160e01b600052601160045260246000fd5b8082018082111561075f5761075f611aab565b600060018201611ae657611ae6611aab565b5060010190565b601f821115610cfc57806000526020600020601f840160051c81016020851015611b145750805b601f840160051c820191505b81811015611b345760008155600101611b20565b5050505050565b815167ffffffffffffffff811115611b5557611b5561167b565b611b6981611b638454611a63565b84611aed565b6020601f821160018114611b9d5760008315611b855750848201515b600019600385901b1c1916600184901b178455611b34565b600084815260208120601f198516915b82811015611bcd5787850151825560209485019460019092019101611bad565b5084821015611beb5786840151600019600387901b60f8161c191681555b50505050600190811b01905550565b604081526000611c0d6040830185611555565b90508260208301529392505050565b634e487b7160e01b600052603260045260246000fd5b8060005b6002811015611c55578151845260209384019390910190600101611c36565b50505050565b6101808101611c6a8287611c32565b604082018560005b6002811015611c9c57611c86838351611c32565b6040929092019160209190910190600101611c72565b505050611cac60c0830185611c32565b61010082018360005b6004811015611cd4578151835260209283019290910190600101611cb5565b50505095945050505050565b600060208284031215611cf257600080fd5b8151611a5c816118d556fea2646970667358221220913675963af80c68692bc38c34c45930084a819ba4da4ae453fcb8b6bef4506864736f6c634300081c0033",
  "linkReferences": {},
  "deployedLinkReferences": {}
}