{
  "_format": "hh-sol-artifact-1",
  "contractName": "ReputationManager",
  "sourceName": "contracts/core/ReputationManager.sol",
  "abi": [
    {
      "inputs": [
        {
          "internalType": "address",
          "name": "initialOwner",
          "type": "address"
        }
      ],
      "stateMutability": "nonpayable",
      "type": "constructor"
    },
    {
      "inputs": [
        {
          "internalType": "address",
          "name": "owner",
          "type": "address"
        }
      ],
      "name": "OwnableInvalidOwner",
      "type": "error"
    },
    {
      "inputs": [
        {
          "internalType": "address",
          "name": "account",
          "type": "address"
        }
      ],
      "name": "OwnableUnauthorizedAccount",
      "type": "error"
    },
    {
      "anonymous": false,
      "inputs": [
        {
          "indexed": true,
          "internalType": "address",
          "name": "previousOwner",
          "type": "address"
        },
        {
          "indexed": true,
          "internalType": "address",
          "name": "newOwner",
          "type": "address"
        }
      ],
      "name": "OwnershipTransferred",
      "type": "event"
    },
    {
      "anonymous": false,
      "inputs": [
        {
          "indexed": true,
          "internalType": "address",
          "name": "user",
          "type": "address"
        },
        {
          "indexed": false,
          "internalType": "uint256",
          "name": "newScore",
          "type": "uint256"
        },
        {
          "indexed": false,
          "internalType": "uint256",
          "name": "timestamp",
          "type": "uint256"
        }
      ],
      "name": "ReputationUpdated",
      "type": "event"
    },
    {
      "anonymous": false,
      "inputs": [
        {
          "indexed": true,
          "internalType": "address",
          "name": "updater",
          "type": "address"
        }
      ],
      "name": "ReputationUpdaterAdded",
      "type": "event"
    },
    {
      "anonymous": false,
      "inputs": [
        {
          "indexed": true,
          "internalType": "address",
          "name": "updater",
          "type": "address"
        }
      ],
      "name": "ReputationUpdaterRemoved",
      "type": "event"
    },
    {
      "anonymous": false,
      "inputs": [
        {
          "indexed": true,
          "internalType": "address",
          "name": "user",
          "type": "address"
        }
      ],
      "name": "UserActivated",
      "type": "event"
    },
    {
      "anonymous": false,
      "inputs": [
        {
          "indexed": true,
          "internalType": "address",
          "name": "user",
          "type": "address"
        }
      ],
      "name": "UserDeactivated",
      "type": "event"
    },
    {
      "inputs": [],
      "name": "DEFAULT_REPUTATION",
      "outputs": [
        {
          "internalType": "uint256",
          "name": "",
          "type": "uint256"
        }
      ],
      "stateMutability": "pure",
      "type": "function"
    },
    {
      "inputs": [],
      "name": "MAX_REPUTATION",
      "outputs": [
        {
          "internalType": "uint256",
          "name": "",
          "type": "uint256"
        }
      ],
      "stateMutability": "pure",
      "type": "function"
    },
    {
      "inputs": [],
      "name": "MIN_REPUTATION",
      "outputs": [
        {
          "internalType": "uint256",
          "name": "",
          "type": "uint256"
        }
      ],
      "stateMutability": "pure",
      "type": "function"
    },
    {
      "inputs": [
        {
          "internalType": "address",
          "name": "updater",
          "type": "address"
        }
      ],
      "name": "addReputationUpdater",
      "outputs": [],
      "stateMutability": "nonpayable",
      "type": "function"
    },
    {
      "inputs": [
        {
          "internalType": "address[]",
          "name": "users",
          "type": "address[]"
        },
        {
          "internalType": "uint256[]",
          "name": "scores",
          "type": "uint256[]"
        }
      ],
      "name": "batchUpdateReputation",
      "outputs": [],
      "stateMutability": "nonpayable",
      "type": "function"
    },
    {
      "inputs": [
        {
          "internalType": "address",
          "name": "user",
          "type": "address"
        }
      ],
      "name": "deactivateUser",
      "outputs": [],
      "stateMutability": "nonpayable",
      "type": "function"
    },
    {
      "inputs": [
        {
          "internalType": "address",
          "name": "user",
          "type": "address"
        }
      ],
      "name": "getReputationData",
      "outputs": [
        {
          "internalType": "uint256",
          "name": "score",
          "type": "uint256"
        },
        {
          "internalType": "uint256",
          "name": "lastUpdated",
          "type": "uint256"
        },
        {
          "internalType": "bool",
          "name": "isActive",
          "type": "bool"
        }
      ],
      "stateMutability": "view",
      "type": "function"
    },
    {
      "inputs": [
        {
          "internalType": "address",
          "name": "user",
          "type": "address"
        }
      ],
      "name": "getReputationScore",
      "outputs": [
        {
          "internalType": "uint256",
          "name": "",
          "type": "uint256"
        }
      ],
      "stateMutability": "view",
      "type": "function"
    },
    {
      "inputs": [
        {
          "internalType": "address",
          "name": "user",
          "type": "address"
        }
      ],
      "name": "getReputationWeight",
      "outputs": [
        {
          "internalType": "uint256",
          "name": "",
          "type": "uint256"
        }
      ],
      "stateMutability": "view",
      "type": "function"
    },
    {
      "inputs": [
        {
          "internalType": "address",
          "name": "user",
          "type": "address"
        }
      ],
      "name": "hasActiveReputation",
      "outputs": [
        {
          "internalType": "bool",
          "name": "",
          "type": "bool"
        }
      ],
      "stateMutability": "view",
      "type": "function"
    },
    {
      "inputs": [
        {
          "internalType": "address",
          "name": "user",
          "type": "address"
        }
      ],
      "name": "initializeReputation",
      "outputs": [],
      "stateMutability": "nonpayable",
      "type": "function"
    },
    {
      "inputs": [],
      "name": "owner",
      "outputs": [
        {
          "internalType": "address",
          "name": "",
          "type": "address"
        }
      ],
      "stateMutability": "view",
      "type": "function"
    },
    {
      "inputs": [
        {
          "internalType": "address",
          "name": "user",
          "type": "address"
        }
      ],
      "name": "reactivateUser",
      "outputs": [],
      "stateMutability": "nonpayable",
      "type": "function"
    },
    {
      "inputs": [
        {
          "internalType": "address",
          "name": "updater",
          "type": "address"
        }
      ],
      "name": "removeReputationUpdater",
      "outputs": [],
      "stateMutability": "nonpayable",
      "type": "function"
    },
    {
      "inputs": [],
      "name": "renounceOwnership",
      "outputs": [],
      "stateMutability": "nonpayable",
      "type": "function"
    },
    {
      "inputs": [
        {
          "internalType": "address",
          "name": "",
          "type": "address"
        }
      ],
      "name": "reputationUpdaters",
      "outputs": [
        {
          "internalType": "bool",
          "name": "",
          "type": "bool"
        }
      ],
      "stateMutability": "view",
      "type": "function"
    },
    {
      "inputs": [
        {
          "internalType": "address",
          "name": "",
          "type": "address"
        }
      ],
      "name": "reputations",
      "outputs": [
        {
          "internalType": "uint256",
          "name": "score",
          "type": "uint256"
        },
        {
          "internalType": "uint256",
          "name": "lastUpdated",
          "type": "uint256"
        },
        {
          "internalType": "bool",
          "name": "isActive",
          "type": "bool"
        }
      ],
      "stateMutability": "view",
      "type": "function"
    },
    {
      "inputs": [
        {
          "internalType": "address",
          "name": "newOwner",
          "type": "address"
        }
      ],
      "name": "transferOwnership",
      "outputs": [],
      "stateMutability": "nonpayable",
      "type": "function"
    },
    {
      "inputs": [
        {
          "internalType": "address",
          "name": "user",
          "type": "address"
        },
        {
          "internalType": "uint256",
          "name": "newScore",
          "type": "uint256"
        }
      ],
      "name": "updateReputation",
      "outputs": [],
      "stateMutability": "nonpayable",
      "type": "function"
    }
  ],
  "bytecode": "0x608060405234801561001057600080fd5b5060405161129c38038061129c83398101604081905261002f916100be565b806001600160a01b03811661005e57604051631e4fbdf760e01b81526000600482015260240160405180910390fd5b6100678161006e565b50506100ee565b600080546001600160a01b038381166001600160a01b0319831681178455604051919092169283917f8be0079c531659141344cd1fd0a4f28419497f9722a3daafe3b4186f6b6457e09190a35050565b6000602082840312156100d057600080fd5b81516001600160a01b03811681146100e757600080fd5b9392505050565b61119f806100fd6000396000f3fe608060405234801561001057600080fd5b50600436106101215760003560e01c806375a67d5c116100ad5780638da5cb5b116100715780638da5cb5b146102dd578063a61dd46e146102f8578063d213c0f21461030b578063f2fde38b14610313578063f5c91a081461032657600080fd5b806375a67d5c1461023a5780637a00d3c41461024d5780637bb27c11146102a45780637fefa994146102b757806381a29457146102ca57600080fd5b80632c77a7c1116100f45780632c77a7c1146101ee5780633050a73d14610201578063697c60451461022457806369ce34ab1461022b578063715018a61461023257600080fd5b806304c981461461012657806306fa15a71461016a5780631a47767b146101b857806322470a1a146101cd575b600080fd5b610155610134366004610f64565b6001600160a01b031660009081526001602052604090206002015460ff1690565b60405190151581526020015b60405180910390f35b61019b610178366004610f64565b600160208190526000918252604090912080549181015460029091015460ff1683565b604080519384526020840192909252151590820152606001610161565b6101cb6101c6366004610f64565b610339565b005b6101e06101db366004610f64565b61045b565b604051908152602001610161565b6101cb6101fc366004610f64565b6104d6565b61015561020f366004610f64565b60026020526000908152604090205460ff1681565b60016101e0565b60326101e0565b6101cb6105e9565b6101e0610248366004610f64565b6105fd565b61019b61025b366004610f64565b6001600160a01b0316600090815260016020818152604092839020835160608101855281548082529382015492810183905260029091015460ff16151593018390529092909190565b6101cb6102b2366004610f64565b610644565b6101cb6102c5366004610f64565b6107df565b6101cb6102d8366004610f64565b610898565b6000546040516001600160a01b039091168152602001610161565b6101cb610306366004610fd2565b6109b6565b6103e86101e0565b6101cb610321366004610f64565b610d04565b6101cb610334366004611043565b610d42565b3360009081526002602052604090205460ff168061036157506000546001600160a01b031633145b6103865760405162461bcd60e51b815260040161037d9061106d565b60405180910390fd5b6001600160a01b0381166103ac5760405162461bcd60e51b815260040161037d906110b0565b6001600160a01b03811660009081526001602052604090206002015460ff1661040f5760405162461bcd60e51b81526020600482015260156024820152745573657220616c726561647920696e61637469766560581b604482015260640161037d565b6001600160a01b038116600081815260016020526040808220600201805460ff19169055517f5554feec4e87bc4eba14bd62f71df68156f97d26128616fbc27d28e33b35a6b49190a250565b6001600160a01b03811660009081526001602052604081206002015460ff1661048657506000919050565b6001600160a01b0382166000908152600160208190526040909120546103e7916104af916110f4565b6104bb906126ac611107565b6104c5919061111e565b6104d0906064611140565b92915050565b6104de610ecb565b6001600160a01b0381166105345760405162461bcd60e51b815260206004820152601760248201527f496e76616c696420757064617465722061646472657373000000000000000000604482015260640161037d565b6001600160a01b03811660009081526002602052604090205460ff161561059d5760405162461bcd60e51b815260206004820152601c60248201527f416c726561647920612072657075746174696f6e207570646174657200000000604482015260640161037d565b6001600160a01b038116600081815260026020526040808220805460ff19166001179055517f7c7e5f9a3d328a0026cf2b06c3ea28e268b788dc0ac70bbd23c6b984df98eb289190a250565b6105f1610ecb565b6105fb6000610ef8565b565b6001600160a01b03811660009081526001602052604081206002015460ff1661062857506000919050565b506001600160a01b031660009081526001602052604090205490565b3360009081526002602052604090205460ff168061066c57506000546001600160a01b031633145b6106885760405162461bcd60e51b815260040161037d9061106d565b6001600160a01b0381166106ae5760405162461bcd60e51b815260040161037d906110b0565b6001600160a01b03811660009081526001602052604090206002015460ff161561071a5760405162461bcd60e51b815260206004820152601b60248201527f5573657220616c7265616479206861732072657075746174696f6e0000000000604482015260640161037d565b604080516060810182526032815242602080830191825260018385018181526001600160a01b03871660008181529383905286842095518655935191850191909155516002909301805460ff19169315159390931790925591517fd4719dd6c50c53a868b4c8eb187c166965be87e084f350aab18e6b0f141c77349190a260408051603281524260208201526001600160a01b038316917f5b88a2e3fc1a53234357ab78c104df11c33ccfa79886793654565ad70b8afb6e910160405180910390a250565b6107e7610ecb565b6001600160a01b03811660009081526002602052604090205460ff1661084f5760405162461bcd60e51b815260206004820152601860248201527f4e6f7420612072657075746174696f6e20757064617465720000000000000000604482015260640161037d565b6001600160a01b038116600081815260026020526040808220805460ff19169055517fc316f6fba9d5f6c5dc9d7b95edf5d4e4d6a2383baa6b8922239398e8192a8b969190a250565b3360009081526002602052604090205460ff16806108c057506000546001600160a01b031633145b6108dc5760405162461bcd60e51b815260040161037d9061106d565b6001600160a01b0381166109025760405162461bcd60e51b815260040161037d906110b0565b6001600160a01b03811660009081526001602052604090206002015460ff16156109645760405162461bcd60e51b81526020600482015260136024820152725573657220616c72656164792061637469766560681b604482015260640161037d565b6001600160a01b0381166000818152600160208190526040808320600201805460ff1916909217909155517fd4719dd6c50c53a868b4c8eb187c166965be87e084f350aab18e6b0f141c77349190a250565b3360009081526002602052604090205460ff16806109de57506000546001600160a01b031633145b6109fa5760405162461bcd60e51b815260040161037d9061106d565b828114610a425760405162461bcd60e51b8152602060048201526016602482015275082e4e4c2f2e640d8cadccee8d040dad2e6dac2e8c6d60531b604482015260640161037d565b60005b83811015610cfd576000858583818110610a6157610a61611153565b9050602002016020810190610a769190610f64565b6001600160a01b031603610a9c5760405162461bcd60e51b815260040161037d906110b0565b60016000868684818110610ab257610ab2611153565b9050602002016020810190610ac79190610f64565b6001600160a01b0316815260208101919091526040016000206002015460ff16610b335760405162461bcd60e51b815260206004820152601f60248201527f557365722072657075746174696f6e206e6f7420696e697469616c697a656400604482015260640161037d565b6001838383818110610b4757610b47611153565b9050602002013510158015610b7657506103e8838383818110610b6c57610b6c611153565b9050602002013511155b610bb75760405162461bcd60e51b815260206004820152601260248201527153636f7265206f7574206f662072616e676560701b604482015260640161037d565b828282818110610bc957610bc9611153565b9050602002013560016000878785818110610be657610be6611153565b9050602002016020810190610bfb9190610f64565b6001600160a01b03166001600160a01b03168152602001908152602001600020600001819055504260016000878785818110610c3957610c39611153565b9050602002016020810190610c4e9190610f64565b6001600160a01b03168152602081019190915260400160002060010155848482818110610c7d57610c7d611153565b9050602002016020810190610c929190610f64565b6001600160a01b03167f5b88a2e3fc1a53234357ab78c104df11c33ccfa79886793654565ad70b8afb6e848484818110610cce57610cce611153565b9050602002013542604051610ced929190918252602082015260400190565b60405180910390a2600101610a45565b5050505050565b610d0c610ecb565b6001600160a01b038116610d3657604051631e4fbdf760e01b81526000600482015260240161037d565b610d3f81610ef8565b50565b3360009081526002602052604090205460ff1680610d6a57506000546001600160a01b031633145b610d865760405162461bcd60e51b815260040161037d9061106d565b6001600160a01b038216610dac5760405162461bcd60e51b815260040161037d906110b0565b6001600160a01b03821660009081526001602052604090206002015460ff16610e175760405162461bcd60e51b815260206004820152601f60248201527f557365722072657075746174696f6e206e6f7420696e697469616c697a656400604482015260640161037d565b60018110158015610e2a57506103e88111155b610e6b5760405162461bcd60e51b815260206004820152601260248201527153636f7265206f7574206f662072616e676560701b604482015260640161037d565b6001600160a01b0382166000818152600160208181526040928390208581554292018290558251858152908101919091527f5b88a2e3fc1a53234357ab78c104df11c33ccfa79886793654565ad70b8afb6e910160405180910390a25050565b6000546001600160a01b031633146105fb5760405163118cdaa760e01b815233600482015260240161037d565b600080546001600160a01b038381166001600160a01b0319831681178455604051919092169283917f8be0079c531659141344cd1fd0a4f28419497f9722a3daafe3b4186f6b6457e09190a35050565b80356001600160a01b0381168114610f5f57600080fd5b919050565b600060208284031215610f7657600080fd5b610f7f82610f48565b9392505050565b60008083601f840112610f9857600080fd5b50813567ffffffffffffffff811115610fb057600080fd5b6020830191508360208260051b8501011115610fcb57600080fd5b9250929050565b60008060008060408587031215610fe857600080fd5b843567ffffffffffffffff811115610fff57600080fd5b61100b87828801610f86565b909550935050602085013567ffffffffffffffff81111561102b57600080fd5b61103787828801610f86565b95989497509550505050565b6000806040838503121561105657600080fd5b61105f83610f48565b946020939093013593505050565b60208082526023908201527f4e6f7420617574686f72697a656420746f20757064617465207265707574617460408201526234b7b760e91b606082015260800190565b602080825260149082015273496e76616c69642075736572206164647265737360601b604082015260600190565b634e487b7160e01b600052601160045260246000fd5b818103818111156104d0576104d06110de565b80820281158282048414176104d0576104d06110de565b60008261113b57634e487b7160e01b600052601260045260246000fd5b500490565b808201808211156104d0576104d06110de565b634e487b7160e01b600052603260045260246000fdfea2646970667358221220ab34b8b745ee026eacd0d4af262002bd414353a61bd2cb281f67e8f0bd28e8ae64736f6c634300081c0033",
  "linkReferences": {},
  "deployedLinkReferences": {}
}