{
  "_format": "hh-sol-artifact-1",
  "contractName": "ReputationManager",
  "sourceName": "contracts/core/ReputationManager.sol",
  "abi": [
    {
      "inputs": [
        {
          "internalType": "address",
          "name": "initialOwner",
          "type": "address"
        }
      ],
      "stateMutability": "nonpayable",
      "type": "constructor"
    },
    {
      "inputs": [
        {
          "internalType": "address",
          "name": "owner",
          "type": "address"
        }
      ],
      "name": "OwnableInvalidOwner",
      "type": "error"
    },
    {
      "inputs": [
        {
          "internalType": "address",
          "name": "account",
          "type": "address"
        }
      ],
      "name": "OwnableUnauthorizedAccount",
      "type": "error"
    },
    {
      "anonymous": false,
      "inputs": [
        {
          "indexed": true,
          "internalType": "address",
          "name": "previousOwner",
          "type": "address"
        },
        {
          "indexed": true,
          "internalType": "address",
          "name": "newOwner",
          "type": "address"
        }
      ],
      "name": "OwnershipTransferred",
      "type": "event"
    },
    {
      "anonymous": false,
      "inputs": [
        {
          "indexed": true,
          "internalType": "address",
          "name": "user",
          "type": "address"
        },
        {
          "indexed": false,
          "internalType": "uint256",
          "name": "newScore",
          "type": "uint256"
        },
        {
          "indexed": false,
          "internalType": "uint256",
          "name": "timestamp",
          "type": "uint256"
        }
      ],
      "name": "ReputationUpdated",
      "type": "event"
    },
    {
      "anonymous": false,
      "inputs": [
        {
          "indexed": true,
          "internalType": "address",
          "name": "updater",
          "type": "address"
        }
      ],
      "name": "ReputationUpdaterAdded",
      "type": "event"
    },
    {
      "anonymous": false,
      "inputs": [
        {
          "indexed": true,
          "internalType": "address",
          "name": "updater",
          "type": "address"
        }
      ],
      "name": "ReputationUpdaterRemoved",
      "type": "event"
    },
    {
      "anonymous": false,
      "inputs": [
        {
          "indexed": true,
          "internalType": "address",
          "name": "user",
          "type": "address"
        }
      ],
      "name": "UserActivated",
      "type": "event"
    },
    {
      "anonymous": false,
      "inputs": [
        {
          "indexed": true,
          "internalType": "address",
          "name": "user",
          "type": "address"
        }
      ],
      "name": "UserDeactivated",
      "type": "event"
    },
    {
      "inputs": [],
      "name": "DEFAULT_REPUTATION",
      "outputs": [
        {
          "internalType": "uint256",
          "name": "",
          "type": "uint256"
        }
      ],
      "stateMutability": "view",
      "type": "function"
    },
    {
      "inputs": [],
      "name": "MAX_REPUTATION",
      "outputs": [
        {
          "internalType": "uint256",
          "name": "",
          "type": "uint256"
        }
      ],
      "stateMutability": "view",
      "type": "function"
    },
    {
      "inputs": [],
      "name": "MIN_REPUTATION",
      "outputs": [
        {
          "internalType": "uint256",
          "name": "",
          "type": "uint256"
        }
      ],
      "stateMutability": "view",
      "type": "function"
    },
    {
      "inputs": [
        {
          "internalType": "address",
          "name": "updater",
          "type": "address"
        }
      ],
      "name": "addReputationUpdater",
      "outputs": [],
      "stateMutability": "nonpayable",
      "type": "function"
    },
    {
      "inputs": [
        {
          "internalType": "address[]",
          "name": "users",
          "type": "address[]"
        },
        {
          "internalType": "uint256[]",
          "name": "scores",
          "type": "uint256[]"
        }
      ],
      "name": "batchUpdateReputation",
      "outputs": [],
      "stateMutability": "nonpayable",
      "type": "function"
    },
    {
      "inputs": [
        {
          "internalType": "address",
          "name": "user",
          "type": "address"
        }
      ],
      "name": "deactivateUser",
      "outputs": [],
      "stateMutability": "nonpayable",
      "type": "function"
    },
    {
      "inputs": [
        {
          "internalType": "address",
          "name": "user",
          "type": "address"
        }
      ],
      "name": "getReputationData",
      "outputs": [
        {
          "internalType": "uint256",
          "name": "score",
          "type": "uint256"
        },
        {
          "internalType": "uint256",
          "name": "lastUpdated",
          "type": "uint256"
        },
        {
          "internalType": "bool",
          "name": "isActive",
          "type": "bool"
        }
      ],
      "stateMutability": "view",
      "type": "function"
    },
    {
      "inputs": [
        {
          "internalType": "address",
          "name": "user",
          "type": "address"
        }
      ],
      "name": "getReputationScore",
      "outputs": [
        {
          "internalType": "uint256",
          "name": "",
          "type": "uint256"
        }
      ],
      "stateMutability": "view",
      "type": "function"
    },
    {
      "inputs": [
        {
          "internalType": "address",
          "name": "user",
          "type": "address"
        }
      ],
      "name": "getReputationWeight",
      "outputs": [
        {
          "internalType": "uint256",
          "name": "",
          "type": "uint256"
        }
      ],
      "stateMutability": "view",
      "type": "function"
    },
    {
      "inputs": [
        {
          "internalType": "address",
          "name": "user",
          "type": "address"
        }
      ],
      "name": "hasActiveReputation",
      "outputs": [
        {
          "internalType": "bool",
          "name": "",
          "type": "bool"
        }
      ],
      "stateMutability": "view",
      "type": "function"
    },
    {
      "inputs": [
        {
          "internalType": "address",
          "name": "user",
          "type": "address"
        }
      ],
      "name": "initializeReputation",
      "outputs": [],
      "stateMutability": "nonpayable",
      "type": "function"
    },
    {
      "inputs": [],
      "name": "owner",
      "outputs": [
        {
          "internalType": "address",
          "name": "",
          "type": "address"
        }
      ],
      "stateMutability": "view",
      "type": "function"
    },
    {
      "inputs": [
        {
          "internalType": "address",
          "name": "user",
          "type": "address"
        }
      ],
      "name": "reactivateUser",
      "outputs": [],
      "stateMutability": "nonpayable",
      "type": "function"
    },
    {
      "inputs": [
        {
          "internalType": "address",
          "name": "updater",
          "type": "address"
        }
      ],
      "name": "removeReputationUpdater",
      "outputs": [],
      "stateMutability": "nonpayable",
      "type": "function"
    },
    {
      "inputs": [],
      "name": "renounceOwnership",
      "outputs": [],
      "stateMutability": "nonpayable",
      "type": "function"
    },
    {
      "inputs": [
        {
          "internalType": "address",
          "name": "",
          "type": "address"
        }
      ],
      "name": "reputationUpdaters",
      "outputs": [
        {
          "internalType": "bool",
          "name": "",
          "type": "bool"
        }
      ],
      "stateMutability": "view",
      "type": "function"
    },
    {
      "inputs": [
        {
          "internalType": "address",
          "name": "",
          "type": "address"
        }
      ],
      "name": "reputations",
      "outputs": [
        {
          "internalType": "uint256",
          "name": "score",
          "type": "uint256"
        },
        {
          "internalType": "uint256",
          "name": "lastUpdated",
          "type": "uint256"
        },
        {
          "internalType": "bool",
          "name": "isActive",
          "type": "bool"
        }
      ],
      "stateMutability": "view",
      "type": "function"
    },
    {
      "inputs": [
        {
          "internalType": "address",
          "name": "newOwner",
          "type": "address"
        }
      ],
      "name": "transferOwnership",
      "outputs": [],
      "stateMutability": "nonpayable",
      "type": "function"
    },
    {
      "inputs": [
        {
          "internalType": "address",
          "name": "user",
          "type": "address"
        },
        {
          "internalType": "uint256",
          "name": "newScore",
          "type": "uint256"
        }
      ],
      "name": "updateReputation",
      "outputs": [],
      "stateMutability": "nonpayable",
      "type": "function"
    }
  ],
  "bytecode": "0x608060405234801561001057600080fd5b5060405161129f38038061129f83398101604081905261002f916100be565b806001600160a01b03811661005e57604051631e4fbdf760e01b81526000600482015260240160405180910390fd5b6100678161006e565b50506100ee565b600080546001600160a01b038381166001600160a01b0319831681178455604051919092169283917f8be0079c531659141344cd1fd0a4f28419497f9722a3daafe3b4186f6b6457e09190a35050565b6000602082840312156100d057600080fd5b81516001600160a01b03811681146100e757600080fd5b9392505050565b6111a2806100fd6000396000f3fe608060405234801561001057600080fd5b50600436106101215760003560e01c806375a67d5c116100ad5780638da5cb5b116100715780638da5cb5b146102df578063a61dd46e146102fa578063d213c0f21461030d578063f2fde38b14610316578063f5c91a081461032957600080fd5b806375a67d5c1461023c5780637a00d3c41461024f5780637bb27c11146102a65780637fefa994146102b957806381a29457146102cc57600080fd5b80632c77a7c1116100f45780632c77a7c1146101ee5780633050a73d14610201578063697c60451461022457806369ce34ab1461022c578063715018a61461023457600080fd5b806304c981461461012657806306fa15a71461016a5780631a47767b146101b857806322470a1a146101cd575b600080fd5b610155610134366004610f67565b6001600160a01b031660009081526001602052604090206002015460ff1690565b60405190151581526020015b60405180910390f35b61019b610178366004610f67565b600160208190526000918252604090912080549181015460029091015460ff1683565b604080519384526020840192909252151590820152606001610161565b6101cb6101c6366004610f67565b61033c565b005b6101e06101db366004610f67565b61045e565b604051908152602001610161565b6101cb6101fc366004610f67565b6104d9565b61015561020f366004610f67565b60026020526000908152604090205460ff1681565b6101e0600181565b6101e0603281565b6101cb6105ec565b6101e061024a366004610f67565b610600565b61019b61025d366004610f67565b6001600160a01b0316600090815260016020818152604092839020835160608101855281548082529382015492810183905260029091015460ff16151593018390529092909190565b6101cb6102b4366004610f67565b610647565b6101cb6102c7366004610f67565b6107e2565b6101cb6102da366004610f67565b61089b565b6000546040516001600160a01b039091168152602001610161565b6101cb610308366004610fd5565b6109b9565b6101e06103e881565b6101cb610324366004610f67565b610d07565b6101cb610337366004611046565b610d45565b3360009081526002602052604090205460ff168061036457506000546001600160a01b031633145b6103895760405162461bcd60e51b815260040161038090611070565b60405180910390fd5b6001600160a01b0381166103af5760405162461bcd60e51b8152600401610380906110b3565b6001600160a01b03811660009081526001602052604090206002015460ff166104125760405162461bcd60e51b81526020600482015260156024820152745573657220616c726561647920696e61637469766560581b6044820152606401610380565b6001600160a01b038116600081815260016020526040808220600201805460ff19169055517f5554feec4e87bc4eba14bd62f71df68156f97d26128616fbc27d28e33b35a6b49190a250565b6001600160a01b03811660009081526001602052604081206002015460ff1661048957506000919050565b6001600160a01b0382166000908152600160208190526040909120546103e7916104b2916110f7565b6104be906126ac61110a565b6104c89190611121565b6104d3906064611143565b92915050565b6104e1610ece565b6001600160a01b0381166105375760405162461bcd60e51b815260206004820152601760248201527f496e76616c6964207570646174657220616464726573730000000000000000006044820152606401610380565b6001600160a01b03811660009081526002602052604090205460ff16156105a05760405162461bcd60e51b815260206004820152601c60248201527f416c726561647920612072657075746174696f6e2075706461746572000000006044820152606401610380565b6001600160a01b038116600081815260026020526040808220805460ff19166001179055517f7c7e5f9a3d328a0026cf2b06c3ea28e268b788dc0ac70bbd23c6b984df98eb289190a250565b6105f4610ece565b6105fe6000610efb565b565b6001600160a01b03811660009081526001602052604081206002015460ff1661062b57506000919050565b506001600160a01b031660009081526001602052604090205490565b3360009081526002602052604090205460ff168061066f57506000546001600160a01b031633145b61068b5760405162461bcd60e51b815260040161038090611070565b6001600160a01b0381166106b15760405162461bcd60e51b8152600401610380906110b3565b6001600160a01b03811660009081526001602052604090206002015460ff161561071d5760405162461bcd60e51b815260206004820152601b60248201527f5573657220616c7265616479206861732072657075746174696f6e00000000006044820152606401610380565b604080516060810182526032815242602080830191825260018385018181526001600160a01b03871660008181529383905286842095518655935191850191909155516002909301805460ff19169315159390931790925591517fd4719dd6c50c53a868b4c8eb187c166965be87e084f350aab18e6b0f141c77349190a260408051603281524260208201526001600160a01b038316917f5b88a2e3fc1a53234357ab78c104df11c33ccfa79886793654565ad70b8afb6e910160405180910390a250565b6107ea610ece565b6001600160a01b03811660009081526002602052604090205460ff166108525760405162461bcd60e51b815260206004820152601860248201527f4e6f7420612072657075746174696f6e207570646174657200000000000000006044820152606401610380565b6001600160a01b038116600081815260026020526040808220805460ff19169055517fc316f6fba9d5f6c5dc9d7b95edf5d4e4d6a2383baa6b8922239398e8192a8b969190a250565b3360009081526002602052604090205460ff16806108c357506000546001600160a01b031633145b6108df5760405162461bcd60e51b815260040161038090611070565b6001600160a01b0381166109055760405162461bcd60e51b8152600401610380906110b3565b6001600160a01b03811660009081526001602052604090206002015460ff16156109675760405162461bcd60e51b81526020600482015260136024820152725573657220616c72656164792061637469766560681b6044820152606401610380565b6001600160a01b0381166000818152600160208190526040808320600201805460ff1916909217909155517fd4719dd6c50c53a868b4c8eb187c166965be87e084f350aab18e6b0f141c77349190a250565b3360009081526002602052604090205460ff16806109e157506000546001600160a01b031633145b6109fd5760405162461bcd60e51b815260040161038090611070565b828114610a455760405162461bcd60e51b8152602060048201526016602482015275082e4e4c2f2e640d8cadccee8d040dad2e6dac2e8c6d60531b6044820152606401610380565b60005b83811015610d00576000858583818110610a6457610a64611156565b9050602002016020810190610a799190610f67565b6001600160a01b031603610a9f5760405162461bcd60e51b8152600401610380906110b3565b60016000868684818110610ab557610ab5611156565b9050602002016020810190610aca9190610f67565b6001600160a01b0316815260208101919091526040016000206002015460ff16610b365760405162461bcd60e51b815260206004820152601f60248201527f557365722072657075746174696f6e206e6f7420696e697469616c697a6564006044820152606401610380565b6001838383818110610b4a57610b4a611156565b9050602002013510158015610b7957506103e8838383818110610b6f57610b6f611156565b9050602002013511155b610bba5760405162461bcd60e51b815260206004820152601260248201527153636f7265206f7574206f662072616e676560701b6044820152606401610380565b828282818110610bcc57610bcc611156565b9050602002013560016000878785818110610be957610be9611156565b9050602002016020810190610bfe9190610f67565b6001600160a01b03166001600160a01b03168152602001908152602001600020600001819055504260016000878785818110610c3c57610c3c611156565b9050602002016020810190610c519190610f67565b6001600160a01b03168152602081019190915260400160002060010155848482818110610c8057610c80611156565b9050602002016020810190610c959190610f67565b6001600160a01b03167f5b88a2e3fc1a53234357ab78c104df11c33ccfa79886793654565ad70b8afb6e848484818110610cd157610cd1611156565b9050602002013542604051610cf0929190918252602082015260400190565b60405180910390a2600101610a48565b5050505050565b610d0f610ece565b6001600160a01b038116610d3957604051631e4fbdf760e01b815260006004820152602401610380565b610d4281610efb565b50565b3360009081526002602052604090205460ff1680610d6d57506000546001600160a01b031633145b610d895760405162461bcd60e51b815260040161038090611070565b6001600160a01b038216610daf5760405162461bcd60e51b8152600401610380906110b3565b6001600160a01b03821660009081526001602052604090206002015460ff16610e1a5760405162461bcd60e51b815260206004820152601f60248201527f557365722072657075746174696f6e206e6f7420696e697469616c697a6564006044820152606401610380565b60018110158015610e2d57506103e88111155b610e6e5760405162461bcd60e51b815260206004820152601260248201527153636f7265206f7574206f662072616e676560701b6044820152606401610380565b6001600160a01b0382166000818152600160208181526040928390208581554292018290558251858152908101919091527f5b88a2e3fc1a53234357ab78c104df11c33ccfa79886793654565ad70b8afb6e910160405180910390a25050565b6000546001600160a01b031633146105fe5760405163118cdaa760e01b8152336004820152602401610380565b600080546001600160a01b038381166001600160a01b0319831681178455604051919092169283917f8be0079c531659141344cd1fd0a4f28419497f9722a3daafe3b4186f6b6457e09190a35050565b80356001600160a01b0381168114610f6257600080fd5b919050565b600060208284031215610f7957600080fd5b610f8282610f4b565b9392505050565b60008083601f840112610f9b57600080fd5b50813567ffffffffffffffff811115610fb357600080fd5b6020830191508360208260051b8501011115610fce57600080fd5b9250929050565b60008060008060408587031215610feb57600080fd5b843567ffffffffffffffff81111561100257600080fd5b61100e87828801610f89565b909550935050602085013567ffffffffffffffff81111561102e57600080fd5b61103a87828801610f89565b95989497509550505050565b6000806040838503121561105957600080fd5b61106283610f4b565b946020939093013593505050565b60208082526023908201527f4e6f7420617574686f72697a656420746f20757064617465207265707574617460408201526234b7b760e91b606082015260800190565b602080825260149082015273496e76616c69642075736572206164647265737360601b604082015260600190565b634e487b7160e01b600052601160045260246000fd5b818103818111156104d3576104d36110e1565b80820281158282048414176104d3576104d36110e1565b60008261113e57634e487b7160e01b600052601260045260246000fd5b500490565b808201808211156104d3576104d36110e1565b634e487b7160e01b600052603260045260246000fdfea2646970667358221220f36f29150e057239b41c89ab13d8fdc98ea4da3374a1679ca498e7181fb8534464736f6c634300081c0033",
  "linkReferences": {},
  "deployedLinkReferences": {}
}